01REMESSA01COBRANCA       04370919641201300343ESCOLA FUTUROS GENIOS.        033SANTANDER      1702200000000000000000                                                                                                                                                                                                                                                                                      000001
10205567782000169043709196412013003430000000000000000000000000-30921-000000 00000000000000000000    000000501000000000000000000000000002500000000043701N17022020000000000000000000000000000000000000000000000000000000000000000100015248324807000000000000000SALWA MAHMOUD BAKRI SOUZA0000000000000000000000000000000000000000Vila Itaberaba0284707000000000S伋 PauloSP00000SALWA MAHMOUD BAKRI SOUZAI06000002
10205567782000169043709196412013003430000000000000000000000000-30932-000000 00000000000000000000    000000501000000000020200110000000478520000000043701N17022020000000000000000000000000000000000000000000000000000000000000000100015248324807000000000000000SALWA MAHMOUD BAKRI SOUZA0000000000000000000000000000000000000000Vila Itaberaba0284707000000000S伋 PauloSP00000SALWA MAHMOUD BAKRI SOUZAI06000003
10205567782000169043709196412013003430000000000000000000000000-30943-000000 00000000000000000000    000000501000000000020200210000000478520000000043701N17022020000000000000000000000000000000000000000000000000000000000000000100015248324807000000000000000SALWA MAHMOUD BAKRI SOUZA0000000000000000000000000000000000000000Vila Itaberaba0284707000000000S伋 PauloSP00000SALWA MAHMOUD BAKRI SOUZAI06000004
10205567782000169043709196412013003430000000000000000000000000-30954-000000 00000000000000000000    000000501000000000020200310000000478520000000043701N17022020000000000000000000000000000000000000000000000000000000000000000100015248324807000000000000000SALWA MAHMOUD BAKRI SOUZA0000000000000000000000000000000000000000Vila Itaberaba0284707000000000S伋 PauloSP00000SALWA MAHMOUD BAKRI SOUZAI06000005
10205567782000169043709196412013003430000000000000000000000000-30965-000000 00000000000000000000    000000501000000000020200410000000478520000000043701N17022020000000000000000000000000000000000000000000000000000000000000000100015248324807000000000000000SALWA MAHMOUD BAKRI SOUZA0000000000000000000000000000000000000000Vila Itaberaba0284707000000000S伋 PauloSP00000SALWA MAHMOUD BAKRI SOUZAI06000006
10205567782000169043709196412013003430000000000000000000000000-30976-000000 00000000000000000000    000000501000000000020200510000000478520000000043701N17022020000000000000000000000000000000000000000000000000000000000000000100015248324807000000000000000SALWA MAHMOUD BAKRI SOUZA0000000000000000000000000000000000000000Vila Itaberaba0284707000000000S伋 PauloSP00000SALWA MAHMOUD BAKRI SOUZAI06000007
10205567782000169043709196412013003430000000000000000000000000-30987-000000 00000000000000000000    000000501000000000020200610000000478520000000043701N17022020000000000000000000000000000000000000000000000000000000000000000100015248324807000000000000000SALWA MAHMOUD BAKRI SOUZA0000000000000000000000000000000000000000Vila Itaberaba0284707000000000S伋 PauloSP00000SALWA MAHMOUD BAKRI SOUZAI06000008
10205567782000169043709196412013003430000000000000000000000000-30998-000000 00000000000000000000    000000501000000000020200710000000478520000000043701N17022020000000000000000000000000000000000000000000000000000000000000000100015248324807000000000000000SALWA MAHMOUD BAKRI SOUZA0000000000000000000000000000000000000000Vila Itaberaba0284707000000000S伋 PauloSP00000SALWA MAHMOUD BAKRI SOUZAI06000009
10205567782000169043709196412013003430000000000000000000000000-301009-000000 00000000000000000000    000000501000000000020200810000000478520000000043701N17022020000000000000000000000000000000000000000000000000000000000000000100015248324807000000000000000SALWA MAHMOUD BAKRI SOUZA0000000000000000000000000000000000000000Vila Itaberaba0284707000000000S伋 PauloSP00000SALWA MAHMOUD BAKRI SOUZAI06000010
10205567782000169043709196412013003430000000000000000000000000-3010110-000000 00000000000000000000    000000501000000000020200910000000478520000000043701N17022020000000000000000000000000000000000000000000000000000000000000000100015248324807000000000000000SALWA MAHMOUD BAKRI SOUZA0000000000000000000000000000000000000000Vila Itaberaba0284707000000000S伋 PauloSP00000SALWA MAHMOUD BAKRI SOUZAI06000011
10205567782000169043709196412013003430000000000000000000000000-3010211-000000 00000000000000000000    000000501000000000020201010000000478520000000043701N17022020000000000000000000000000000000000000000000000000000000000000000100015248324807000000000000000SALWA MAHMOUD BAKRI SOUZA0000000000000000000000000000000000000000Vila Itaberaba0284707000000000S伋 PauloSP00000SALWA MAHMOUD BAKRI SOUZAI06000012
10205567782000169043709196412013003430000000000000000000000000-3010312-000000 00000000000000000000    000000501000000000020201110000000478520000000043701N17022020000000000000000000000000000000000000000000000000000000000000000100015248324807000000000000000SALWA MAHMOUD BAKRI SOUZA0000000000000000000000000000000000000000Vila Itaberaba0284707000000000S伋 PauloSP00000SALWA MAHMOUD BAKRI SOUZAI06000013
10205567782000169043709196412013003430000000000000000000000000-3010413-000000 00000000000000000000    000000501000000000000000000000000478520000000043701N17022020000000000000000000000000000000000000000000000000000000000000000100015248324807000000000000000SALWA MAHMOUD BAKRI SOUZA0000000000000000000000000000000000000000Vila Itaberaba0284707000000000S伋 PauloSP00000SALWA MAHMOUD BAKRI SOUZAI06000014
10205567782000169043709196412013003430000000000000000000000000-541051-000000 00000000000000000000    000000501000000000000000000000000002500000000043701N17022020000000000000000000000000000000000000000000000000000000000000000100036429746860000000000000000000DANILLO CALLANA SAN츒 0000000000000000000000000000000000000000Jardim dos Francos0287400000000000S伋 PauloSP00000000DANILLO CALLANA SAN츒 I06000015
10205567782000169043709196412013003430000000000000000000000000-541062-000000 00000000000000000000    000000501000000000020200108000000004300000000043701N17022020000000000000000000000000000000000000000000000000000000000000000100036429746860000000000000000000DANILLO CALLANA SAN츒 0000000000000000000000000000000000000000Jardim dos Francos0287400000000000S伋 PauloSP00000000DANILLO CALLANA SAN츒 I06000016
10205567782000169043709196412013003430000000000000000000000000-541073-000000 00000000000000000000    000000501000000000020200207000000004300000000043701N17022020000000000000000000000000000000000000000000000000000000000000000100036429746860000000000000000000DANILLO CALLANA SAN츒 0000000000000000000000000000000000000000Jardim dos Francos0287400000000000S伋 PauloSP00000000DANILLO CALLANA SAN츒 I06000017
10205567782000169043709196412013003430000000000000000000000000-541084-000000 00000000000000000000    000000501000000000020200306000000004300000000043701N17022020000000000000000000000000000000000000000000000000000000000000000100036429746860000000000000000000DANILLO CALLANA SAN츒 0000000000000000000000000000000000000000Jardim dos Francos0287400000000000S伋 PauloSP00000000DANILLO CALLANA SAN츒 I06000018
10205567782000169043709196412013003430000000000000000000000000-541095-000000 00000000000000000000    000000501000000000020200407000000004300000000043701N17022020000000000000000000000000000000000000000000000000000000000000000100036429746860000000000000000000DANILLO CALLANA SAN츒 0000000000000000000000000000000000000000Jardim dos Francos0287400000000000S伋 PauloSP00000000DANILLO CALLANA SAN츒 I06000019
10205567782000169043709196412013003430000000000000000000000000-541106-000000 00000000000000000000    000000501000000000020200508000000004300000000043701N17022020000000000000000000000000000000000000000000000000000000000000000100036429746860000000000000000000DANILLO CALLANA SAN츒 0000000000000000000000000000000000000000Jardim dos Francos0287400000000000S伋 PauloSP00000000DANILLO CALLANA SAN츒 I06000020
10205567782000169043709196412013003430000000000000000000000000-541117-000000 00000000000000000000    000000501000000000020200605000000004300000000043701N17022020000000000000000000000000000000000000000000000000000000000000000100036429746860000000000000000000DANILLO CALLANA SAN츒 0000000000000000000000000000000000000000Jardim dos Francos0287400000000000S伋 PauloSP00000000DANILLO CALLANA SAN츒 I06000021
10205567782000169043709196412013003430000000000000000000000000-541128-000000 00000000000000000000    000000501000000000020200707000000004300000000043701N17022020000000000000000000000000000000000000000000000000000000000000000100036429746860000000000000000000DANILLO CALLANA SAN츒 0000000000000000000000000000000000000000Jardim dos Francos0287400000000000S伋 PauloSP00000000DANILLO CALLANA SAN츒 I06000022
10205567782000169043709196412013003430000000000000000000000000-541139-000000 00000000000000000000    000000501000000000020200807000000004300000000043701N17022020000000000000000000000000000000000000000000000000000000000000000100036429746860000000000000000000DANILLO CALLANA SAN츒 0000000000000000000000000000000000000000Jardim dos Francos0287400000000000S伋 PauloSP00000000DANILLO CALLANA SAN츒 I06000023
10205567782000169043709196412013003430000000000000000000000000-5411410-000000 00000000000000000000    000000501000000000020200908000000004300000000043701N17022020000000000000000000000000000000000000000000000000000000000000000100036429746860000000000000000000DANILLO CALLANA SAN츒 0000000000000000000000000000000000000000Jardim dos Francos0287400000000000S伋 PauloSP00000000DANILLO CALLANA SAN츒 I06000024
10205567782000169043709196412013003430000000000000000000000000-5411511-000000 00000000000000000000    000000501000000000020201007000000004300000000043701N17022020000000000000000000000000000000000000000000000000000000000000000100036429746860000000000000000000DANILLO CALLANA SAN츒 0000000000000000000000000000000000000000Jardim dos Francos0287400000000000S伋 PauloSP00000000DANILLO CALLANA SAN츒 I06000025
10205567782000169043709196412013003430000000000000000000000000-5411612-000000 00000000000000000000    000000501000000000020201109000000004300000000043701N17022020000000000000000000000000000000000000000000000000000000000000000100036429746860000000000000000000DANILLO CALLANA SAN츒 0000000000000000000000000000000000000000Jardim dos Francos0287400000000000S伋 PauloSP00000000DANILLO CALLANA SAN츒 I06000026
10205567782000169043709196412013003430000000000000000000000000-5411713-000000 00000000000000000000    000000501000000000020201207000000004300000000043701N17022020000000000000000000000000000000000000000000000000000000000000000100036429746860000000000000000000DANILLO CALLANA SAN츒 0000000000000000000000000000000000000000Jardim dos Francos0287400000000000S伋 PauloSP00000000DANILLO CALLANA SAN츒 I06000027
10205567782000169043709196412013003430000000000000000000000000-441181-000000 00000000000000000000    000000501000000000000000000000000002500000000043701N1702202000000000000000000000000000000000000000000000000000000000000000010001934614688500000000000000000MARCIO OLIVEIRA MARQUES000000000000000000000000000000000000000000Vila Souza0000286000000000S伋 PauloSP0000000MARCIO OLIVEIRA MARQUESI06000028
10205567782000169043709196412013003430000000000000000000000000-441192-000000 00000000000000000000    000000501000000000020200108000000004320000000043701N1702202000000000000000000000000000000000000000000000000000000000000000010001934614688500000000000000000MARCIO OLIVEIRA MARQUES000000000000000000000000000000000000000000Vila Souza0000286000000000S伋 PauloSP0000000MARCIO OLIVEIRA MARQUESI06000029
10205567782000169043709196412013003430000000000000000000000000-441203-000000 00000000000000000000    000000501000000000020200207000000004320000000043701N1702202000000000000000000000000000000000000000000000000000000000000000010001934614688500000000000000000MARCIO OLIVEIRA MARQUES000000000000000000000000000000000000000000Vila Souza0000286000000000S伋 PauloSP0000000MARCIO OLIVEIRA MARQUESI06000030
10205567782000169043709196412013003430000000000000000000000000-441214-000000 00000000000000000000    000000501000000000020200306000000004320000000043701N1702202000000000000000000000000000000000000000000000000000000000000000010001934614688500000000000000000MARCIO OLIVEIRA MARQUES000000000000000000000000000000000000000000Vila Souza0000286000000000S伋 PauloSP0000000MARCIO OLIVEIRA MARQUESI06000031
10205567782000169043709196412013003430000000000000000000000000-441225-000000 00000000000000000000    000000501000000000020200407000000004320000000043701N1702202000000000000000000000000000000000000000000000000000000000000000010001934614688500000000000000000MARCIO OLIVEIRA MARQUES000000000000000000000000000000000000000000Vila Souza0000286000000000S伋 PauloSP0000000MARCIO OLIVEIRA MARQUESI06000032
10205567782000169043709196412013003430000000000000000000000000-441236-000000 00000000000000000000    000000501000000000020200508000000004320000000043701N1702202000000000000000000000000000000000000000000000000000000000000000010001934614688500000000000000000MARCIO OLIVEIRA MARQUES000000000000000000000000000000000000000000Vila Souza0000286000000000S伋 PauloSP0000000MARCIO OLIVEIRA MARQUESI06000033
10205567782000169043709196412013003430000000000000000000000000-441247-000000 00000000000000000000    000000501000000000020200605000000004320000000043701N1702202000000000000000000000000000000000000000000000000000000000000000010001934614688500000000000000000MARCIO OLIVEIRA MARQUES000000000000000000000000000000000000000000Vila Souza0000286000000000S伋 PauloSP0000000MARCIO OLIVEIRA MARQUESI06000034
10205567782000169043709196412013003430000000000000000000000000-441258-000000 00000000000000000000    000000501000000000020200707000000004320000000043701N1702202000000000000000000000000000000000000000000000000000000000000000010001934614688500000000000000000MARCIO OLIVEIRA MARQUES000000000000000000000000000000000000000000Vila Souza0000286000000000S伋 PauloSP0000000MARCIO OLIVEIRA MARQUESI06000035
10205567782000169043709196412013003430000000000000000000000000-441269-000000 00000000000000000000    000000501000000000020200807000000004320000000043701N1702202000000000000000000000000000000000000000000000000000000000000000010001934614688500000000000000000MARCIO OLIVEIRA MARQUES000000000000000000000000000000000000000000Vila Souza0000286000000000S伋 PauloSP0000000MARCIO OLIVEIRA MARQUESI06000036
10205567782000169043709196412013003430000000000000000000000000-4412710-000000 00000000000000000000    000000501000000000020200908000000004320000000043701N1702202000000000000000000000000000000000000000000000000000000000000000010001934614688500000000000000000MARCIO OLIVEIRA MARQUES000000000000000000000000000000000000000000Vila Souza0000286000000000S伋 PauloSP0000000MARCIO OLIVEIRA MARQUESI06000037
10205567782000169043709196412013003430000000000000000000000000-4412811-000000 00000000000000000000    000000501000000000020201007000000004320000000043701N1702202000000000000000000000000000000000000000000000000000000000000000010001934614688500000000000000000MARCIO OLIVEIRA MARQUES000000000000000000000000000000000000000000Vila Souza0000286000000000S伋 PauloSP0000000MARCIO OLIVEIRA MARQUESI06000038
10205567782000169043709196412013003430000000000000000000000000-4412912-000000 00000000000000000000    000000501000000000020201109000000004320000000043701N1702202000000000000000000000000000000000000000000000000000000000000000010001934614688500000000000000000MARCIO OLIVEIRA MARQUES000000000000000000000000000000000000000000Vila Souza0000286000000000S伋 PauloSP0000000MARCIO OLIVEIRA MARQUESI06000039
10205567782000169043709196412013003430000000000000000000000000-4413013-000000 00000000000000000000    000000501000000000020201207000000004320000000043701N1702202000000000000000000000000000000000000000000000000000000000000000010001934614688500000000000000000MARCIO OLIVEIRA MARQUES000000000000000000000000000000000000000000Vila Souza0000286000000000S伋 PauloSP0000000MARCIO OLIVEIRA MARQUESI06000040
10205567782000169043709196412013003430000000000000000000000000-531441-000000 00000000000000000000    000000501000000000000000000000000002500000000043701N170220200000000000000000000000000000000000000000000000000000000000000001000306385718120000000000000Tatiane Alessandra da Silva0000000000000000000000000000000000000000Lauzane Paulista0243000200000000S伋 PauloSP000Tatiane Alessandra da SilvaI06000041
10205567782000169043709196412013003430000000000000000000000000-531452-000000 00000000000000000000    000000501000000000020200108000000006900000000043701N170220200000000000000000000000000000000000000000000000000000000000000001000306385718120000000000000Tatiane Alessandra da Silva0000000000000000000000000000000000000000Lauzane Paulista0243000200000000S伋 PauloSP000Tatiane Alessandra da SilvaI06000042
10205567782000169043709196412013003430000000000000000000000000-531463-000000 00000000000000000000    000000501000000000020200207000000006900000000043701N170220200000000000000000000000000000000000000000000000000000000000000001000306385718120000000000000Tatiane Alessandra da Silva0000000000000000000000000000000000000000Lauzane Paulista0243000200000000S伋 PauloSP000Tatiane Alessandra da SilvaI06000043
10205567782000169043709196412013003430000000000000000000000000-531474-000000 00000000000000000000    000000501000000000020200306000000006900000000043701N170220200000000000000000000000000000000000000000000000000000000000000001000306385718120000000000000Tatiane Alessandra da Silva0000000000000000000000000000000000000000Lauzane Paulista0243000200000000S伋 PauloSP000Tatiane Alessandra da SilvaI06000044
10205567782000169043709196412013003430000000000000000000000000-531485-000000 00000000000000000000    000000501000000000020200406000000006900000000043701N170220200000000000000000000000000000000000000000000000000000000000000001000306385718120000000000000Tatiane Alessandra da Silva0000000000000000000000000000000000000000Lauzane Paulista0243000200000000S伋 PauloSP000Tatiane Alessandra da SilvaI06000045
10205567782000169043709196412013003430000000000000000000000000-531496-000000 00000000000000000000    000000501000000000020200508000000006900000000043701N170220200000000000000000000000000000000000000000000000000000000000000001000306385718120000000000000Tatiane Alessandra da Silva0000000000000000000000000000000000000000Lauzane Paulista0243000200000000S伋 PauloSP000Tatiane Alessandra da SilvaI06000046
10205567782000169043709196412013003430000000000000000000000000-531507-000000 00000000000000000000    000000501000000000020200605000000006900000000043701N170220200000000000000000000000000000000000000000000000000000000000000001000306385718120000000000000Tatiane Alessandra da Silva0000000000000000000000000000000000000000Lauzane Paulista0243000200000000S伋 PauloSP000Tatiane Alessandra da SilvaI06000047
10205567782000169043709196412013003430000000000000000000000000-531518-000000 00000000000000000000    000000501000000000020200707000000006900000000043701N170220200000000000000000000000000000000000000000000000000000000000000001000306385718120000000000000Tatiane Alessandra da Silva0000000000000000000000000000000000000000Lauzane Paulista0243000200000000S伋 PauloSP000Tatiane Alessandra da SilvaI06000048
10205567782000169043709196412013003430000000000000000000000000-531529-000000 00000000000000000000    000000501000000000020200807000000006900000000043701N170220200000000000000000000000000000000000000000000000000000000000000001000306385718120000000000000Tatiane Alessandra da Silva0000000000000000000000000000000000000000Lauzane Paulista0243000200000000S伋 PauloSP000Tatiane Alessandra da SilvaI06000049
10205567782000169043709196412013003430000000000000000000000000-5315310-000000 00000000000000000000    000000501000000000020200907000000006900000000043701N170220200000000000000000000000000000000000000000000000000000000000000001000306385718120000000000000Tatiane Alessandra da Silva0000000000000000000000000000000000000000Lauzane Paulista0243000200000000S伋 PauloSP000Tatiane Alessandra da SilvaI06000050
10205567782000169043709196412013003430000000000000000000000000-5315411-000000 00000000000000000000    000000501000000000020201008000000006900000000043701N170220200000000000000000000000000000000000000000000000000000000000000001000306385718120000000000000Tatiane Alessandra da Silva0000000000000000000000000000000000000000Lauzane Paulista0243000200000000S伋 PauloSP000Tatiane Alessandra da SilvaI06000051
10205567782000169043709196412013003430000000000000000000000000-5315512-000000 00000000000000000000    000000501000000000020201109000000006900000000043701N170220200000000000000000000000000000000000000000000000000000000000000001000306385718120000000000000Tatiane Alessandra da Silva0000000000000000000000000000000000000000Lauzane Paulista0243000200000000S伋 PauloSP000Tatiane Alessandra da SilvaI06000052
10205567782000169043709196412013003430000000000000000000000000-5315613-000000 00000000000000000000    000000501000000000020201207000000006900000000043701N170220200000000000000000000000000000000000000000000000000000000000000001000306385718120000000000000Tatiane Alessandra da Silva0000000000000000000000000000000000000000Lauzane Paulista0243000200000000S伋 PauloSP000Tatiane Alessandra da SilvaI06000053
10205567782000169043709196412013003430000000000000000000000000-421571-000000 00000000000000000000    000000501000000000000000000000000002500000000043701N170220200000000000000000000000000000000000000000000000000000000000000001000130002758430000000ANTONIO COSTA DOS SANTOS GON큐LVES0000000000000000000000000000000000000000000Brasil轟dia0286310000000000S伋 PauloSPANTONIO COSTA DOS SANTOS GON큐LVESI06000054
10205567782000169043709196412013003430000000000000000000000000-421582-000000 00000000000000000000    000000501000000000020200108000000077520000000043701N170220200000000000000000000000000000000000000000000000000000000000000001000130002758430000000ANTONIO COSTA DOS SANTOS GON큐LVES0000000000000000000000000000000000000000000Brasil轟dia0286310000000000S伋 PauloSPANTONIO COSTA DOS SANTOS GON큐LVESI06000055
10205567782000169043709196412013003430000000000000000000000000-421593-000000 00000000000000000000    000000501000000000020200207000000077520000000043701N170220200000000000000000000000000000000000000000000000000000000000000001000130002758430000000ANTONIO COSTA DOS SANTOS GON큐LVES0000000000000000000000000000000000000000000Brasil轟dia0286310000000000S伋 PauloSPANTONIO COSTA DOS SANTOS GON큐LVESI06000056
10205567782000169043709196412013003430000000000000000000000000-421604-000000 00000000000000000000    000000501000000000020200306000000077520000000043701N170220200000000000000000000000000000000000000000000000000000000000000001000130002758430000000ANTONIO COSTA DOS SANTOS GON큐LVES0000000000000000000000000000000000000000000Brasil轟dia0286310000000000S伋 PauloSPANTONIO COSTA DOS SANTOS GON큐LVESI06000057
10205567782000169043709196412013003430000000000000000000000000-421615-000000 00000000000000000000    000000501000000000020200407000000077520000000043701N170220200000000000000000000000000000000000000000000000000000000000000001000130002758430000000ANTONIO COSTA DOS SANTOS GON큐LVES0000000000000000000000000000000000000000000Brasil轟dia0286310000000000S伋 PauloSPANTONIO COSTA DOS SANTOS GON큐LVESI06000058
10205567782000169043709196412013003430000000000000000000000000-421626-000000 00000000000000000000    000000501000000000020200508000000077520000000043701N170220200000000000000000000000000000000000000000000000000000000000000001000130002758430000000ANTONIO COSTA DOS SANTOS GON큐LVES0000000000000000000000000000000000000000000Brasil轟dia0286310000000000S伋 PauloSPANTONIO COSTA DOS SANTOS GON큐LVESI06000059
10205567782000169043709196412013003430000000000000000000000000-421637-000000 00000000000000000000    000000501000000000020200605000000077520000000043701N170220200000000000000000000000000000000000000000000000000000000000000001000130002758430000000ANTONIO COSTA DOS SANTOS GON큐LVES0000000000000000000000000000000000000000000Brasil轟dia0286310000000000S伋 PauloSPANTONIO COSTA DOS SANTOS GON큐LVESI06000060
10205567782000169043709196412013003430000000000000000000000000-421648-000000 00000000000000000000    000000501000000000020200707000000077520000000043701N170220200000000000000000000000000000000000000000000000000000000000000001000130002758430000000ANTONIO COSTA DOS SANTOS GON큐LVES0000000000000000000000000000000000000000000Brasil轟dia0286310000000000S伋 PauloSPANTONIO COSTA DOS SANTOS GON큐LVESI06000061
10205567782000169043709196412013003430000000000000000000000000-421659-000000 00000000000000000000    000000501000000000020200807000000077520000000043701N170220200000000000000000000000000000000000000000000000000000000000000001000130002758430000000ANTONIO COSTA DOS SANTOS GON큐LVES0000000000000000000000000000000000000000000Brasil轟dia0286310000000000S伋 PauloSPANTONIO COSTA DOS SANTOS GON큐LVESI06000062
10205567782000169043709196412013003430000000000000000000000000-4216610-000000 00000000000000000000    000000501000000000020200908000000077520000000043701N170220200000000000000000000000000000000000000000000000000000000000000001000130002758430000000ANTONIO COSTA DOS SANTOS GON큐LVES0000000000000000000000000000000000000000000Brasil轟dia0286310000000000S伋 PauloSPANTONIO COSTA DOS SANTOS GON큐LVESI06000063
10205567782000169043709196412013003430000000000000000000000000-4216711-000000 00000000000000000000    000000501000000000020201007000000077520000000043701N170220200000000000000000000000000000000000000000000000000000000000000001000130002758430000000ANTONIO COSTA DOS SANTOS GON큐LVES0000000000000000000000000000000000000000000Brasil轟dia0286310000000000S伋 PauloSPANTONIO COSTA DOS SANTOS GON큐LVESI06000064
10205567782000169043709196412013003430000000000000000000000000-4216812-000000 00000000000000000000    000000501000000000020201109000000077520000000043701N170220200000000000000000000000000000000000000000000000000000000000000001000130002758430000000ANTONIO COSTA DOS SANTOS GON큐LVES0000000000000000000000000000000000000000000Brasil轟dia0286310000000000S伋 PauloSPANTONIO COSTA DOS SANTOS GON큐LVESI06000065
10205567782000169043709196412013003430000000000000000000000000-4216913-000000 00000000000000000000    000000501000000000020201207000000077520000000043701N170220200000000000000000000000000000000000000000000000000000000000000001000130002758430000000ANTONIO COSTA DOS SANTOS GON큐LVES0000000000000000000000000000000000000000000Brasil轟dia0286310000000000S伋 PauloSPANTONIO COSTA DOS SANTOS GON큐LVESI06000066
10205567782000169043709196412013003430000000000000000000000000-491701-000000 00000000000000000000    000000501000000000000000000000000002500000000043701N1702202000000000000000000000000000000000000000000000000000000000000000010000129749451200000000000MARIA APARECIDA CARVALHO LIMA0000000000000000000000000000000000000000Jardim Vista Alegre0287800000000000S伋 PauloSP0MARIA APARECIDA CARVALHO LIMAI06000067
10205567782000169043709196412013003430000000000000000000000000-491712-000000 00000000000000000000    000000501000000000020200120000000007660000000043701N1702202000000000000000000000000000000000000000000000000000000000000000010000129749451200000000000MARIA APARECIDA CARVALHO LIMA0000000000000000000000000000000000000000Jardim Vista Alegre0287800000000000S伋 PauloSP0MARIA APARECIDA CARVALHO LIMAI06000068
10205567782000169043709196412013003430000000000000000000000000-491723-000000 00000000000000000000    000000501000000000020200220000000007660000000043701N1702202000000000000000000000000000000000000000000000000000000000000000010000129749451200000000000MARIA APARECIDA CARVALHO LIMA0000000000000000000000000000000000000000Jardim Vista Alegre0287800000000000S伋 PauloSP0MARIA APARECIDA CARVALHO LIMAI06000069
10205567782000169043709196412013003430000000000000000000000000-491734-000000 00000000000000000000    000000501000000000020200320000000007660000000043701N1702202000000000000000000000000000000000000000000000000000000000000000010000129749451200000000000MARIA APARECIDA CARVALHO LIMA0000000000000000000000000000000000000000Jardim Vista Alegre0287800000000000S伋 PauloSP0MARIA APARECIDA CARVALHO LIMAI06000070
10205567782000169043709196412013003430000000000000000000000000-491745-000000 00000000000000000000    000000501000000000020200420000000007660000000043701N1702202000000000000000000000000000000000000000000000000000000000000000010000129749451200000000000MARIA APARECIDA CARVALHO LIMA0000000000000000000000000000000000000000Jardim Vista Alegre0287800000000000S伋 PauloSP0MARIA APARECIDA CARVALHO LIMAI06000071
10205567782000169043709196412013003430000000000000000000000000-491756-000000 00000000000000000000    000000501000000000020200520000000007660000000043701N1702202000000000000000000000000000000000000000000000000000000000000000010000129749451200000000000MARIA APARECIDA CARVALHO LIMA0000000000000000000000000000000000000000Jardim Vista Alegre0287800000000000S伋 PauloSP0MARIA APARECIDA CARVALHO LIMAI06000072
10205567782000169043709196412013003430000000000000000000000000-491767-000000 00000000000000000000    000000501000000000020200620000000007660000000043701N1702202000000000000000000000000000000000000000000000000000000000000000010000129749451200000000000MARIA APARECIDA CARVALHO LIMA0000000000000000000000000000000000000000Jardim Vista Alegre0287800000000000S伋 PauloSP0MARIA APARECIDA CARVALHO LIMAI06000073
10205567782000169043709196412013003430000000000000000000000000-491778-000000 00000000000000000000    000000501000000000020200720000000007660000000043701N1702202000000000000000000000000000000000000000000000000000000000000000010000129749451200000000000MARIA APARECIDA CARVALHO LIMA0000000000000000000000000000000000000000Jardim Vista Alegre0287800000000000S伋 PauloSP0MARIA APARECIDA CARVALHO LIMAI06000074
10205567782000169043709196412013003430000000000000000000000000-491789-000000 00000000000000000000    000000501000000000020200820000000007660000000043701N1702202000000000000000000000000000000000000000000000000000000000000000010000129749451200000000000MARIA APARECIDA CARVALHO LIMA0000000000000000000000000000000000000000Jardim Vista Alegre0287800000000000S伋 PauloSP0MARIA APARECIDA CARVALHO LIMAI06000075
10205567782000169043709196412013003430000000000000000000000000-4917910-000000 00000000000000000000    000000501000000000020200920000000007660000000043701N1702202000000000000000000000000000000000000000000000000000000000000000010000129749451200000000000MARIA APARECIDA CARVALHO LIMA0000000000000000000000000000000000000000Jardim Vista Alegre0287800000000000S伋 PauloSP0MARIA APARECIDA CARVALHO LIMAI06000076
10205567782000169043709196412013003430000000000000000000000000-4918011-000000 00000000000000000000    000000501000000000020201020000000007660000000043701N1702202000000000000000000000000000000000000000000000000000000000000000010000129749451200000000000MARIA APARECIDA CARVALHO LIMA0000000000000000000000000000000000000000Jardim Vista Alegre0287800000000000S伋 PauloSP0MARIA APARECIDA CARVALHO LIMAI06000077
10205567782000169043709196412013003430000000000000000000000000-4918112-000000 00000000000000000000    000000501000000000020201120000000007660000000043701N1702202000000000000000000000000000000000000000000000000000000000000000010000129749451200000000000MARIA APARECIDA CARVALHO LIMA0000000000000000000000000000000000000000Jardim Vista Alegre0287800000000000S伋 PauloSP0MARIA APARECIDA CARVALHO LIMAI06000078
10205567782000169043709196412013003430000000000000000000000000-4918213-000000 00000000000000000000    000000501000000000020201220000000007660000000043701N1702202000000000000000000000000000000000000000000000000000000000000000010000129749451200000000000MARIA APARECIDA CARVALHO LIMA0000000000000000000000000000000000000000Jardim Vista Alegre0287800000000000S伋 PauloSP0MARIA APARECIDA CARVALHO LIMAI06000079
10205567782000169043709196412013003430000000000000000000000000-71831-000000 00000000000000000000    000000501000000000000000000000000002500000000043701N17022020000000000000000000000000000000000000000000000000000000000000000100008740846873MARTA APARECIDA VENTURA PEREIRA DA SILVA0000000000000000000000000000000000000000Jardim Centen痙io0288214000000000S伋 PauloSPMARTA APARECIDA VENTURA PEREIRA DA SILVAI06000080
10205567782000169043709196412013003430000000000000000000000000-71842-000000 00000000000000000000    000000501000000000020200101000000004200000000043701N17022020000000000000000000000000000000000000000000000000000000000000000100008740846873MARTA APARECIDA VENTURA PEREIRA DA SILVA0000000000000000000000000000000000000000Jardim Centen痙io0288214000000000S伋 PauloSPMARTA APARECIDA VENTURA PEREIRA DA SILVAI06000081
10205567782000169043709196412013003430000000000000000000000000-71853-000000 00000000000000000000    000000501000000000020200201000000004200000000043701N17022020000000000000000000000000000000000000000000000000000000000000000100008740846873MARTA APARECIDA VENTURA PEREIRA DA SILVA0000000000000000000000000000000000000000Jardim Centen痙io0288214000000000S伋 PauloSPMARTA APARECIDA VENTURA PEREIRA DA SILVAI06000082
10205567782000169043709196412013003430000000000000000000000000-71864-000000 00000000000000000000    000000501000000000020200301000000004200000000043701N17022020000000000000000000000000000000000000000000000000000000000000000100008740846873MARTA APARECIDA VENTURA PEREIRA DA SILVA0000000000000000000000000000000000000000Jardim Centen痙io0288214000000000S伋 PauloSPMARTA APARECIDA VENTURA PEREIRA DA SILVAI06000083
10205567782000169043709196412013003430000000000000000000000000-71875-000000 00000000000000000000    000000501000000000020200401000000004200000000043701N17022020000000000000000000000000000000000000000000000000000000000000000100008740846873MARTA APARECIDA VENTURA PEREIRA DA SILVA0000000000000000000000000000000000000000Jardim Centen痙io0288214000000000S伋 PauloSPMARTA APARECIDA VENTURA PEREIRA DA SILVAI06000084
10205567782000169043709196412013003430000000000000000000000000-71886-000000 00000000000000000000    000000501000000000020200501000000004200000000043701N17022020000000000000000000000000000000000000000000000000000000000000000100008740846873MARTA APARECIDA VENTURA PEREIRA DA SILVA0000000000000000000000000000000000000000Jardim Centen痙io0288214000000000S伋 PauloSPMARTA APARECIDA VENTURA PEREIRA DA SILVAI06000085
10205567782000169043709196412013003430000000000000000000000000-71897-000000 00000000000000000000    000000501000000000020200601000000004200000000043701N17022020000000000000000000000000000000000000000000000000000000000000000100008740846873MARTA APARECIDA VENTURA PEREIRA DA SILVA0000000000000000000000000000000000000000Jardim Centen痙io0288214000000000S伋 PauloSPMARTA APARECIDA VENTURA PEREIRA DA SILVAI06000086
10205567782000169043709196412013003430000000000000000000000000-71908-000000 00000000000000000000    000000501000000000020200701000000004200000000043701N17022020000000000000000000000000000000000000000000000000000000000000000100008740846873MARTA APARECIDA VENTURA PEREIRA DA SILVA0000000000000000000000000000000000000000Jardim Centen痙io0288214000000000S伋 PauloSPMARTA APARECIDA VENTURA PEREIRA DA SILVAI06000087
10205567782000169043709196412013003430000000000000000000000000-71919-000000 00000000000000000000    000000501000000000020200801000000004200000000043701N17022020000000000000000000000000000000000000000000000000000000000000000100008740846873MARTA APARECIDA VENTURA PEREIRA DA SILVA0000000000000000000000000000000000000000Jardim Centen痙io0288214000000000S伋 PauloSPMARTA APARECIDA VENTURA PEREIRA DA SILVAI06000088
10205567782000169043709196412013003430000000000000000000000000-719210-000000 00000000000000000000    000000501000000000020200901000000004200000000043701N17022020000000000000000000000000000000000000000000000000000000000000000100008740846873MARTA APARECIDA VENTURA PEREIRA DA SILVA0000000000000000000000000000000000000000Jardim Centen痙io0288214000000000S伋 PauloSPMARTA APARECIDA VENTURA PEREIRA DA SILVAI06000089
10205567782000169043709196412013003430000000000000000000000000-719311-000000 00000000000000000000    000000501000000000020201001000000004200000000043701N17022020000000000000000000000000000000000000000000000000000000000000000100008740846873MARTA APARECIDA VENTURA PEREIRA DA SILVA0000000000000000000000000000000000000000Jardim Centen痙io0288214000000000S伋 PauloSPMARTA APARECIDA VENTURA PEREIRA DA SILVAI06000090
10205567782000169043709196412013003430000000000000000000000000-719412-000000 00000000000000000000    000000501000000000020201101000000004200000000043701N17022020000000000000000000000000000000000000000000000000000000000000000100008740846873MARTA APARECIDA VENTURA PEREIRA DA SILVA0000000000000000000000000000000000000000Jardim Centen痙io0288214000000000S伋 PauloSPMARTA APARECIDA VENTURA PEREIRA DA SILVAI06000091
10205567782000169043709196412013003430000000000000000000000000-719513-000000 00000000000000000000    000000501000000000020201201000000004200000000043701N17022020000000000000000000000000000000000000000000000000000000000000000100008740846873MARTA APARECIDA VENTURA PEREIRA DA SILVA0000000000000000000000000000000000000000Jardim Centen痙io0288214000000000S伋 PauloSPMARTA APARECIDA VENTURA PEREIRA DA SILVAI06000092
10205567782000169043709196412013003430000000000000000000000000-81961-000000 00000000000000000000    000000501000000000000000000000000002500000000043701N17022020000000000000000000000000000000000000000000000000000000000000000100008740846873MARTA APARECIDA VENTURA PEREIRA DA SILVA0000000000000000000000000000000000000000Jardim Centen痙io0288214000000000S伋 PauloSPMARTA APARECIDA VENTURA PEREIRA DA SILVAI06000093
10205567782000169043709196412013003430000000000000000000000000-81972-000000 00000000000000000000    000000501000000000020200101000000004200000000043701N17022020000000000000000000000000000000000000000000000000000000000000000100008740846873MARTA APARECIDA VENTURA PEREIRA DA SILVA0000000000000000000000000000000000000000Jardim Centen痙io0288214000000000S伋 PauloSPMARTA APARECIDA VENTURA PEREIRA DA SILVAI06000094
10205567782000169043709196412013003430000000000000000000000000-81983-000000 00000000000000000000    000000501000000000020200201000000004200000000043701N17022020000000000000000000000000000000000000000000000000000000000000000100008740846873MARTA APARECIDA VENTURA PEREIRA DA SILVA0000000000000000000000000000000000000000Jardim Centen痙io0288214000000000S伋 PauloSPMARTA APARECIDA VENTURA PEREIRA DA SILVAI06000095
10205567782000169043709196412013003430000000000000000000000000-81994-000000 00000000000000000000    000000501000000000020200301000000004200000000043701N17022020000000000000000000000000000000000000000000000000000000000000000100008740846873MARTA APARECIDA VENTURA PEREIRA DA SILVA0000000000000000000000000000000000000000Jardim Centen痙io0288214000000000S伋 PauloSPMARTA APARECIDA VENTURA PEREIRA DA SILVAI06000096
10205567782000169043709196412013003430000000000000000000000000-82005-000000 00000000000000000000    000000501000000000020200401000000004200000000043701N17022020000000000000000000000000000000000000000000000000000000000000000100008740846873MARTA APARECIDA VENTURA PEREIRA DA SILVA0000000000000000000000000000000000000000Jardim Centen痙io0288214000000000S伋 PauloSPMARTA APARECIDA VENTURA PEREIRA DA SILVAI06000097
10205567782000169043709196412013003430000000000000000000000000-82016-000000 00000000000000000000    000000501000000000020200501000000004200000000043701N17022020000000000000000000000000000000000000000000000000000000000000000100008740846873MARTA APARECIDA VENTURA PEREIRA DA SILVA0000000000000000000000000000000000000000Jardim Centen痙io0288214000000000S伋 PauloSPMARTA APARECIDA VENTURA PEREIRA DA SILVAI06000098
10205567782000169043709196412013003430000000000000000000000000-82027-000000 00000000000000000000    000000501000000000020200601000000004200000000043701N17022020000000000000000000000000000000000000000000000000000000000000000100008740846873MARTA APARECIDA VENTURA PEREIRA DA SILVA0000000000000000000000000000000000000000Jardim Centen痙io0288214000000000S伋 PauloSPMARTA APARECIDA VENTURA PEREIRA DA SILVAI06000099
10205567782000169043709196412013003430000000000000000000000000-82038-000000 00000000000000000000    000000501000000000020200701000000004200000000043701N17022020000000000000000000000000000000000000000000000000000000000000000100008740846873MARTA APARECIDA VENTURA PEREIRA DA SILVA0000000000000000000000000000000000000000Jardim Centen痙io0288214000000000S伋 PauloSPMARTA APARECIDA VENTURA PEREIRA DA SILVAI06000100
10205567782000169043709196412013003430000000000000000000000000-82049-000000 00000000000000000000    000000501000000000020200801000000004200000000043701N17022020000000000000000000000000000000000000000000000000000000000000000100008740846873MARTA APARECIDA VENTURA PEREIRA DA SILVA0000000000000000000000000000000000000000Jardim Centen痙io0288214000000000S伋 PauloSPMARTA APARECIDA VENTURA PEREIRA DA SILVAI06000101
10205567782000169043709196412013003430000000000000000000000000-820510-000000 00000000000000000000    000000501000000000020200901000000004200000000043701N17022020000000000000000000000000000000000000000000000000000000000000000100008740846873MARTA APARECIDA VENTURA PEREIRA DA SILVA0000000000000000000000000000000000000000Jardim Centen痙io0288214000000000S伋 PauloSPMARTA APARECIDA VENTURA PEREIRA DA SILVAI06000102
10205567782000169043709196412013003430000000000000000000000000-820611-000000 00000000000000000000    000000501000000000020201001000000004200000000043701N17022020000000000000000000000000000000000000000000000000000000000000000100008740846873MARTA APARECIDA VENTURA PEREIRA DA SILVA0000000000000000000000000000000000000000Jardim Centen痙io0288214000000000S伋 PauloSPMARTA APARECIDA VENTURA PEREIRA DA SILVAI06000103
10205567782000169043709196412013003430000000000000000000000000-820712-000000 00000000000000000000    000000501000000000020201101000000004200000000043701N17022020000000000000000000000000000000000000000000000000000000000000000100008740846873MARTA APARECIDA VENTURA PEREIRA DA SILVA0000000000000000000000000000000000000000Jardim Centen痙io0288214000000000S伋 PauloSPMARTA APARECIDA VENTURA PEREIRA DA SILVAI06000104
10205567782000169043709196412013003430000000000000000000000000-820813-000000 00000000000000000000    000000501000000000020201201000000004200000000043701N17022020000000000000000000000000000000000000000000000000000000000000000100008740846873MARTA APARECIDA VENTURA PEREIRA DA SILVA0000000000000000000000000000000000000000Jardim Centen痙io0288214000000000S伋 PauloSPMARTA APARECIDA VENTURA PEREIRA DA SILVAI06000105
10205567782000169043709196412013003430000000000000000000000000-172091-000000 00000000000000000000    000000501000000000000000000000000002500000000043701N1702202000000000000000000000000000000000000000000000000000000000000000010004443294589300000000000000000000BIANCA MOREIRA ARA：O0000000000000000000000000000000000000000Vila Penteado0286707000000000S伋 PauloSP0000000000BIANCA MOREIRA ARA：OI06000106
10205567782000169043709196412013003430000000000000000000000000-172102-000000 00000000000000000000    000000501000000000020200110000000398760000000043701N1702202000000000000000000000000000000000000000000000000000000000000000010004443294589300000000000000000000BIANCA MOREIRA ARA：O0000000000000000000000000000000000000000Vila Penteado0286707000000000S伋 PauloSP0000000000BIANCA MOREIRA ARA：OI06000107
10205567782000169043709196412013003430000000000000000000000000-172113-000000 00000000000000000000    000000501000000000020200210000000398760000000043701N1702202000000000000000000000000000000000000000000000000000000000000000010004443294589300000000000000000000BIANCA MOREIRA ARA：O0000000000000000000000000000000000000000Vila Penteado0286707000000000S伋 PauloSP0000000000BIANCA MOREIRA ARA：OI06000108
10205567782000169043709196412013003430000000000000000000000000-172124-000000 00000000000000000000    000000501000000000020200310000000398760000000043701N1702202000000000000000000000000000000000000000000000000000000000000000010004443294589300000000000000000000BIANCA MOREIRA ARA：O0000000000000000000000000000000000000000Vila Penteado0286707000000000S伋 PauloSP0000000000BIANCA MOREIRA ARA：OI06000109
10205567782000169043709196412013003430000000000000000000000000-172135-000000 00000000000000000000    000000501000000000020200410000000398760000000043701N1702202000000000000000000000000000000000000000000000000000000000000000010004443294589300000000000000000000BIANCA MOREIRA ARA：O0000000000000000000000000000000000000000Vila Penteado0286707000000000S伋 PauloSP0000000000BIANCA MOREIRA ARA：OI06000110
10205567782000169043709196412013003430000000000000000000000000-172146-000000 00000000000000000000    000000501000000000020200510000000398760000000043701N1702202000000000000000000000000000000000000000000000000000000000000000010004443294589300000000000000000000BIANCA MOREIRA ARA：O0000000000000000000000000000000000000000Vila Penteado0286707000000000S伋 PauloSP0000000000BIANCA MOREIRA ARA：OI06000111
10205567782000169043709196412013003430000000000000000000000000-172157-000000 00000000000000000000    000000501000000000020200610000000398760000000043701N1702202000000000000000000000000000000000000000000000000000000000000000010004443294589300000000000000000000BIANCA MOREIRA ARA：O0000000000000000000000000000000000000000Vila Penteado0286707000000000S伋 PauloSP0000000000BIANCA MOREIRA ARA：OI06000112
10205567782000169043709196412013003430000000000000000000000000-172168-000000 00000000000000000000    000000501000000000020200710000000398760000000043701N1702202000000000000000000000000000000000000000000000000000000000000000010004443294589300000000000000000000BIANCA MOREIRA ARA：O0000000000000000000000000000000000000000Vila Penteado0286707000000000S伋 PauloSP0000000000BIANCA MOREIRA ARA：OI06000113
10205567782000169043709196412013003430000000000000000000000000-172179-000000 00000000000000000000    000000501000000000020200810000000398760000000043701N1702202000000000000000000000000000000000000000000000000000000000000000010004443294589300000000000000000000BIANCA MOREIRA ARA：O0000000000000000000000000000000000000000Vila Penteado0286707000000000S伋 PauloSP0000000000BIANCA MOREIRA ARA：OI06000114
10205567782000169043709196412013003430000000000000000000000000-1721810-000000 00000000000000000000    000000501000000000020200910000000398760000000043701N1702202000000000000000000000000000000000000000000000000000000000000000010004443294589300000000000000000000BIANCA MOREIRA ARA：O0000000000000000000000000000000000000000Vila Penteado0286707000000000S伋 PauloSP0000000000BIANCA MOREIRA ARA：OI06000115
10205567782000169043709196412013003430000000000000000000000000-1721911-000000 00000000000000000000    000000501000000000020201010000000398760000000043701N1702202000000000000000000000000000000000000000000000000000000000000000010004443294589300000000000000000000BIANCA MOREIRA ARA：O0000000000000000000000000000000000000000Vila Penteado0286707000000000S伋 PauloSP0000000000BIANCA MOREIRA ARA：OI06000116
10205567782000169043709196412013003430000000000000000000000000-1722012-000000 00000000000000000000    000000501000000000020201110000000398760000000043701N1702202000000000000000000000000000000000000000000000000000000000000000010004443294589300000000000000000000BIANCA MOREIRA ARA：O0000000000000000000000000000000000000000Vila Penteado0286707000000000S伋 PauloSP0000000000BIANCA MOREIRA ARA：OI06000117
10205567782000169043709196412013003430000000000000000000000000-1722113-000000 00000000000000000000    000000501000000000020201210000000398760000000043701N1702202000000000000000000000000000000000000000000000000000000000000000010004443294589300000000000000000000BIANCA MOREIRA ARA：O0000000000000000000000000000000000000000Vila Penteado0286707000000000S伋 PauloSP0000000000BIANCA MOREIRA ARA：OI06000118
10205567782000169043709196412013003430000000000000000000000000-182221-000000 00000000000000000000    000000501000000000000000000000000002500000000043701N1702202000000000000000000000000000000000000000000000000000000000000000010004321851483500000000000000000ALINE SANTANA DE TOLEDO0000000000000000000000000000000000000000Jardim Almanara0286314000000000S伋 PauloSP0000000ALINE SANTANA DE TOLEDOI06000119
10205567782000169043709196412013003430000000000000000000000000-182232-000000 00000000000000000000    000000501000000000020200125000000398760000000043701N1702202000000000000000000000000000000000000000000000000000000000000000010004321851483500000000000000000ALINE SANTANA DE TOLEDO0000000000000000000000000000000000000000Jardim Almanara0286314000000000S伋 PauloSP0000000ALINE SANTANA DE TOLEDOI06000120
10205567782000169043709196412013003430000000000000000000000000-182243-000000 00000000000000000000    000000501000000000020200225000000398760000000043701N1702202000000000000000000000000000000000000000000000000000000000000000010004321851483500000000000000000ALINE SANTANA DE TOLEDO0000000000000000000000000000000000000000Jardim Almanara0286314000000000S伋 PauloSP0000000ALINE SANTANA DE TOLEDOI06000121
10205567782000169043709196412013003430000000000000000000000000-182254-000000 00000000000000000000    000000501000000000020200325000000398760000000043701N1702202000000000000000000000000000000000000000000000000000000000000000010004321851483500000000000000000ALINE SANTANA DE TOLEDO0000000000000000000000000000000000000000Jardim Almanara0286314000000000S伋 PauloSP0000000ALINE SANTANA DE TOLEDOI06000122
10205567782000169043709196412013003430000000000000000000000000-182265-000000 00000000000000000000    000000501000000000020200425000000398760000000043701N1702202000000000000000000000000000000000000000000000000000000000000000010004321851483500000000000000000ALINE SANTANA DE TOLEDO0000000000000000000000000000000000000000Jardim Almanara0286314000000000S伋 PauloSP0000000ALINE SANTANA DE TOLEDOI06000123
10205567782000169043709196412013003430000000000000000000000000-182276-000000 00000000000000000000    000000501000000000020200525000000398760000000043701N1702202000000000000000000000000000000000000000000000000000000000000000010004321851483500000000000000000ALINE SANTANA DE TOLEDO0000000000000000000000000000000000000000Jardim Almanara0286314000000000S伋 PauloSP0000000ALINE SANTANA DE TOLEDOI06000124
10205567782000169043709196412013003430000000000000000000000000-182287-000000 00000000000000000000    000000501000000000020200625000000398760000000043701N1702202000000000000000000000000000000000000000000000000000000000000000010004321851483500000000000000000ALINE SANTANA DE TOLEDO0000000000000000000000000000000000000000Jardim Almanara0286314000000000S伋 PauloSP0000000ALINE SANTANA DE TOLEDOI06000125
10205567782000169043709196412013003430000000000000000000000000-182298-000000 00000000000000000000    000000501000000000020200725000000398760000000043701N1702202000000000000000000000000000000000000000000000000000000000000000010004321851483500000000000000000ALINE SANTANA DE TOLEDO0000000000000000000000000000000000000000Jardim Almanara0286314000000000S伋 PauloSP0000000ALINE SANTANA DE TOLEDOI06000126
10205567782000169043709196412013003430000000000000000000000000-182309-000000 00000000000000000000    000000501000000000020200825000000398760000000043701N1702202000000000000000000000000000000000000000000000000000000000000000010004321851483500000000000000000ALINE SANTANA DE TOLEDO0000000000000000000000000000000000000000Jardim Almanara0286314000000000S伋 PauloSP0000000ALINE SANTANA DE TOLEDOI06000127
10205567782000169043709196412013003430000000000000000000000000-1823110-000000 00000000000000000000    000000501000000000020200925000000398760000000043701N1702202000000000000000000000000000000000000000000000000000000000000000010004321851483500000000000000000ALINE SANTANA DE TOLEDO0000000000000000000000000000000000000000Jardim Almanara0286314000000000S伋 PauloSP0000000ALINE SANTANA DE TOLEDOI06000128
10205567782000169043709196412013003430000000000000000000000000-1823211-000000 00000000000000000000    000000501000000000020201025000000398760000000043701N1702202000000000000000000000000000000000000000000000000000000000000000010004321851483500000000000000000ALINE SANTANA DE TOLEDO0000000000000000000000000000000000000000Jardim Almanara0286314000000000S伋 PauloSP0000000ALINE SANTANA DE TOLEDOI06000129
10205567782000169043709196412013003430000000000000000000000000-1823312-000000 00000000000000000000    000000501000000000020201125000000398760000000043701N1702202000000000000000000000000000000000000000000000000000000000000000010004321851483500000000000000000ALINE SANTANA DE TOLEDO0000000000000000000000000000000000000000Jardim Almanara0286314000000000S伋 PauloSP0000000ALINE SANTANA DE TOLEDOI06000130
10205567782000169043709196412013003430000000000000000000000000-1823413-000000 00000000000000000000    000000501000000000020201225000000398760000000043701N1702202000000000000000000000000000000000000000000000000000000000000000010004321851483500000000000000000ALINE SANTANA DE TOLEDO0000000000000000000000000000000000000000Jardim Almanara0286314000000000S伋 PauloSP0000000ALINE SANTANA DE TOLEDOI06000131
10205567782000169043709196412013003430000000000000000000000000-212351-000000 00000000000000000000    000000501000000000000000000000000002500000000043701N1702202000000000000000000000000000000000000000000000000000000000000000010002958010589800000000000000000MARIA IVANILCE OLIVEIRA0000000000000000000000000000000000000000Vila Am涇ia (Zona Norte)0000261800000000S伋 PauloSP0000000MARIA IVANILCE OLIVEIRAI06000132
10205567782000169043709196412013003430000000000000000000000000-212362-000000 00000000000000000000    000000501000000000020200120000000348950000000043701N1702202000000000000000000000000000000000000000000000000000000000000000010002958010589800000000000000000MARIA IVANILCE OLIVEIRA0000000000000000000000000000000000000000Vila Am涇ia (Zona Norte)0000261800000000S伋 PauloSP0000000MARIA IVANILCE OLIVEIRAI06000133
10205567782000169043709196412013003430000000000000000000000000-212373-000000 00000000000000000000    000000501000000000020200220000000348950000000043701N1702202000000000000000000000000000000000000000000000000000000000000000010002958010589800000000000000000MARIA IVANILCE OLIVEIRA0000000000000000000000000000000000000000Vila Am涇ia (Zona Norte)0000261800000000S伋 PauloSP0000000MARIA IVANILCE OLIVEIRAI06000134
10205567782000169043709196412013003430000000000000000000000000-212384-000000 00000000000000000000    000000501000000000020200320000000348950000000043701N1702202000000000000000000000000000000000000000000000000000000000000000010002958010589800000000000000000MARIA IVANILCE OLIVEIRA0000000000000000000000000000000000000000Vila Am涇ia (Zona Norte)0000261800000000S伋 PauloSP0000000MARIA IVANILCE OLIVEIRAI06000135
10205567782000169043709196412013003430000000000000000000000000-212395-000000 00000000000000000000    000000501000000000020200420000000348950000000043701N1702202000000000000000000000000000000000000000000000000000000000000000010002958010589800000000000000000MARIA IVANILCE OLIVEIRA0000000000000000000000000000000000000000Vila Am涇ia (Zona Norte)0000261800000000S伋 PauloSP0000000MARIA IVANILCE OLIVEIRAI06000136
10205567782000169043709196412013003430000000000000000000000000-212406-000000 00000000000000000000    000000501000000000020200520000000348950000000043701N1702202000000000000000000000000000000000000000000000000000000000000000010002958010589800000000000000000MARIA IVANILCE OLIVEIRA0000000000000000000000000000000000000000Vila Am涇ia (Zona Norte)0000261800000000S伋 PauloSP0000000MARIA IVANILCE OLIVEIRAI06000137
10205567782000169043709196412013003430000000000000000000000000-212417-000000 00000000000000000000    000000501000000000020200620000000348950000000043701N1702202000000000000000000000000000000000000000000000000000000000000000010002958010589800000000000000000MARIA IVANILCE OLIVEIRA0000000000000000000000000000000000000000Vila Am涇ia (Zona Norte)0000261800000000S伋 PauloSP0000000MARIA IVANILCE OLIVEIRAI06000138
10205567782000169043709196412013003430000000000000000000000000-212428-000000 00000000000000000000    000000501000000000020200720000000348950000000043701N1702202000000000000000000000000000000000000000000000000000000000000000010002958010589800000000000000000MARIA IVANILCE OLIVEIRA0000000000000000000000000000000000000000Vila Am涇ia (Zona Norte)0000261800000000S伋 PauloSP0000000MARIA IVANILCE OLIVEIRAI06000139
10205567782000169043709196412013003430000000000000000000000000-212439-000000 00000000000000000000    000000501000000000020200820000000348950000000043701N1702202000000000000000000000000000000000000000000000000000000000000000010002958010589800000000000000000MARIA IVANILCE OLIVEIRA0000000000000000000000000000000000000000Vila Am涇ia (Zona Norte)0000261800000000S伋 PauloSP0000000MARIA IVANILCE OLIVEIRAI06000140
10205567782000169043709196412013003430000000000000000000000000-2124410-000000 00000000000000000000    000000501000000000020200920000000348950000000043701N1702202000000000000000000000000000000000000000000000000000000000000000010002958010589800000000000000000MARIA IVANILCE OLIVEIRA0000000000000000000000000000000000000000Vila Am涇ia (Zona Norte)0000261800000000S伋 PauloSP0000000MARIA IVANILCE OLIVEIRAI06000141
10205567782000169043709196412013003430000000000000000000000000-2124511-000000 00000000000000000000    000000501000000000020201020000000348950000000043701N1702202000000000000000000000000000000000000000000000000000000000000000010002958010589800000000000000000MARIA IVANILCE OLIVEIRA0000000000000000000000000000000000000000Vila Am涇ia (Zona Norte)0000261800000000S伋 PauloSP0000000MARIA IVANILCE OLIVEIRAI06000142
10205567782000169043709196412013003430000000000000000000000000-2124612-000000 00000000000000000000    000000501000000000020201120000000348950000000043701N1702202000000000000000000000000000000000000000000000000000000000000000010002958010589800000000000000000MARIA IVANILCE OLIVEIRA0000000000000000000000000000000000000000Vila Am涇ia (Zona Norte)0000261800000000S伋 PauloSP0000000MARIA IVANILCE OLIVEIRAI06000143
10205567782000169043709196412013003430000000000000000000000000-2124713-000000 00000000000000000000    000000501000000000020201220000000348950000000043701N1702202000000000000000000000000000000000000000000000000000000000000000010002958010589800000000000000000MARIA IVANILCE OLIVEIRA0000000000000000000000000000000000000000Vila Am涇ia (Zona Norte)0000261800000000S伋 PauloSP0000000MARIA IVANILCE OLIVEIRAI06000144
10205567782000169043709196412013003430000000000000000000000000-502481-000000 00000000000000000000    000000501000000000000000000000000002500000000043701N1702202000000000000000000000000000000000000000000000000000000000000000010004496000580700000000000000000000Karina da Cunha Sena0000000000000000000000000000000000000000Jardim Vista Alegre0287815000000000S伋 PauloSP0000000000Karina da Cunha SenaI06000145
10205567782000169043709196412013003430000000000000000000000000-502492-000000 00000000000000000000    000000501000000000020200110000000007200000000043701N1702202000000000000000000000000000000000000000000000000000000000000000010004496000580700000000000000000000Karina da Cunha Sena0000000000000000000000000000000000000000Jardim Vista Alegre0287815000000000S伋 PauloSP0000000000Karina da Cunha SenaI06000146
10205567782000169043709196412013003430000000000000000000000000-502503-000000 00000000000000000000    000000501000000000020200210000000007200000000043701N1702202000000000000000000000000000000000000000000000000000000000000000010004496000580700000000000000000000Karina da Cunha Sena0000000000000000000000000000000000000000Jardim Vista Alegre0287815000000000S伋 PauloSP0000000000Karina da Cunha SenaI06000147
10205567782000169043709196412013003430000000000000000000000000-502514-000000 00000000000000000000    000000501000000000020200310000000007200000000043701N1702202000000000000000000000000000000000000000000000000000000000000000010004496000580700000000000000000000Karina da Cunha Sena0000000000000000000000000000000000000000Jardim Vista Alegre0287815000000000S伋 PauloSP0000000000Karina da Cunha SenaI06000148
10205567782000169043709196412013003430000000000000000000000000-502525-000000 00000000000000000000    000000501000000000020200410000000007200000000043701N1702202000000000000000000000000000000000000000000000000000000000000000010004496000580700000000000000000000Karina da Cunha Sena0000000000000000000000000000000000000000Jardim Vista Alegre0287815000000000S伋 PauloSP0000000000Karina da Cunha SenaI06000149
10205567782000169043709196412013003430000000000000000000000000-502536-000000 00000000000000000000    000000501000000000020200510000000007200000000043701N1702202000000000000000000000000000000000000000000000000000000000000000010004496000580700000000000000000000Karina da Cunha Sena0000000000000000000000000000000000000000Jardim Vista Alegre0287815000000000S伋 PauloSP0000000000Karina da Cunha SenaI06000150
10205567782000169043709196412013003430000000000000000000000000-502547-000000 00000000000000000000    000000501000000000020200610000000007200000000043701N1702202000000000000000000000000000000000000000000000000000000000000000010004496000580700000000000000000000Karina da Cunha Sena0000000000000000000000000000000000000000Jardim Vista Alegre0287815000000000S伋 PauloSP0000000000Karina da Cunha SenaI06000151
10205567782000169043709196412013003430000000000000000000000000-502558-000000 00000000000000000000    000000501000000000020200710000000007200000000043701N1702202000000000000000000000000000000000000000000000000000000000000000010004496000580700000000000000000000Karina da Cunha Sena0000000000000000000000000000000000000000Jardim Vista Alegre0287815000000000S伋 PauloSP0000000000Karina da Cunha SenaI06000152
10205567782000169043709196412013003430000000000000000000000000-502569-000000 00000000000000000000    000000501000000000020200810000000007200000000043701N1702202000000000000000000000000000000000000000000000000000000000000000010004496000580700000000000000000000Karina da Cunha Sena0000000000000000000000000000000000000000Jardim Vista Alegre0287815000000000S伋 PauloSP0000000000Karina da Cunha SenaI06000153
10205567782000169043709196412013003430000000000000000000000000-5025710-000000 00000000000000000000    000000501000000000020200910000000007200000000043701N1702202000000000000000000000000000000000000000000000000000000000000000010004496000580700000000000000000000Karina da Cunha Sena0000000000000000000000000000000000000000Jardim Vista Alegre0287815000000000S伋 PauloSP0000000000Karina da Cunha SenaI06000154
10205567782000169043709196412013003430000000000000000000000000-5025811-000000 00000000000000000000    000000501000000000020201010000000007200000000043701N1702202000000000000000000000000000000000000000000000000000000000000000010004496000580700000000000000000000Karina da Cunha Sena0000000000000000000000000000000000000000Jardim Vista Alegre0287815000000000S伋 PauloSP0000000000Karina da Cunha SenaI06000155
10205567782000169043709196412013003430000000000000000000000000-5025912-000000 00000000000000000000    000000501000000000020201110000000007200000000043701N1702202000000000000000000000000000000000000000000000000000000000000000010004496000580700000000000000000000Karina da Cunha Sena0000000000000000000000000000000000000000Jardim Vista Alegre0287815000000000S伋 PauloSP0000000000Karina da Cunha SenaI06000156
10205567782000169043709196412013003430000000000000000000000000-5026013-000000 00000000000000000000    000000501000000000020201210000000007200000000043701N1702202000000000000000000000000000000000000000000000000000000000000000010004496000580700000000000000000000Karina da Cunha Sena0000000000000000000000000000000000000000Jardim Vista Alegre0287815000000000S伋 PauloSP0000000000Karina da Cunha SenaI06000157
10205567782000169043709196412013003430000000000000000000000000-522611-000000 00000000000000000000    000000501000000000000000000000000002500000000043701N17022020000000000000000000000000000000000000000000000000000000000000000100038118391876000000000MICHELE CRISTINA ALVES DA SILVA0000000000000000000000000000000000000000Vila dos Andrades0261001000000000S伋 PauloSPMICHELE CRISTINA ALVES DA SILVAI06000158
10205567782000169043709196412013003430000000000000000000000000-522622-000000 00000000000000000000    000000501000000000020200115000000006300000000043701N17022020000000000000000000000000000000000000000000000000000000000000000100038118391876000000000MICHELE CRISTINA ALVES DA SILVA0000000000000000000000000000000000000000Vila dos Andrades0261001000000000S伋 PauloSPMICHELE CRISTINA ALVES DA SILVAI06000159
10205567782000169043709196412013003430000000000000000000000000-522633-000000 00000000000000000000    000000501000000000020200215000000006300000000043701N17022020000000000000000000000000000000000000000000000000000000000000000100038118391876000000000MICHELE CRISTINA ALVES DA SILVA0000000000000000000000000000000000000000Vila dos Andrades0261001000000000S伋 PauloSPMICHELE CRISTINA ALVES DA SILVAI06000160
10205567782000169043709196412013003430000000000000000000000000-522644-000000 00000000000000000000    000000501000000000020200315000000006300000000043701N17022020000000000000000000000000000000000000000000000000000000000000000100038118391876000000000MICHELE CRISTINA ALVES DA SILVA0000000000000000000000000000000000000000Vila dos Andrades0261001000000000S伋 PauloSPMICHELE CRISTINA ALVES DA SILVAI06000161
10205567782000169043709196412013003430000000000000000000000000-522655-000000 00000000000000000000    000000501000000000000000000000000006300000000043701N17022020000000000000000000000000000000000000000000000000000000000000000100038118391876000000000MICHELE CRISTINA ALVES DA SILVA0000000000000000000000000000000000000000Vila dos Andrades0261001000000000S伋 PauloSPMICHELE CRISTINA ALVES DA SILVAI06000162
10205567782000169043709196412013003430000000000000000000000000-522666-000000 00000000000000000000    000000501000000000020200515000000006300000000043701N17022020000000000000000000000000000000000000000000000000000000000000000100038118391876000000000MICHELE CRISTINA ALVES DA SILVA0000000000000000000000000000000000000000Vila dos Andrades0261001000000000S伋 PauloSPMICHELE CRISTINA ALVES DA SILVAI06000163
10205567782000169043709196412013003430000000000000000000000000-522677-000000 00000000000000000000    000000501000000000020200615000000006300000000043701N17022020000000000000000000000000000000000000000000000000000000000000000100038118391876000000000MICHELE CRISTINA ALVES DA SILVA0000000000000000000000000000000000000000Vila dos Andrades0261001000000000S伋 PauloSPMICHELE CRISTINA ALVES DA SILVAI06000164
10205567782000169043709196412013003430000000000000000000000000-522688-000000 00000000000000000000    000000501000000000020200715000000006300000000043701N17022020000000000000000000000000000000000000000000000000000000000000000100038118391876000000000MICHELE CRISTINA ALVES DA SILVA0000000000000000000000000000000000000000Vila dos Andrades0261001000000000S伋 PauloSPMICHELE CRISTINA ALVES DA SILVAI06000165
10205567782000169043709196412013003430000000000000000000000000-522699-000000 00000000000000000000    000000501000000000020200815000000006300000000043701N17022020000000000000000000000000000000000000000000000000000000000000000100038118391876000000000MICHELE CRISTINA ALVES DA SILVA0000000000000000000000000000000000000000Vila dos Andrades0261001000000000S伋 PauloSPMICHELE CRISTINA ALVES DA SILVAI06000166
10205567782000169043709196412013003430000000000000000000000000-5227010-000000 00000000000000000000    000000501000000000020200915000000006300000000043701N17022020000000000000000000000000000000000000000000000000000000000000000100038118391876000000000MICHELE CRISTINA ALVES DA SILVA0000000000000000000000000000000000000000Vila dos Andrades0261001000000000S伋 PauloSPMICHELE CRISTINA ALVES DA SILVAI06000167
10205567782000169043709196412013003430000000000000000000000000-5227111-000000 00000000000000000000    000000501000000000020201015000000006300000000043701N17022020000000000000000000000000000000000000000000000000000000000000000100038118391876000000000MICHELE CRISTINA ALVES DA SILVA0000000000000000000000000000000000000000Vila dos Andrades0261001000000000S伋 PauloSPMICHELE CRISTINA ALVES DA SILVAI06000168
10205567782000169043709196412013003430000000000000000000000000-5227212-000000 00000000000000000000    000000501000000000020201115000000006300000000043701N17022020000000000000000000000000000000000000000000000000000000000000000100038118391876000000000MICHELE CRISTINA ALVES DA SILVA0000000000000000000000000000000000000000Vila dos Andrades0261001000000000S伋 PauloSPMICHELE CRISTINA ALVES DA SILVAI06000169
10205567782000169043709196412013003430000000000000000000000000-5227313-000000 00000000000000000000    000000501000000000020201215000000006300000000043701N17022020000000000000000000000000000000000000000000000000000000000000000100038118391876000000000MICHELE CRISTINA ALVES DA SILVA0000000000000000000000000000000000000000Vila dos Andrades0261001000000000S伋 PauloSPMICHELE CRISTINA ALVES DA SILVAI06000170
10205567782000169043709196412013003430000000000000000000000000-262741-000000 00000000000000000000    000000501000000000000000000000000002500000000043701N170220200000000000000000000000000000000000000000000000000000000000000001000388231378100000000000000000000ANA CLAUDIA DO AMARAL0000000000000000000000000000000000000000000Vila Rica0286109000000000S伋 PauloSP000000000ANA CLAUDIA DO AMARALI06000171
10205567782000169043709196412013003430000000000000000000000000-262752-000000 00000000000000000000    000000501000000000020200110000000026420000000043701N170220200000000000000000000000000000000000000000000000000000000000000001000388231378100000000000000000000ANA CLAUDIA DO AMARAL0000000000000000000000000000000000000000000Vila Rica0286109000000000S伋 PauloSP000000000ANA CLAUDIA DO AMARALI06000172
10205567782000169043709196412013003430000000000000000000000000-262763-000000 00000000000000000000    000000501000000000020200210000000026420000000043701N170220200000000000000000000000000000000000000000000000000000000000000001000388231378100000000000000000000ANA CLAUDIA DO AMARAL0000000000000000000000000000000000000000000Vila Rica0286109000000000S伋 PauloSP000000000ANA CLAUDIA DO AMARALI06000173
10205567782000169043709196412013003430000000000000000000000000-262774-000000 00000000000000000000    000000501000000000020200310000000026420000000043701N170220200000000000000000000000000000000000000000000000000000000000000001000388231378100000000000000000000ANA CLAUDIA DO AMARAL0000000000000000000000000000000000000000000Vila Rica0286109000000000S伋 PauloSP000000000ANA CLAUDIA DO AMARALI06000174
10205567782000169043709196412013003430000000000000000000000000-262785-000000 00000000000000000000    000000501000000000020200410000000026420000000043701N170220200000000000000000000000000000000000000000000000000000000000000001000388231378100000000000000000000ANA CLAUDIA DO AMARAL0000000000000000000000000000000000000000000Vila Rica0286109000000000S伋 PauloSP000000000ANA CLAUDIA DO AMARALI06000175
10205567782000169043709196412013003430000000000000000000000000-262796-000000 00000000000000000000    000000501000000000020200510000000026420000000043701N170220200000000000000000000000000000000000000000000000000000000000000001000388231378100000000000000000000ANA CLAUDIA DO AMARAL0000000000000000000000000000000000000000000Vila Rica0286109000000000S伋 PauloSP000000000ANA CLAUDIA DO AMARALI06000176
10205567782000169043709196412013003430000000000000000000000000-262807-000000 00000000000000000000    000000501000000000020200610000000026420000000043701N170220200000000000000000000000000000000000000000000000000000000000000001000388231378100000000000000000000ANA CLAUDIA DO AMARAL0000000000000000000000000000000000000000000Vila Rica0286109000000000S伋 PauloSP000000000ANA CLAUDIA DO AMARALI06000177
10205567782000169043709196412013003430000000000000000000000000-262818-000000 00000000000000000000    000000501000000000020200710000000026420000000043701N170220200000000000000000000000000000000000000000000000000000000000000001000388231378100000000000000000000ANA CLAUDIA DO AMARAL0000000000000000000000000000000000000000000Vila Rica0286109000000000S伋 PauloSP000000000ANA CLAUDIA DO AMARALI06000178
10205567782000169043709196412013003430000000000000000000000000-262829-000000 00000000000000000000    000000501000000000020200810000000026420000000043701N170220200000000000000000000000000000000000000000000000000000000000000001000388231378100000000000000000000ANA CLAUDIA DO AMARAL0000000000000000000000000000000000000000000Vila Rica0286109000000000S伋 PauloSP000000000ANA CLAUDIA DO AMARALI06000179
10205567782000169043709196412013003430000000000000000000000000-2628310-000000 00000000000000000000    000000501000000000020200910000000026420000000043701N170220200000000000000000000000000000000000000000000000000000000000000001000388231378100000000000000000000ANA CLAUDIA DO AMARAL0000000000000000000000000000000000000000000Vila Rica0286109000000000S伋 PauloSP000000000ANA CLAUDIA DO AMARALI06000180
10205567782000169043709196412013003430000000000000000000000000-2628411-000000 00000000000000000000    000000501000000000020201010000000026420000000043701N170220200000000000000000000000000000000000000000000000000000000000000001000388231378100000000000000000000ANA CLAUDIA DO AMARAL0000000000000000000000000000000000000000000Vila Rica0286109000000000S伋 PauloSP000000000ANA CLAUDIA DO AMARALI06000181
10205567782000169043709196412013003430000000000000000000000000-2628512-000000 00000000000000000000    000000501000000000020201110000000026420000000043701N170220200000000000000000000000000000000000000000000000000000000000000001000388231378100000000000000000000ANA CLAUDIA DO AMARAL0000000000000000000000000000000000000000000Vila Rica0286109000000000S伋 PauloSP000000000ANA CLAUDIA DO AMARALI06000182
10205567782000169043709196412013003430000000000000000000000000-2628613-000000 00000000000000000000    000000501000000000020201210000000026420000000043701N170220200000000000000000000000000000000000000000000000000000000000000001000388231378100000000000000000000ANA CLAUDIA DO AMARAL0000000000000000000000000000000000000000000Vila Rica0286109000000000S伋 PauloSP000000000ANA CLAUDIA DO AMARALI06000183
10205567782000169043709196412013003430000000000000000000000000-112871-000000 00000000000000000000    000000501000000000000000000000000002500000000043701N170220200000000000000000000000000000000000000000000000000000000000000001000460366718300000000000000KAMILA PATR펚IA SILVA BERING000000000000000000000000000000000000000000Vila Souza0286005000000000S伋 PauloSP000KAMILA PATR펚IA SILVA BERINGI06000184
10205567782000169043709196412013003430000000000000000000000000-112882-000000 00000000000000000000    000000501000000000020200110000000498460000000043701N170220200000000000000000000000000000000000000000000000000000000000000001000460366718300000000000000KAMILA PATR펚IA SILVA BERING000000000000000000000000000000000000000000Vila Souza0286005000000000S伋 PauloSP000KAMILA PATR펚IA SILVA BERINGI06000185
10205567782000169043709196412013003430000000000000000000000000-112893-000000 00000000000000000000    000000501000000000020200210000000498460000000043701N170220200000000000000000000000000000000000000000000000000000000000000001000460366718300000000000000KAMILA PATR펚IA SILVA BERING000000000000000000000000000000000000000000Vila Souza0286005000000000S伋 PauloSP000KAMILA PATR펚IA SILVA BERINGI06000186
10205567782000169043709196412013003430000000000000000000000000-112904-000000 00000000000000000000    000000501000000000020200310000000498460000000043701N170220200000000000000000000000000000000000000000000000000000000000000001000460366718300000000000000KAMILA PATR펚IA SILVA BERING000000000000000000000000000000000000000000Vila Souza0286005000000000S伋 PauloSP000KAMILA PATR펚IA SILVA BERINGI06000187
10205567782000169043709196412013003430000000000000000000000000-112915-000000 00000000000000000000    000000501000000000020200410000000498460000000043701N170220200000000000000000000000000000000000000000000000000000000000000001000460366718300000000000000KAMILA PATR펚IA SILVA BERING000000000000000000000000000000000000000000Vila Souza0286005000000000S伋 PauloSP000KAMILA PATR펚IA SILVA BERINGI06000188
10205567782000169043709196412013003430000000000000000000000000-112926-000000 00000000000000000000    000000501000000000020200510000000498460000000043701N170220200000000000000000000000000000000000000000000000000000000000000001000460366718300000000000000KAMILA PATR펚IA SILVA BERING000000000000000000000000000000000000000000Vila Souza0286005000000000S伋 PauloSP000KAMILA PATR펚IA SILVA BERINGI06000189
10205567782000169043709196412013003430000000000000000000000000-112937-000000 00000000000000000000    000000501000000000020200610000000498460000000043701N170220200000000000000000000000000000000000000000000000000000000000000001000460366718300000000000000KAMILA PATR펚IA SILVA BERING000000000000000000000000000000000000000000Vila Souza0286005000000000S伋 PauloSP000KAMILA PATR펚IA SILVA BERINGI06000190
10205567782000169043709196412013003430000000000000000000000000-112948-000000 00000000000000000000    000000501000000000020200710000000498460000000043701N170220200000000000000000000000000000000000000000000000000000000000000001000460366718300000000000000KAMILA PATR펚IA SILVA BERING000000000000000000000000000000000000000000Vila Souza0286005000000000S伋 PauloSP000KAMILA PATR펚IA SILVA BERINGI06000191
10205567782000169043709196412013003430000000000000000000000000-112959-000000 00000000000000000000    000000501000000000020200810000000498460000000043701N170220200000000000000000000000000000000000000000000000000000000000000001000460366718300000000000000KAMILA PATR펚IA SILVA BERING000000000000000000000000000000000000000000Vila Souza0286005000000000S伋 PauloSP000KAMILA PATR펚IA SILVA BERINGI06000192
10205567782000169043709196412013003430000000000000000000000000-1129610-000000 00000000000000000000    000000501000000000020200910000000498460000000043701N170220200000000000000000000000000000000000000000000000000000000000000001000460366718300000000000000KAMILA PATR펚IA SILVA BERING000000000000000000000000000000000000000000Vila Souza0286005000000000S伋 PauloSP000KAMILA PATR펚IA SILVA BERINGI06000193
10205567782000169043709196412013003430000000000000000000000000-1129711-000000 00000000000000000000    000000501000000000020201010000000498460000000043701N170220200000000000000000000000000000000000000000000000000000000000000001000460366718300000000000000KAMILA PATR펚IA SILVA BERING000000000000000000000000000000000000000000Vila Souza0286005000000000S伋 PauloSP000KAMILA PATR펚IA SILVA BERINGI06000194
10205567782000169043709196412013003430000000000000000000000000-1129812-000000 00000000000000000000    000000501000000000020201110000000498460000000043701N170220200000000000000000000000000000000000000000000000000000000000000001000460366718300000000000000KAMILA PATR펚IA SILVA BERING000000000000000000000000000000000000000000Vila Souza0286005000000000S伋 PauloSP000KAMILA PATR펚IA SILVA BERINGI06000195
10205567782000169043709196412013003430000000000000000000000000-1129913-000000 00000000000000000000    000000501000000000020201210000000498460000000043701N170220200000000000000000000000000000000000000000000000000000000000000001000460366718300000000000000KAMILA PATR펚IA SILVA BERING000000000000000000000000000000000000000000Vila Souza0286005000000000S伋 PauloSP000KAMILA PATR펚IA SILVA BERINGI06000196
10205567782000169043709196412013003430000000000000000000000000-473001-000000 00000000000000000000    000000501000000000000000000000000002500000000043701N17022020000000000000000000000000000000000000000000000000000000000000000100089896670544000IACIANA PEREIRA DO NASCIMENTO BEZERRA0000000000000000000000000000000000000000Jardim Alvina0299128000000000S伋 PauloSPIACIANA PEREIRA DO NASCIMENTO BEZERRAI06000197
10205567782000169043709196412013003430000000000000000000000000-473012-000000 00000000000000000000    000000501000000000020200115000000006300000000043701N17022020000000000000000000000000000000000000000000000000000000000000000100089896670544000IACIANA PEREIRA DO NASCIMENTO BEZERRA0000000000000000000000000000000000000000Jardim Alvina0299128000000000S伋 PauloSPIACIANA PEREIRA DO NASCIMENTO BEZERRAI06000198
10205567782000169043709196412013003430000000000000000000000000-473023-000000 00000000000000000000    000000501000000000020200215000000006300000000043701N17022020000000000000000000000000000000000000000000000000000000000000000100089896670544000IACIANA PEREIRA DO NASCIMENTO BEZERRA0000000000000000000000000000000000000000Jardim Alvina0299128000000000S伋 PauloSPIACIANA PEREIRA DO NASCIMENTO BEZERRAI06000199
10205567782000169043709196412013003430000000000000000000000000-473034-000000 00000000000000000000    000000501000000000020200315000000006300000000043701N17022020000000000000000000000000000000000000000000000000000000000000000100089896670544000IACIANA PEREIRA DO NASCIMENTO BEZERRA0000000000000000000000000000000000000000Jardim Alvina0299128000000000S伋 PauloSPIACIANA PEREIRA DO NASCIMENTO BEZERRAI06000200
10205567782000169043709196412013003430000000000000000000000000-473045-000000 00000000000000000000    000000501000000000020200415000000006300000000043701N17022020000000000000000000000000000000000000000000000000000000000000000100089896670544000IACIANA PEREIRA DO NASCIMENTO BEZERRA0000000000000000000000000000000000000000Jardim Alvina0299128000000000S伋 PauloSPIACIANA PEREIRA DO NASCIMENTO BEZERRAI06000201
10205567782000169043709196412013003430000000000000000000000000-473056-000000 00000000000000000000    000000501000000000020200515000000006300000000043701N17022020000000000000000000000000000000000000000000000000000000000000000100089896670544000IACIANA PEREIRA DO NASCIMENTO BEZERRA0000000000000000000000000000000000000000Jardim Alvina0299128000000000S伋 PauloSPIACIANA PEREIRA DO NASCIMENTO BEZERRAI06000202
10205567782000169043709196412013003430000000000000000000000000-473067-000000 00000000000000000000    000000501000000000020200615000000006300000000043701N17022020000000000000000000000000000000000000000000000000000000000000000100089896670544000IACIANA PEREIRA DO NASCIMENTO BEZERRA0000000000000000000000000000000000000000Jardim Alvina0299128000000000S伋 PauloSPIACIANA PEREIRA DO NASCIMENTO BEZERRAI06000203
10205567782000169043709196412013003430000000000000000000000000-473078-000000 00000000000000000000    000000501000000000020200715000000006300000000043701N17022020000000000000000000000000000000000000000000000000000000000000000100089896670544000IACIANA PEREIRA DO NASCIMENTO BEZERRA0000000000000000000000000000000000000000Jardim Alvina0299128000000000S伋 PauloSPIACIANA PEREIRA DO NASCIMENTO BEZERRAI06000204
10205567782000169043709196412013003430000000000000000000000000-473089-000000 00000000000000000000    000000501000000000020200815000000006300000000043701N17022020000000000000000000000000000000000000000000000000000000000000000100089896670544000IACIANA PEREIRA DO NASCIMENTO BEZERRA0000000000000000000000000000000000000000Jardim Alvina0299128000000000S伋 PauloSPIACIANA PEREIRA DO NASCIMENTO BEZERRAI06000205
10205567782000169043709196412013003430000000000000000000000000-4730910-000000 00000000000000000000    000000501000000000020200915000000006300000000043701N17022020000000000000000000000000000000000000000000000000000000000000000100089896670544000IACIANA PEREIRA DO NASCIMENTO BEZERRA0000000000000000000000000000000000000000Jardim Alvina0299128000000000S伋 PauloSPIACIANA PEREIRA DO NASCIMENTO BEZERRAI06000206
10205567782000169043709196412013003430000000000000000000000000-4731011-000000 00000000000000000000    000000501000000000020201015000000006300000000043701N17022020000000000000000000000000000000000000000000000000000000000000000100089896670544000IACIANA PEREIRA DO NASCIMENTO BEZERRA0000000000000000000000000000000000000000Jardim Alvina0299128000000000S伋 PauloSPIACIANA PEREIRA DO NASCIMENTO BEZERRAI06000207
10205567782000169043709196412013003430000000000000000000000000-4731112-000000 00000000000000000000    000000501000000000020201115000000006300000000043701N17022020000000000000000000000000000000000000000000000000000000000000000100089896670544000IACIANA PEREIRA DO NASCIMENTO BEZERRA0000000000000000000000000000000000000000Jardim Alvina0299128000000000S伋 PauloSPIACIANA PEREIRA DO NASCIMENTO BEZERRAI06000208
10205567782000169043709196412013003430000000000000000000000000-4731213-000000 00000000000000000000    000000501000000000020201215000000006300000000043701N17022020000000000000000000000000000000000000000000000000000000000000000100089896670544000IACIANA PEREIRA DO NASCIMENTO BEZERRA0000000000000000000000000000000000000000Jardim Alvina0299128000000000S伋 PauloSPIACIANA PEREIRA DO NASCIMENTO BEZERRAI06000209
10205567782000169043709196412013003430000000000000000000000000-353131-000000 00000000000000000000    000000501000000000000000000000000002500000000043701N170220200000000000000000000000000000000000000000000000000000000000000001000379945678350000000000000000000BRUNO EDDINE DA SILVA0000000000000000000000000000000000000000Vila Penteado0286610000000000S伋 PauloSP000000000BRUNO EDDINE DA SILVAI06000210
10205567782000169043709196412013003430000000000000000000000000-353142-000000 00000000000000000000    000000501000000000020200110000000687880000000043701N170220200000000000000000000000000000000000000000000000000000000000000001000379945678350000000000000000000BRUNO EDDINE DA SILVA0000000000000000000000000000000000000000Vila Penteado0286610000000000S伋 PauloSP000000000BRUNO EDDINE DA SILVAI06000211
10205567782000169043709196412013003430000000000000000000000000-353153-000000 00000000000000000000    000000501000000000020200210000000687880000000043701N170220200000000000000000000000000000000000000000000000000000000000000001000379945678350000000000000000000BRUNO EDDINE DA SILVA0000000000000000000000000000000000000000Vila Penteado0286610000000000S伋 PauloSP000000000BRUNO EDDINE DA SILVAI06000212
10205567782000169043709196412013003430000000000000000000000000-353164-000000 00000000000000000000    000000501000000000020200310000000687880000000043701N170220200000000000000000000000000000000000000000000000000000000000000001000379945678350000000000000000000BRUNO EDDINE DA SILVA0000000000000000000000000000000000000000Vila Penteado0286610000000000S伋 PauloSP000000000BRUNO EDDINE DA SILVAI06000213
10205567782000169043709196412013003430000000000000000000000000-353175-000000 00000000000000000000    000000501000000000020200410000000687880000000043701N170220200000000000000000000000000000000000000000000000000000000000000001000379945678350000000000000000000BRUNO EDDINE DA SILVA0000000000000000000000000000000000000000Vila Penteado0286610000000000S伋 PauloSP000000000BRUNO EDDINE DA SILVAI06000214
10205567782000169043709196412013003430000000000000000000000000-353186-000000 00000000000000000000    000000501000000000020200510000000687880000000043701N170220200000000000000000000000000000000000000000000000000000000000000001000379945678350000000000000000000BRUNO EDDINE DA SILVA0000000000000000000000000000000000000000Vila Penteado0286610000000000S伋 PauloSP000000000BRUNO EDDINE DA SILVAI06000215
10205567782000169043709196412013003430000000000000000000000000-353197-000000 00000000000000000000    000000501000000000020200610000000687880000000043701N170220200000000000000000000000000000000000000000000000000000000000000001000379945678350000000000000000000BRUNO EDDINE DA SILVA0000000000000000000000000000000000000000Vila Penteado0286610000000000S伋 PauloSP000000000BRUNO EDDINE DA SILVAI06000216
10205567782000169043709196412013003430000000000000000000000000-353208-000000 00000000000000000000    000000501000000000020200710000000687880000000043701N170220200000000000000000000000000000000000000000000000000000000000000001000379945678350000000000000000000BRUNO EDDINE DA SILVA0000000000000000000000000000000000000000Vila Penteado0286610000000000S伋 PauloSP000000000BRUNO EDDINE DA SILVAI06000217
10205567782000169043709196412013003430000000000000000000000000-353219-000000 00000000000000000000    000000501000000000020200810000000687880000000043701N170220200000000000000000000000000000000000000000000000000000000000000001000379945678350000000000000000000BRUNO EDDINE DA SILVA0000000000000000000000000000000000000000Vila Penteado0286610000000000S伋 PauloSP000000000BRUNO EDDINE DA SILVAI06000218
10205567782000169043709196412013003430000000000000000000000000-3532210-000000 00000000000000000000    000000501000000000020200910000000687880000000043701N170220200000000000000000000000000000000000000000000000000000000000000001000379945678350000000000000000000BRUNO EDDINE DA SILVA0000000000000000000000000000000000000000Vila Penteado0286610000000000S伋 PauloSP000000000BRUNO EDDINE DA SILVAI06000219
10205567782000169043709196412013003430000000000000000000000000-3532311-000000 00000000000000000000    000000501000000000000000000000000687880000000043701N170220200000000000000000000000000000000000000000000000000000000000000001000379945678350000000000000000000BRUNO EDDINE DA SILVA0000000000000000000000000000000000000000Vila Penteado0286610000000000S伋 PauloSP000000000BRUNO EDDINE DA SILVAI06000220
10205567782000169043709196412013003430000000000000000000000000-3532412-000000 00000000000000000000    000000501000000000020201110000000687880000000043701N170220200000000000000000000000000000000000000000000000000000000000000001000379945678350000000000000000000BRUNO EDDINE DA SILVA0000000000000000000000000000000000000000Vila Penteado0286610000000000S伋 PauloSP000000000BRUNO EDDINE DA SILVAI06000221
10205567782000169043709196412013003430000000000000000000000000-3532513-000000 00000000000000000000    000000501000000000020201210000000687880000000043701N170220200000000000000000000000000000000000000000000000000000000000000001000379945678350000000000000000000BRUNO EDDINE DA SILVA0000000000000000000000000000000000000000Vila Penteado0286610000000000S伋 PauloSP000000000BRUNO EDDINE DA SILVAI06000222
10205567782000169043709196412013003430000000000000000000000000-253261-000000 00000000000000000000    000000501000000000000000000000000002500000000043701N17022020000000000000000000000000000000000000000000000000000000000000000100036649004804000000000000000000MURILO BASTOS DE SOUZA0000000000000000000000000000000000000000000Vila Rica0286102000000000S伋 PauloSP00000000MURILO BASTOS DE SOUZAI06000223
10205567782000169043709196412013003430000000000000000000000000-253272-000000 00000000000000000000    000000501000000000020200110000000763650000000043701N17022020000000000000000000000000000000000000000000000000000000000000000100036649004804000000000000000000MURILO BASTOS DE SOUZA0000000000000000000000000000000000000000000Vila Rica0286102000000000S伋 PauloSP00000000MURILO BASTOS DE SOUZAI06000224
10205567782000169043709196412013003430000000000000000000000000-253283-000000 00000000000000000000    000000501000000000020200210000000763650000000043701N17022020000000000000000000000000000000000000000000000000000000000000000100036649004804000000000000000000MURILO BASTOS DE SOUZA0000000000000000000000000000000000000000000Vila Rica0286102000000000S伋 PauloSP00000000MURILO BASTOS DE SOUZAI06000225
10205567782000169043709196412013003430000000000000000000000000-253294-000000 00000000000000000000    000000501000000000020200310000000763650000000043701N17022020000000000000000000000000000000000000000000000000000000000000000100036649004804000000000000000000MURILO BASTOS DE SOUZA0000000000000000000000000000000000000000000Vila Rica0286102000000000S伋 PauloSP00000000MURILO BASTOS DE SOUZAI06000226
10205567782000169043709196412013003430000000000000000000000000-253305-000000 00000000000000000000    000000501000000000020200410000000763650000000043701N17022020000000000000000000000000000000000000000000000000000000000000000100036649004804000000000000000000MURILO BASTOS DE SOUZA0000000000000000000000000000000000000000000Vila Rica0286102000000000S伋 PauloSP00000000MURILO BASTOS DE SOUZAI06000227
10205567782000169043709196412013003430000000000000000000000000-253316-000000 00000000000000000000    000000501000000000020200510000000763650000000043701N17022020000000000000000000000000000000000000000000000000000000000000000100036649004804000000000000000000MURILO BASTOS DE SOUZA0000000000000000000000000000000000000000000Vila Rica0286102000000000S伋 PauloSP00000000MURILO BASTOS DE SOUZAI06000228
10205567782000169043709196412013003430000000000000000000000000-253327-000000 00000000000000000000    000000501000000000020200610000000763650000000043701N17022020000000000000000000000000000000000000000000000000000000000000000100036649004804000000000000000000MURILO BASTOS DE SOUZA0000000000000000000000000000000000000000000Vila Rica0286102000000000S伋 PauloSP00000000MURILO BASTOS DE SOUZAI06000229
10205567782000169043709196412013003430000000000000000000000000-253338-000000 00000000000000000000    000000501000000000020200710000000763650000000043701N17022020000000000000000000000000000000000000000000000000000000000000000100036649004804000000000000000000MURILO BASTOS DE SOUZA0000000000000000000000000000000000000000000Vila Rica0286102000000000S伋 PauloSP00000000MURILO BASTOS DE SOUZAI06000230
10205567782000169043709196412013003430000000000000000000000000-253349-000000 00000000000000000000    000000501000000000020200810000000763650000000043701N17022020000000000000000000000000000000000000000000000000000000000000000100036649004804000000000000000000MURILO BASTOS DE SOUZA0000000000000000000000000000000000000000000Vila Rica0286102000000000S伋 PauloSP00000000MURILO BASTOS DE SOUZAI06000231
10205567782000169043709196412013003430000000000000000000000000-2533510-000000 00000000000000000000    000000501000000000020200910000000763650000000043701N17022020000000000000000000000000000000000000000000000000000000000000000100036649004804000000000000000000MURILO BASTOS DE SOUZA0000000000000000000000000000000000000000000Vila Rica0286102000000000S伋 PauloSP00000000MURILO BASTOS DE SOUZAI06000232
10205567782000169043709196412013003430000000000000000000000000-2533611-000000 00000000000000000000    000000501000000000020201010000000763650000000043701N17022020000000000000000000000000000000000000000000000000000000000000000100036649004804000000000000000000MURILO BASTOS DE SOUZA0000000000000000000000000000000000000000000Vila Rica0286102000000000S伋 PauloSP00000000MURILO BASTOS DE SOUZAI06000233
10205567782000169043709196412013003430000000000000000000000000-2533712-000000 00000000000000000000    000000501000000000020201110000000763650000000043701N17022020000000000000000000000000000000000000000000000000000000000000000100036649004804000000000000000000MURILO BASTOS DE SOUZA0000000000000000000000000000000000000000000Vila Rica0286102000000000S伋 PauloSP00000000MURILO BASTOS DE SOUZAI06000234
10205567782000169043709196412013003430000000000000000000000000-2533813-000000 00000000000000000000    000000501000000000020201210000000763650000000043701N17022020000000000000000000000000000000000000000000000000000000000000000100036649004804000000000000000000MURILO BASTOS DE SOUZA0000000000000000000000000000000000000000000Vila Rica0286102000000000S伋 PauloSP00000000MURILO BASTOS DE SOUZAI06000235
10205567782000169043709196412013003430000000000000000000000000-483391-000000 00000000000000000000    000000501000000000000000000000000002500000000043701N1702202000000000000000000000000000000000000000000000000000000000000000010003785200889500000000000000000RITA DO NASCIMENTO IMAI0000000000000000000000000000000000000000Vila Nova Cachoeirinha0261100300000000S伋 PauloSP0000000RITA DO NASCIMENTO IMAII06000236
10205567782000169043709196412013003430000000000000000000000000-483402-000000 00000000000000000000    000000501000000000020200108000000005270000000043701N1702202000000000000000000000000000000000000000000000000000000000000000010003785200889500000000000000000RITA DO NASCIMENTO IMAI0000000000000000000000000000000000000000Vila Nova Cachoeirinha0261100300000000S伋 PauloSP0000000RITA DO NASCIMENTO IMAII06000237
10205567782000169043709196412013003430000000000000000000000000-483413-000000 00000000000000000000    000000501000000000020200207000000005270000000043701N1702202000000000000000000000000000000000000000000000000000000000000000010003785200889500000000000000000RITA DO NASCIMENTO IMAI0000000000000000000000000000000000000000Vila Nova Cachoeirinha0261100300000000S伋 PauloSP0000000RITA DO NASCIMENTO IMAII06000238
10205567782000169043709196412013003430000000000000000000000000-483424-000000 00000000000000000000    000000501000000000020200306000000005270000000043701N1702202000000000000000000000000000000000000000000000000000000000000000010003785200889500000000000000000RITA DO NASCIMENTO IMAI0000000000000000000000000000000000000000Vila Nova Cachoeirinha0261100300000000S伋 PauloSP0000000RITA DO NASCIMENTO IMAII06000239
10205567782000169043709196412013003430000000000000000000000000-483435-000000 00000000000000000000    000000501000000000020200407000000005270000000043701N1702202000000000000000000000000000000000000000000000000000000000000000010003785200889500000000000000000RITA DO NASCIMENTO IMAI0000000000000000000000000000000000000000Vila Nova Cachoeirinha0261100300000000S伋 PauloSP0000000RITA DO NASCIMENTO IMAII06000240
10205567782000169043709196412013003430000000000000000000000000-483446-000000 00000000000000000000    000000501000000000020200508000000005270000000043701N1702202000000000000000000000000000000000000000000000000000000000000000010003785200889500000000000000000RITA DO NASCIMENTO IMAI0000000000000000000000000000000000000000Vila Nova Cachoeirinha0261100300000000S伋 PauloSP0000000RITA DO NASCIMENTO IMAII06000241
10205567782000169043709196412013003430000000000000000000000000-483457-000000 00000000000000000000    000000501000000000020200607000000005270000000043701N1702202000000000000000000000000000000000000000000000000000000000000000010003785200889500000000000000000RITA DO NASCIMENTO IMAI0000000000000000000000000000000000000000Vila Nova Cachoeirinha0261100300000000S伋 PauloSP0000000RITA DO NASCIMENTO IMAII06000242
10205567782000169043709196412013003430000000000000000000000000-483468-000000 00000000000000000000    000000501000000000020200709000000005270000000043701N1702202000000000000000000000000000000000000000000000000000000000000000010003785200889500000000000000000RITA DO NASCIMENTO IMAI0000000000000000000000000000000000000000Vila Nova Cachoeirinha0261100300000000S伋 PauloSP0000000RITA DO NASCIMENTO IMAII06000243
10205567782000169043709196412013003430000000000000000000000000-483479-000000 00000000000000000000    000000501000000000020200807000000005270000000043701N1702202000000000000000000000000000000000000000000000000000000000000000010003785200889500000000000000000RITA DO NASCIMENTO IMAI0000000000000000000000000000000000000000Vila Nova Cachoeirinha0261100300000000S伋 PauloSP0000000RITA DO NASCIMENTO IMAII06000244
10205567782000169043709196412013003430000000000000000000000000-4834810-000000 00000000000000000000    000000501000000000020200908000000005270000000043701N1702202000000000000000000000000000000000000000000000000000000000000000010003785200889500000000000000000RITA DO NASCIMENTO IMAI0000000000000000000000000000000000000000Vila Nova Cachoeirinha0261100300000000S伋 PauloSP0000000RITA DO NASCIMENTO IMAII06000245
10205567782000169043709196412013003430000000000000000000000000-4834911-000000 00000000000000000000    000000501000000000020201007000000005270000000043701N1702202000000000000000000000000000000000000000000000000000000000000000010003785200889500000000000000000RITA DO NASCIMENTO IMAI0000000000000000000000000000000000000000Vila Nova Cachoeirinha0261100300000000S伋 PauloSP0000000RITA DO NASCIMENTO IMAII06000246
10205567782000169043709196412013003430000000000000000000000000-4835012-000000 00000000000000000000    000000501000000000020201109000000005270000000043701N1702202000000000000000000000000000000000000000000000000000000000000000010003785200889500000000000000000RITA DO NASCIMENTO IMAI0000000000000000000000000000000000000000Vila Nova Cachoeirinha0261100300000000S伋 PauloSP0000000RITA DO NASCIMENTO IMAII06000247
10205567782000169043709196412013003430000000000000000000000000-4835113-000000 00000000000000000000    000000501000000000020201207000000005270000000043701N1702202000000000000000000000000000000000000000000000000000000000000000010003785200889500000000000000000RITA DO NASCIMENTO IMAI0000000000000000000000000000000000000000Vila Nova Cachoeirinha0261100300000000S伋 PauloSP0000000RITA DO NASCIMENTO IMAII06000248
