01REMESSA01COBRANCA       04370919641201300343ESCOLA FUTUROS GENIOS.        033SANTANDER      1702200000000000000000                                                                                                                                                                                                                                                                                      000001
1020556778200016904370919641201300343000000000000000000000000000030921000000 00000000000000000000    000000501000000000000000000000000002500000000043701N17022020000000000000000000000000000000000000000000000000000000000000000100015248324807000000000000000SALWA MAHMOUD BAKRI SOUZA0000000000000000000000000000000000000000Vila Itaberaba0284707000000000S伋 PauloSP00000SALWA MAHMOUD BAKRI SOUZAI06000002
1020556778200016904370919641201300343000000000000000000000000000030932000000 00000000000000000000    000000501000000000020200110000000478520000000043701N17022020000000000000000000000000000000000000000000000000000000000000000100015248324807000000000000000SALWA MAHMOUD BAKRI SOUZA0000000000000000000000000000000000000000Vila Itaberaba0284707000000000S伋 PauloSP00000SALWA MAHMOUD BAKRI SOUZAI06000003
1020556778200016904370919641201300343000000000000000000000000000030943000000 00000000000000000000    000000501000000000020200210000000478520000000043701N17022020000000000000000000000000000000000000000000000000000000000000000100015248324807000000000000000SALWA MAHMOUD BAKRI SOUZA0000000000000000000000000000000000000000Vila Itaberaba0284707000000000S伋 PauloSP00000SALWA MAHMOUD BAKRI SOUZAI06000004
1020556778200016904370919641201300343000000000000000000000000000030954000000 00000000000000000000    000000501000000000020200310000000478520000000043701N17022020000000000000000000000000000000000000000000000000000000000000000100015248324807000000000000000SALWA MAHMOUD BAKRI SOUZA0000000000000000000000000000000000000000Vila Itaberaba0284707000000000S伋 PauloSP00000SALWA MAHMOUD BAKRI SOUZAI06000005
1020556778200016904370919641201300343000000000000000000000000000030965000000 00000000000000000000    000000501000000000020200410000000478520000000043701N17022020000000000000000000000000000000000000000000000000000000000000000100015248324807000000000000000SALWA MAHMOUD BAKRI SOUZA0000000000000000000000000000000000000000Vila Itaberaba0284707000000000S伋 PauloSP00000SALWA MAHMOUD BAKRI SOUZAI06000006
1020556778200016904370919641201300343000000000000000000000000000030976000000 00000000000000000000    000000501000000000020200510000000478520000000043701N17022020000000000000000000000000000000000000000000000000000000000000000100015248324807000000000000000SALWA MAHMOUD BAKRI SOUZA0000000000000000000000000000000000000000Vila Itaberaba0284707000000000S伋 PauloSP00000SALWA MAHMOUD BAKRI SOUZAI06000007
1020556778200016904370919641201300343000000000000000000000000000030987000000 00000000000000000000    000000501000000000020200610000000478520000000043701N17022020000000000000000000000000000000000000000000000000000000000000000100015248324807000000000000000SALWA MAHMOUD BAKRI SOUZA0000000000000000000000000000000000000000Vila Itaberaba0284707000000000S伋 PauloSP00000SALWA MAHMOUD BAKRI SOUZAI06000008
1020556778200016904370919641201300343000000000000000000000000000030998000000 00000000000000000000    000000501000000000020200710000000478520000000043701N17022020000000000000000000000000000000000000000000000000000000000000000100015248324807000000000000000SALWA MAHMOUD BAKRI SOUZA0000000000000000000000000000000000000000Vila Itaberaba0284707000000000S伋 PauloSP00000SALWA MAHMOUD BAKRI SOUZAI06000009
10205567782000169043709196412013003430000000000000000000000000000301009000000 00000000000000000000    000000501000000000020200810000000478520000000043701N17022020000000000000000000000000000000000000000000000000000000000000000100015248324807000000000000000SALWA MAHMOUD BAKRI SOUZA0000000000000000000000000000000000000000Vila Itaberaba0284707000000000S伋 PauloSP00000SALWA MAHMOUD BAKRI SOUZAI06000010
102055677820001690437091964120130034300000000000000000000000000003010110000000 00000000000000000000    000000501000000000020200910000000478520000000043701N17022020000000000000000000000000000000000000000000000000000000000000000100015248324807000000000000000SALWA MAHMOUD BAKRI SOUZA0000000000000000000000000000000000000000Vila Itaberaba0284707000000000S伋 PauloSP00000SALWA MAHMOUD BAKRI SOUZAI06000011
102055677820001690437091964120130034300000000000000000000000000003010211000000 00000000000000000000    000000501000000000020201010000000478520000000043701N17022020000000000000000000000000000000000000000000000000000000000000000100015248324807000000000000000SALWA MAHMOUD BAKRI SOUZA0000000000000000000000000000000000000000Vila Itaberaba0284707000000000S伋 PauloSP00000SALWA MAHMOUD BAKRI SOUZAI06000012
102055677820001690437091964120130034300000000000000000000000000003010312000000 00000000000000000000    000000501000000000020201110000000478520000000043701N17022020000000000000000000000000000000000000000000000000000000000000000100015248324807000000000000000SALWA MAHMOUD BAKRI SOUZA0000000000000000000000000000000000000000Vila Itaberaba0284707000000000S伋 PauloSP00000SALWA MAHMOUD BAKRI SOUZAI06000013
102055677820001690437091964120130034300000000000000000000000000003010413000000 00000000000000000000    000000501000000000000000000000000478520000000043701N17022020000000000000000000000000000000000000000000000000000000000000000100015248324807000000000000000SALWA MAHMOUD BAKRI SOUZA0000000000000000000000000000000000000000Vila Itaberaba0284707000000000S伋 PauloSP00000SALWA MAHMOUD BAKRI SOUZAI06000014
10205567782000169043709196412013003430000000000000000000000000000541051000000 00000000000000000000    000000501000000000000000000000000002500000000043701N17022020000000000000000000000000000000000000000000000000000000000000000100036429746860000000000000000000DANILLO CALLANA SAN츒 0000000000000000000000000000000000000000Jardim dos Francos0287400000000000S伋 PauloSP00000000DANILLO CALLANA SAN츒 I06000015
10205567782000169043709196412013003430000000000000000000000000000541062000000 00000000000000000000    000000501000000000020200108000000004300000000043701N17022020000000000000000000000000000000000000000000000000000000000000000100036429746860000000000000000000DANILLO CALLANA SAN츒 0000000000000000000000000000000000000000Jardim dos Francos0287400000000000S伋 PauloSP00000000DANILLO CALLANA SAN츒 I06000016
10205567782000169043709196412013003430000000000000000000000000000541073000000 00000000000000000000    000000501000000000020200207000000004300000000043701N17022020000000000000000000000000000000000000000000000000000000000000000100036429746860000000000000000000DANILLO CALLANA SAN츒 0000000000000000000000000000000000000000Jardim dos Francos0287400000000000S伋 PauloSP00000000DANILLO CALLANA SAN츒 I06000017
10205567782000169043709196412013003430000000000000000000000000000541084000000 00000000000000000000    000000501000000000020200306000000004300000000043701N17022020000000000000000000000000000000000000000000000000000000000000000100036429746860000000000000000000DANILLO CALLANA SAN츒 0000000000000000000000000000000000000000Jardim dos Francos0287400000000000S伋 PauloSP00000000DANILLO CALLANA SAN츒 I06000018
10205567782000169043709196412013003430000000000000000000000000000541095000000 00000000000000000000    000000501000000000020200407000000004300000000043701N17022020000000000000000000000000000000000000000000000000000000000000000100036429746860000000000000000000DANILLO CALLANA SAN츒 0000000000000000000000000000000000000000Jardim dos Francos0287400000000000S伋 PauloSP00000000DANILLO CALLANA SAN츒 I06000019
10205567782000169043709196412013003430000000000000000000000000000541106000000 00000000000000000000    000000501000000000020200508000000004300000000043701N17022020000000000000000000000000000000000000000000000000000000000000000100036429746860000000000000000000DANILLO CALLANA SAN츒 0000000000000000000000000000000000000000Jardim dos Francos0287400000000000S伋 PauloSP00000000DANILLO CALLANA SAN츒 I06000020
10205567782000169043709196412013003430000000000000000000000000000541117000000 00000000000000000000    000000501000000000020200605000000004300000000043701N17022020000000000000000000000000000000000000000000000000000000000000000100036429746860000000000000000000DANILLO CALLANA SAN츒 0000000000000000000000000000000000000000Jardim dos Francos0287400000000000S伋 PauloSP00000000DANILLO CALLANA SAN츒 I06000021
10205567782000169043709196412013003430000000000000000000000000000541128000000 00000000000000000000    000000501000000000020200707000000004300000000043701N17022020000000000000000000000000000000000000000000000000000000000000000100036429746860000000000000000000DANILLO CALLANA SAN츒 0000000000000000000000000000000000000000Jardim dos Francos0287400000000000S伋 PauloSP00000000DANILLO CALLANA SAN츒 I06000022
10205567782000169043709196412013003430000000000000000000000000000541139000000 00000000000000000000    000000501000000000020200807000000004300000000043701N17022020000000000000000000000000000000000000000000000000000000000000000100036429746860000000000000000000DANILLO CALLANA SAN츒 0000000000000000000000000000000000000000Jardim dos Francos0287400000000000S伋 PauloSP00000000DANILLO CALLANA SAN츒 I06000023
102055677820001690437091964120130034300000000000000000000000000005411410000000 00000000000000000000    000000501000000000020200908000000004300000000043701N17022020000000000000000000000000000000000000000000000000000000000000000100036429746860000000000000000000DANILLO CALLANA SAN츒 0000000000000000000000000000000000000000Jardim dos Francos0287400000000000S伋 PauloSP00000000DANILLO CALLANA SAN츒 I06000024
102055677820001690437091964120130034300000000000000000000000000005411511000000 00000000000000000000    000000501000000000020201007000000004300000000043701N17022020000000000000000000000000000000000000000000000000000000000000000100036429746860000000000000000000DANILLO CALLANA SAN츒 0000000000000000000000000000000000000000Jardim dos Francos0287400000000000S伋 PauloSP00000000DANILLO CALLANA SAN츒 I06000025
102055677820001690437091964120130034300000000000000000000000000005411612000000 00000000000000000000    000000501000000000020201109000000004300000000043701N17022020000000000000000000000000000000000000000000000000000000000000000100036429746860000000000000000000DANILLO CALLANA SAN츒 0000000000000000000000000000000000000000Jardim dos Francos0287400000000000S伋 PauloSP00000000DANILLO CALLANA SAN츒 I06000026
102055677820001690437091964120130034300000000000000000000000000005411713000000 00000000000000000000    000000501000000000020201207000000004300000000043701N17022020000000000000000000000000000000000000000000000000000000000000000100036429746860000000000000000000DANILLO CALLANA SAN츒 0000000000000000000000000000000000000000Jardim dos Francos0287400000000000S伋 PauloSP00000000DANILLO CALLANA SAN츒 I06000027
10205567782000169043709196412013003430000000000000000000000000000441181000000 00000000000000000000    000000501000000000000000000000000002500000000043701N1702202000000000000000000000000000000000000000000000000000000000000000010001934614688500000000000000000MARCIO OLIVEIRA MARQUES000000000000000000000000000000000000000000Vila Souza0000286000000000S伋 PauloSP0000000MARCIO OLIVEIRA MARQUESI06000028
10205567782000169043709196412013003430000000000000000000000000000441192000000 00000000000000000000    000000501000000000020200108000000004320000000043701N1702202000000000000000000000000000000000000000000000000000000000000000010001934614688500000000000000000MARCIO OLIVEIRA MARQUES000000000000000000000000000000000000000000Vila Souza0000286000000000S伋 PauloSP0000000MARCIO OLIVEIRA MARQUESI06000029
10205567782000169043709196412013003430000000000000000000000000000441203000000 00000000000000000000    000000501000000000020200207000000004320000000043701N1702202000000000000000000000000000000000000000000000000000000000000000010001934614688500000000000000000MARCIO OLIVEIRA MARQUES000000000000000000000000000000000000000000Vila Souza0000286000000000S伋 PauloSP0000000MARCIO OLIVEIRA MARQUESI06000030
10205567782000169043709196412013003430000000000000000000000000000441214000000 00000000000000000000    000000501000000000020200306000000004320000000043701N1702202000000000000000000000000000000000000000000000000000000000000000010001934614688500000000000000000MARCIO OLIVEIRA MARQUES000000000000000000000000000000000000000000Vila Souza0000286000000000S伋 PauloSP0000000MARCIO OLIVEIRA MARQUESI06000031
10205567782000169043709196412013003430000000000000000000000000000441225000000 00000000000000000000    000000501000000000020200407000000004320000000043701N1702202000000000000000000000000000000000000000000000000000000000000000010001934614688500000000000000000MARCIO OLIVEIRA MARQUES000000000000000000000000000000000000000000Vila Souza0000286000000000S伋 PauloSP0000000MARCIO OLIVEIRA MARQUESI06000032
10205567782000169043709196412013003430000000000000000000000000000441236000000 00000000000000000000    000000501000000000020200508000000004320000000043701N1702202000000000000000000000000000000000000000000000000000000000000000010001934614688500000000000000000MARCIO OLIVEIRA MARQUES000000000000000000000000000000000000000000Vila Souza0000286000000000S伋 PauloSP0000000MARCIO OLIVEIRA MARQUESI06000033
10205567782000169043709196412013003430000000000000000000000000000441247000000 00000000000000000000    000000501000000000020200605000000004320000000043701N1702202000000000000000000000000000000000000000000000000000000000000000010001934614688500000000000000000MARCIO OLIVEIRA MARQUES000000000000000000000000000000000000000000Vila Souza0000286000000000S伋 PauloSP0000000MARCIO OLIVEIRA MARQUESI06000034
10205567782000169043709196412013003430000000000000000000000000000441258000000 00000000000000000000    000000501000000000020200707000000004320000000043701N1702202000000000000000000000000000000000000000000000000000000000000000010001934614688500000000000000000MARCIO OLIVEIRA MARQUES000000000000000000000000000000000000000000Vila Souza0000286000000000S伋 PauloSP0000000MARCIO OLIVEIRA MARQUESI06000035
10205567782000169043709196412013003430000000000000000000000000000441269000000 00000000000000000000    000000501000000000020200807000000004320000000043701N1702202000000000000000000000000000000000000000000000000000000000000000010001934614688500000000000000000MARCIO OLIVEIRA MARQUES000000000000000000000000000000000000000000Vila Souza0000286000000000S伋 PauloSP0000000MARCIO OLIVEIRA MARQUESI06000036
102055677820001690437091964120130034300000000000000000000000000004412710000000 00000000000000000000    000000501000000000020200908000000004320000000043701N1702202000000000000000000000000000000000000000000000000000000000000000010001934614688500000000000000000MARCIO OLIVEIRA MARQUES000000000000000000000000000000000000000000Vila Souza0000286000000000S伋 PauloSP0000000MARCIO OLIVEIRA MARQUESI06000037
102055677820001690437091964120130034300000000000000000000000000004412811000000 00000000000000000000    000000501000000000020201007000000004320000000043701N1702202000000000000000000000000000000000000000000000000000000000000000010001934614688500000000000000000MARCIO OLIVEIRA MARQUES000000000000000000000000000000000000000000Vila Souza0000286000000000S伋 PauloSP0000000MARCIO OLIVEIRA MARQUESI06000038
102055677820001690437091964120130034300000000000000000000000000004412912000000 00000000000000000000    000000501000000000020201109000000004320000000043701N1702202000000000000000000000000000000000000000000000000000000000000000010001934614688500000000000000000MARCIO OLIVEIRA MARQUES000000000000000000000000000000000000000000Vila Souza0000286000000000S伋 PauloSP0000000MARCIO OLIVEIRA MARQUESI06000039
102055677820001690437091964120130034300000000000000000000000000004413013000000 00000000000000000000    000000501000000000020201207000000004320000000043701N1702202000000000000000000000000000000000000000000000000000000000000000010001934614688500000000000000000MARCIO OLIVEIRA MARQUES000000000000000000000000000000000000000000Vila Souza0000286000000000S伋 PauloSP0000000MARCIO OLIVEIRA MARQUESI06000040
10205567782000169043709196412013003430000000000000000000000000000531441000000 00000000000000000000    000000501000000000000000000000000002500000000043701N170220200000000000000000000000000000000000000000000000000000000000000001000306385718120000000000000Tatiane Alessandra da Silva0000000000000000000000000000000000000000Lauzane Paulista0243000200000000S伋 PauloSP000Tatiane Alessandra da SilvaI06000041
10205567782000169043709196412013003430000000000000000000000000000531452000000 00000000000000000000    000000501000000000020200108000000006900000000043701N170220200000000000000000000000000000000000000000000000000000000000000001000306385718120000000000000Tatiane Alessandra da Silva0000000000000000000000000000000000000000Lauzane Paulista0243000200000000S伋 PauloSP000Tatiane Alessandra da SilvaI06000042
10205567782000169043709196412013003430000000000000000000000000000531463000000 00000000000000000000    000000501000000000020200207000000006900000000043701N170220200000000000000000000000000000000000000000000000000000000000000001000306385718120000000000000Tatiane Alessandra da Silva0000000000000000000000000000000000000000Lauzane Paulista0243000200000000S伋 PauloSP000Tatiane Alessandra da SilvaI06000043
10205567782000169043709196412013003430000000000000000000000000000531474000000 00000000000000000000    000000501000000000020200306000000006900000000043701N170220200000000000000000000000000000000000000000000000000000000000000001000306385718120000000000000Tatiane Alessandra da Silva0000000000000000000000000000000000000000Lauzane Paulista0243000200000000S伋 PauloSP000Tatiane Alessandra da SilvaI06000044
10205567782000169043709196412013003430000000000000000000000000000531485000000 00000000000000000000    000000501000000000020200406000000006900000000043701N170220200000000000000000000000000000000000000000000000000000000000000001000306385718120000000000000Tatiane Alessandra da Silva0000000000000000000000000000000000000000Lauzane Paulista0243000200000000S伋 PauloSP000Tatiane Alessandra da SilvaI06000045
10205567782000169043709196412013003430000000000000000000000000000531496000000 00000000000000000000    000000501000000000020200508000000006900000000043701N170220200000000000000000000000000000000000000000000000000000000000000001000306385718120000000000000Tatiane Alessandra da Silva0000000000000000000000000000000000000000Lauzane Paulista0243000200000000S伋 PauloSP000Tatiane Alessandra da SilvaI06000046
10205567782000169043709196412013003430000000000000000000000000000531507000000 00000000000000000000    000000501000000000020200605000000006900000000043701N170220200000000000000000000000000000000000000000000000000000000000000001000306385718120000000000000Tatiane Alessandra da Silva0000000000000000000000000000000000000000Lauzane Paulista0243000200000000S伋 PauloSP000Tatiane Alessandra da SilvaI06000047
10205567782000169043709196412013003430000000000000000000000000000531518000000 00000000000000000000    000000501000000000020200707000000006900000000043701N170220200000000000000000000000000000000000000000000000000000000000000001000306385718120000000000000Tatiane Alessandra da Silva0000000000000000000000000000000000000000Lauzane Paulista0243000200000000S伋 PauloSP000Tatiane Alessandra da SilvaI06000048
10205567782000169043709196412013003430000000000000000000000000000531529000000 00000000000000000000    000000501000000000020200807000000006900000000043701N170220200000000000000000000000000000000000000000000000000000000000000001000306385718120000000000000Tatiane Alessandra da Silva0000000000000000000000000000000000000000Lauzane Paulista0243000200000000S伋 PauloSP000Tatiane Alessandra da SilvaI06000049
102055677820001690437091964120130034300000000000000000000000000005315310000000 00000000000000000000    000000501000000000020200907000000006900000000043701N170220200000000000000000000000000000000000000000000000000000000000000001000306385718120000000000000Tatiane Alessandra da Silva0000000000000000000000000000000000000000Lauzane Paulista0243000200000000S伋 PauloSP000Tatiane Alessandra da SilvaI06000050
102055677820001690437091964120130034300000000000000000000000000005315411000000 00000000000000000000    000000501000000000020201008000000006900000000043701N170220200000000000000000000000000000000000000000000000000000000000000001000306385718120000000000000Tatiane Alessandra da Silva0000000000000000000000000000000000000000Lauzane Paulista0243000200000000S伋 PauloSP000Tatiane Alessandra da SilvaI06000051
102055677820001690437091964120130034300000000000000000000000000005315512000000 00000000000000000000    000000501000000000020201109000000006900000000043701N170220200000000000000000000000000000000000000000000000000000000000000001000306385718120000000000000Tatiane Alessandra da Silva0000000000000000000000000000000000000000Lauzane Paulista0243000200000000S伋 PauloSP000Tatiane Alessandra da SilvaI06000052
102055677820001690437091964120130034300000000000000000000000000005315613000000 00000000000000000000    000000501000000000020201207000000006900000000043701N170220200000000000000000000000000000000000000000000000000000000000000001000306385718120000000000000Tatiane Alessandra da Silva0000000000000000000000000000000000000000Lauzane Paulista0243000200000000S伋 PauloSP000Tatiane Alessandra da SilvaI06000053
10205567782000169043709196412013003430000000000000000000000000000421571000000 00000000000000000000    000000501000000000000000000000000002500000000043701N170220200000000000000000000000000000000000000000000000000000000000000001000130002758430000000ANTONIO COSTA DOS SANTOS GON큐LVES0000000000000000000000000000000000000000000Brasil轟dia0286310000000000S伋 PauloSPANTONIO COSTA DOS SANTOS GON큐LVESI06000054
10205567782000169043709196412013003430000000000000000000000000000421582000000 00000000000000000000    000000501000000000020200108000000077520000000043701N170220200000000000000000000000000000000000000000000000000000000000000001000130002758430000000ANTONIO COSTA DOS SANTOS GON큐LVES0000000000000000000000000000000000000000000Brasil轟dia0286310000000000S伋 PauloSPANTONIO COSTA DOS SANTOS GON큐LVESI06000055
10205567782000169043709196412013003430000000000000000000000000000421593000000 00000000000000000000    000000501000000000020200207000000077520000000043701N170220200000000000000000000000000000000000000000000000000000000000000001000130002758430000000ANTONIO COSTA DOS SANTOS GON큐LVES0000000000000000000000000000000000000000000Brasil轟dia0286310000000000S伋 PauloSPANTONIO COSTA DOS SANTOS GON큐LVESI06000056
10205567782000169043709196412013003430000000000000000000000000000421604000000 00000000000000000000    000000501000000000020200306000000077520000000043701N170220200000000000000000000000000000000000000000000000000000000000000001000130002758430000000ANTONIO COSTA DOS SANTOS GON큐LVES0000000000000000000000000000000000000000000Brasil轟dia0286310000000000S伋 PauloSPANTONIO COSTA DOS SANTOS GON큐LVESI06000057
10205567782000169043709196412013003430000000000000000000000000000421615000000 00000000000000000000    000000501000000000020200407000000077520000000043701N170220200000000000000000000000000000000000000000000000000000000000000001000130002758430000000ANTONIO COSTA DOS SANTOS GON큐LVES0000000000000000000000000000000000000000000Brasil轟dia0286310000000000S伋 PauloSPANTONIO COSTA DOS SANTOS GON큐LVESI06000058
10205567782000169043709196412013003430000000000000000000000000000421626000000 00000000000000000000    000000501000000000020200508000000077520000000043701N170220200000000000000000000000000000000000000000000000000000000000000001000130002758430000000ANTONIO COSTA DOS SANTOS GON큐LVES0000000000000000000000000000000000000000000Brasil轟dia0286310000000000S伋 PauloSPANTONIO COSTA DOS SANTOS GON큐LVESI06000059
10205567782000169043709196412013003430000000000000000000000000000421637000000 00000000000000000000    000000501000000000020200605000000077520000000043701N170220200000000000000000000000000000000000000000000000000000000000000001000130002758430000000ANTONIO COSTA DOS SANTOS GON큐LVES0000000000000000000000000000000000000000000Brasil轟dia0286310000000000S伋 PauloSPANTONIO COSTA DOS SANTOS GON큐LVESI06000060
10205567782000169043709196412013003430000000000000000000000000000421648000000 00000000000000000000    000000501000000000020200707000000077520000000043701N170220200000000000000000000000000000000000000000000000000000000000000001000130002758430000000ANTONIO COSTA DOS SANTOS GON큐LVES0000000000000000000000000000000000000000000Brasil轟dia0286310000000000S伋 PauloSPANTONIO COSTA DOS SANTOS GON큐LVESI06000061
10205567782000169043709196412013003430000000000000000000000000000421659000000 00000000000000000000    000000501000000000020200807000000077520000000043701N170220200000000000000000000000000000000000000000000000000000000000000001000130002758430000000ANTONIO COSTA DOS SANTOS GON큐LVES0000000000000000000000000000000000000000000Brasil轟dia0286310000000000S伋 PauloSPANTONIO COSTA DOS SANTOS GON큐LVESI06000062
102055677820001690437091964120130034300000000000000000000000000004216610000000 00000000000000000000    000000501000000000020200908000000077520000000043701N170220200000000000000000000000000000000000000000000000000000000000000001000130002758430000000ANTONIO COSTA DOS SANTOS GON큐LVES0000000000000000000000000000000000000000000Brasil轟dia0286310000000000S伋 PauloSPANTONIO COSTA DOS SANTOS GON큐LVESI06000063
102055677820001690437091964120130034300000000000000000000000000004216711000000 00000000000000000000    000000501000000000020201007000000077520000000043701N170220200000000000000000000000000000000000000000000000000000000000000001000130002758430000000ANTONIO COSTA DOS SANTOS GON큐LVES0000000000000000000000000000000000000000000Brasil轟dia0286310000000000S伋 PauloSPANTONIO COSTA DOS SANTOS GON큐LVESI06000064
102055677820001690437091964120130034300000000000000000000000000004216812000000 00000000000000000000    000000501000000000020201109000000077520000000043701N170220200000000000000000000000000000000000000000000000000000000000000001000130002758430000000ANTONIO COSTA DOS SANTOS GON큐LVES0000000000000000000000000000000000000000000Brasil轟dia0286310000000000S伋 PauloSPANTONIO COSTA DOS SANTOS GON큐LVESI06000065
102055677820001690437091964120130034300000000000000000000000000004216913000000 00000000000000000000    000000501000000000020201207000000077520000000043701N170220200000000000000000000000000000000000000000000000000000000000000001000130002758430000000ANTONIO COSTA DOS SANTOS GON큐LVES0000000000000000000000000000000000000000000Brasil轟dia0286310000000000S伋 PauloSPANTONIO COSTA DOS SANTOS GON큐LVESI06000066
10205567782000169043709196412013003430000000000000000000000000000491701000000 00000000000000000000    000000501000000000000000000000000002500000000043701N1702202000000000000000000000000000000000000000000000000000000000000000010000129749451200000000000MARIA APARECIDA CARVALHO LIMA0000000000000000000000000000000000000000Jardim Vista Alegre0287800000000000S伋 PauloSP0MARIA APARECIDA CARVALHO LIMAI06000067
10205567782000169043709196412013003430000000000000000000000000000491712000000 00000000000000000000    000000501000000000020200120000000007660000000043701N1702202000000000000000000000000000000000000000000000000000000000000000010000129749451200000000000MARIA APARECIDA CARVALHO LIMA0000000000000000000000000000000000000000Jardim Vista Alegre0287800000000000S伋 PauloSP0MARIA APARECIDA CARVALHO LIMAI06000068
10205567782000169043709196412013003430000000000000000000000000000491723000000 00000000000000000000    000000501000000000020200220000000007660000000043701N1702202000000000000000000000000000000000000000000000000000000000000000010000129749451200000000000MARIA APARECIDA CARVALHO LIMA0000000000000000000000000000000000000000Jardim Vista Alegre0287800000000000S伋 PauloSP0MARIA APARECIDA CARVALHO LIMAI06000069
10205567782000169043709196412013003430000000000000000000000000000491734000000 00000000000000000000    000000501000000000020200320000000007660000000043701N1702202000000000000000000000000000000000000000000000000000000000000000010000129749451200000000000MARIA APARECIDA CARVALHO LIMA0000000000000000000000000000000000000000Jardim Vista Alegre0287800000000000S伋 PauloSP0MARIA APARECIDA CARVALHO LIMAI06000070
10205567782000169043709196412013003430000000000000000000000000000491745000000 00000000000000000000    000000501000000000020200420000000007660000000043701N1702202000000000000000000000000000000000000000000000000000000000000000010000129749451200000000000MARIA APARECIDA CARVALHO LIMA0000000000000000000000000000000000000000Jardim Vista Alegre0287800000000000S伋 PauloSP0MARIA APARECIDA CARVALHO LIMAI06000071
10205567782000169043709196412013003430000000000000000000000000000491756000000 00000000000000000000    000000501000000000020200520000000007660000000043701N1702202000000000000000000000000000000000000000000000000000000000000000010000129749451200000000000MARIA APARECIDA CARVALHO LIMA0000000000000000000000000000000000000000Jardim Vista Alegre0287800000000000S伋 PauloSP0MARIA APARECIDA CARVALHO LIMAI06000072
10205567782000169043709196412013003430000000000000000000000000000491767000000 00000000000000000000    000000501000000000020200620000000007660000000043701N1702202000000000000000000000000000000000000000000000000000000000000000010000129749451200000000000MARIA APARECIDA CARVALHO LIMA0000000000000000000000000000000000000000Jardim Vista Alegre0287800000000000S伋 PauloSP0MARIA APARECIDA CARVALHO LIMAI06000073
10205567782000169043709196412013003430000000000000000000000000000491778000000 00000000000000000000    000000501000000000020200720000000007660000000043701N1702202000000000000000000000000000000000000000000000000000000000000000010000129749451200000000000MARIA APARECIDA CARVALHO LIMA0000000000000000000000000000000000000000Jardim Vista Alegre0287800000000000S伋 PauloSP0MARIA APARECIDA CARVALHO LIMAI06000074
10205567782000169043709196412013003430000000000000000000000000000491789000000 00000000000000000000    000000501000000000020200820000000007660000000043701N1702202000000000000000000000000000000000000000000000000000000000000000010000129749451200000000000MARIA APARECIDA CARVALHO LIMA0000000000000000000000000000000000000000Jardim Vista Alegre0287800000000000S伋 PauloSP0MARIA APARECIDA CARVALHO LIMAI06000075
102055677820001690437091964120130034300000000000000000000000000004917910000000 00000000000000000000    000000501000000000020200920000000007660000000043701N1702202000000000000000000000000000000000000000000000000000000000000000010000129749451200000000000MARIA APARECIDA CARVALHO LIMA0000000000000000000000000000000000000000Jardim Vista Alegre0287800000000000S伋 PauloSP0MARIA APARECIDA CARVALHO LIMAI06000076
102055677820001690437091964120130034300000000000000000000000000004918011000000 00000000000000000000    000000501000000000020201020000000007660000000043701N1702202000000000000000000000000000000000000000000000000000000000000000010000129749451200000000000MARIA APARECIDA CARVALHO LIMA0000000000000000000000000000000000000000Jardim Vista Alegre0287800000000000S伋 PauloSP0MARIA APARECIDA CARVALHO LIMAI06000077
102055677820001690437091964120130034300000000000000000000000000004918112000000 00000000000000000000    000000501000000000020201120000000007660000000043701N1702202000000000000000000000000000000000000000000000000000000000000000010000129749451200000000000MARIA APARECIDA CARVALHO LIMA0000000000000000000000000000000000000000Jardim Vista Alegre0287800000000000S伋 PauloSP0MARIA APARECIDA CARVALHO LIMAI06000078
102055677820001690437091964120130034300000000000000000000000000004918213000000 00000000000000000000    000000501000000000020201220000000007660000000043701N1702202000000000000000000000000000000000000000000000000000000000000000010000129749451200000000000MARIA APARECIDA CARVALHO LIMA0000000000000000000000000000000000000000Jardim Vista Alegre0287800000000000S伋 PauloSP0MARIA APARECIDA CARVALHO LIMAI06000079
10205567782000169043709196412013003430000000000000000000000000000071831000000 00000000000000000000    000000501000000000000000000000000002500000000043701N17022020000000000000000000000000000000000000000000000000000000000000000100008740846873MARTA APARECIDA VENTURA PEREIRA DA SILVA0000000000000000000000000000000000000000Jardim Centen痙io0288214000000000S伋 PauloSPMARTA APARECIDA VENTURA PEREIRA DA SILVAI06000080
10205567782000169043709196412013003430000000000000000000000000000071842000000 00000000000000000000    000000501000000000020200101000000004200000000043701N17022020000000000000000000000000000000000000000000000000000000000000000100008740846873MARTA APARECIDA VENTURA PEREIRA DA SILVA0000000000000000000000000000000000000000Jardim Centen痙io0288214000000000S伋 PauloSPMARTA APARECIDA VENTURA PEREIRA DA SILVAI06000081
10205567782000169043709196412013003430000000000000000000000000000071853000000 00000000000000000000    000000501000000000020200201000000004200000000043701N17022020000000000000000000000000000000000000000000000000000000000000000100008740846873MARTA APARECIDA VENTURA PEREIRA DA SILVA0000000000000000000000000000000000000000Jardim Centen痙io0288214000000000S伋 PauloSPMARTA APARECIDA VENTURA PEREIRA DA SILVAI06000082
10205567782000169043709196412013003430000000000000000000000000000071864000000 00000000000000000000    000000501000000000020200301000000004200000000043701N17022020000000000000000000000000000000000000000000000000000000000000000100008740846873MARTA APARECIDA VENTURA PEREIRA DA SILVA0000000000000000000000000000000000000000Jardim Centen痙io0288214000000000S伋 PauloSPMARTA APARECIDA VENTURA PEREIRA DA SILVAI06000083
10205567782000169043709196412013003430000000000000000000000000000071875000000 00000000000000000000    000000501000000000020200401000000004200000000043701N17022020000000000000000000000000000000000000000000000000000000000000000100008740846873MARTA APARECIDA VENTURA PEREIRA DA SILVA0000000000000000000000000000000000000000Jardim Centen痙io0288214000000000S伋 PauloSPMARTA APARECIDA VENTURA PEREIRA DA SILVAI06000084
10205567782000169043709196412013003430000000000000000000000000000071886000000 00000000000000000000    000000501000000000020200501000000004200000000043701N17022020000000000000000000000000000000000000000000000000000000000000000100008740846873MARTA APARECIDA VENTURA PEREIRA DA SILVA0000000000000000000000000000000000000000Jardim Centen痙io0288214000000000S伋 PauloSPMARTA APARECIDA VENTURA PEREIRA DA SILVAI06000085
10205567782000169043709196412013003430000000000000000000000000000071897000000 00000000000000000000    000000501000000000020200601000000004200000000043701N17022020000000000000000000000000000000000000000000000000000000000000000100008740846873MARTA APARECIDA VENTURA PEREIRA DA SILVA0000000000000000000000000000000000000000Jardim Centen痙io0288214000000000S伋 PauloSPMARTA APARECIDA VENTURA PEREIRA DA SILVAI06000086
10205567782000169043709196412013003430000000000000000000000000000071908000000 00000000000000000000    000000501000000000020200701000000004200000000043701N17022020000000000000000000000000000000000000000000000000000000000000000100008740846873MARTA APARECIDA VENTURA PEREIRA DA SILVA0000000000000000000000000000000000000000Jardim Centen痙io0288214000000000S伋 PauloSPMARTA APARECIDA VENTURA PEREIRA DA SILVAI06000087
10205567782000169043709196412013003430000000000000000000000000000071919000000 00000000000000000000    000000501000000000020200801000000004200000000043701N17022020000000000000000000000000000000000000000000000000000000000000000100008740846873MARTA APARECIDA VENTURA PEREIRA DA SILVA0000000000000000000000000000000000000000Jardim Centen痙io0288214000000000S伋 PauloSPMARTA APARECIDA VENTURA PEREIRA DA SILVAI06000088
102055677820001690437091964120130034300000000000000000000000000000719210000000 00000000000000000000    000000501000000000020200901000000004200000000043701N17022020000000000000000000000000000000000000000000000000000000000000000100008740846873MARTA APARECIDA VENTURA PEREIRA DA SILVA0000000000000000000000000000000000000000Jardim Centen痙io0288214000000000S伋 PauloSPMARTA APARECIDA VENTURA PEREIRA DA SILVAI06000089
102055677820001690437091964120130034300000000000000000000000000000719311000000 00000000000000000000    000000501000000000020201001000000004200000000043701N17022020000000000000000000000000000000000000000000000000000000000000000100008740846873MARTA APARECIDA VENTURA PEREIRA DA SILVA0000000000000000000000000000000000000000Jardim Centen痙io0288214000000000S伋 PauloSPMARTA APARECIDA VENTURA PEREIRA DA SILVAI06000090
102055677820001690437091964120130034300000000000000000000000000000719412000000 00000000000000000000    000000501000000000020201101000000004200000000043701N17022020000000000000000000000000000000000000000000000000000000000000000100008740846873MARTA APARECIDA VENTURA PEREIRA DA SILVA0000000000000000000000000000000000000000Jardim Centen痙io0288214000000000S伋 PauloSPMARTA APARECIDA VENTURA PEREIRA DA SILVAI06000091
102055677820001690437091964120130034300000000000000000000000000000719513000000 00000000000000000000    000000501000000000020201201000000004200000000043701N17022020000000000000000000000000000000000000000000000000000000000000000100008740846873MARTA APARECIDA VENTURA PEREIRA DA SILVA0000000000000000000000000000000000000000Jardim Centen痙io0288214000000000S伋 PauloSPMARTA APARECIDA VENTURA PEREIRA DA SILVAI06000092
10205567782000169043709196412013003430000000000000000000000000000081961000000 00000000000000000000    000000501000000000000000000000000002500000000043701N17022020000000000000000000000000000000000000000000000000000000000000000100008740846873MARTA APARECIDA VENTURA PEREIRA DA SILVA0000000000000000000000000000000000000000Jardim Centen痙io0288214000000000S伋 PauloSPMARTA APARECIDA VENTURA PEREIRA DA SILVAI06000093
10205567782000169043709196412013003430000000000000000000000000000081972000000 00000000000000000000    000000501000000000020200101000000004200000000043701N17022020000000000000000000000000000000000000000000000000000000000000000100008740846873MARTA APARECIDA VENTURA PEREIRA DA SILVA0000000000000000000000000000000000000000Jardim Centen痙io0288214000000000S伋 PauloSPMARTA APARECIDA VENTURA PEREIRA DA SILVAI06000094
10205567782000169043709196412013003430000000000000000000000000000081983000000 00000000000000000000    000000501000000000020200201000000004200000000043701N17022020000000000000000000000000000000000000000000000000000000000000000100008740846873MARTA APARECIDA VENTURA PEREIRA DA SILVA0000000000000000000000000000000000000000Jardim Centen痙io0288214000000000S伋 PauloSPMARTA APARECIDA VENTURA PEREIRA DA SILVAI06000095
10205567782000169043709196412013003430000000000000000000000000000081994000000 00000000000000000000    000000501000000000020200301000000004200000000043701N17022020000000000000000000000000000000000000000000000000000000000000000100008740846873MARTA APARECIDA VENTURA PEREIRA DA SILVA0000000000000000000000000000000000000000Jardim Centen痙io0288214000000000S伋 PauloSPMARTA APARECIDA VENTURA PEREIRA DA SILVAI06000096
10205567782000169043709196412013003430000000000000000000000000000082005000000 00000000000000000000    000000501000000000020200401000000004200000000043701N17022020000000000000000000000000000000000000000000000000000000000000000100008740846873MARTA APARECIDA VENTURA PEREIRA DA SILVA0000000000000000000000000000000000000000Jardim Centen痙io0288214000000000S伋 PauloSPMARTA APARECIDA VENTURA PEREIRA DA SILVAI06000097
10205567782000169043709196412013003430000000000000000000000000000082016000000 00000000000000000000    000000501000000000020200501000000004200000000043701N17022020000000000000000000000000000000000000000000000000000000000000000100008740846873MARTA APARECIDA VENTURA PEREIRA DA SILVA0000000000000000000000000000000000000000Jardim Centen痙io0288214000000000S伋 PauloSPMARTA APARECIDA VENTURA PEREIRA DA SILVAI06000098
10205567782000169043709196412013003430000000000000000000000000000082027000000 00000000000000000000    000000501000000000020200601000000004200000000043701N17022020000000000000000000000000000000000000000000000000000000000000000100008740846873MARTA APARECIDA VENTURA PEREIRA DA SILVA0000000000000000000000000000000000000000Jardim Centen痙io0288214000000000S伋 PauloSPMARTA APARECIDA VENTURA PEREIRA DA SILVAI06000099
10205567782000169043709196412013003430000000000000000000000000000082038000000 00000000000000000000    000000501000000000020200701000000004200000000043701N17022020000000000000000000000000000000000000000000000000000000000000000100008740846873MARTA APARECIDA VENTURA PEREIRA DA SILVA0000000000000000000000000000000000000000Jardim Centen痙io0288214000000000S伋 PauloSPMARTA APARECIDA VENTURA PEREIRA DA SILVAI06000100
10205567782000169043709196412013003430000000000000000000000000000082049000000 00000000000000000000    000000501000000000020200801000000004200000000043701N17022020000000000000000000000000000000000000000000000000000000000000000100008740846873MARTA APARECIDA VENTURA PEREIRA DA SILVA0000000000000000000000000000000000000000Jardim Centen痙io0288214000000000S伋 PauloSPMARTA APARECIDA VENTURA PEREIRA DA SILVAI06000101
102055677820001690437091964120130034300000000000000000000000000000820510000000 00000000000000000000    000000501000000000020200901000000004200000000043701N17022020000000000000000000000000000000000000000000000000000000000000000100008740846873MARTA APARECIDA VENTURA PEREIRA DA SILVA0000000000000000000000000000000000000000Jardim Centen痙io0288214000000000S伋 PauloSPMARTA APARECIDA VENTURA PEREIRA DA SILVAI06000102
102055677820001690437091964120130034300000000000000000000000000000820611000000 00000000000000000000    000000501000000000020201001000000004200000000043701N17022020000000000000000000000000000000000000000000000000000000000000000100008740846873MARTA APARECIDA VENTURA PEREIRA DA SILVA0000000000000000000000000000000000000000Jardim Centen痙io0288214000000000S伋 PauloSPMARTA APARECIDA VENTURA PEREIRA DA SILVAI06000103
102055677820001690437091964120130034300000000000000000000000000000820712000000 00000000000000000000    000000501000000000020201101000000004200000000043701N17022020000000000000000000000000000000000000000000000000000000000000000100008740846873MARTA APARECIDA VENTURA PEREIRA DA SILVA0000000000000000000000000000000000000000Jardim Centen痙io0288214000000000S伋 PauloSPMARTA APARECIDA VENTURA PEREIRA DA SILVAI06000104
102055677820001690437091964120130034300000000000000000000000000000820813000000 00000000000000000000    000000501000000000020201201000000004200000000043701N17022020000000000000000000000000000000000000000000000000000000000000000100008740846873MARTA APARECIDA VENTURA PEREIRA DA SILVA0000000000000000000000000000000000000000Jardim Centen痙io0288214000000000S伋 PauloSPMARTA APARECIDA VENTURA PEREIRA DA SILVAI06000105
10205567782000169043709196412013003430000000000000000000000000000172091000000 00000000000000000000    000000501000000000000000000000000002500000000043701N1702202000000000000000000000000000000000000000000000000000000000000000010004443294589300000000000000000000BIANCA MOREIRA ARA：O0000000000000000000000000000000000000000Vila Penteado0286707000000000S伋 PauloSP0000000000BIANCA MOREIRA ARA：OI06000106
10205567782000169043709196412013003430000000000000000000000000000172102000000 00000000000000000000    000000501000000000020200110000000398760000000043701N1702202000000000000000000000000000000000000000000000000000000000000000010004443294589300000000000000000000BIANCA MOREIRA ARA：O0000000000000000000000000000000000000000Vila Penteado0286707000000000S伋 PauloSP0000000000BIANCA MOREIRA ARA：OI06000107
10205567782000169043709196412013003430000000000000000000000000000172113000000 00000000000000000000    000000501000000000020200210000000398760000000043701N1702202000000000000000000000000000000000000000000000000000000000000000010004443294589300000000000000000000BIANCA MOREIRA ARA：O0000000000000000000000000000000000000000Vila Penteado0286707000000000S伋 PauloSP0000000000BIANCA MOREIRA ARA：OI06000108
10205567782000169043709196412013003430000000000000000000000000000172124000000 00000000000000000000    000000501000000000020200310000000398760000000043701N1702202000000000000000000000000000000000000000000000000000000000000000010004443294589300000000000000000000BIANCA MOREIRA ARA：O0000000000000000000000000000000000000000Vila Penteado0286707000000000S伋 PauloSP0000000000BIANCA MOREIRA ARA：OI06000109
10205567782000169043709196412013003430000000000000000000000000000172135000000 00000000000000000000    000000501000000000020200410000000398760000000043701N1702202000000000000000000000000000000000000000000000000000000000000000010004443294589300000000000000000000BIANCA MOREIRA ARA：O0000000000000000000000000000000000000000Vila Penteado0286707000000000S伋 PauloSP0000000000BIANCA MOREIRA ARA：OI06000110
10205567782000169043709196412013003430000000000000000000000000000172146000000 00000000000000000000    000000501000000000020200510000000398760000000043701N1702202000000000000000000000000000000000000000000000000000000000000000010004443294589300000000000000000000BIANCA MOREIRA ARA：O0000000000000000000000000000000000000000Vila Penteado0286707000000000S伋 PauloSP0000000000BIANCA MOREIRA ARA：OI06000111
10205567782000169043709196412013003430000000000000000000000000000172157000000 00000000000000000000    000000501000000000020200610000000398760000000043701N1702202000000000000000000000000000000000000000000000000000000000000000010004443294589300000000000000000000BIANCA MOREIRA ARA：O0000000000000000000000000000000000000000Vila Penteado0286707000000000S伋 PauloSP0000000000BIANCA MOREIRA ARA：OI06000112
10205567782000169043709196412013003430000000000000000000000000000172168000000 00000000000000000000    000000501000000000020200710000000398760000000043701N1702202000000000000000000000000000000000000000000000000000000000000000010004443294589300000000000000000000BIANCA MOREIRA ARA：O0000000000000000000000000000000000000000Vila Penteado0286707000000000S伋 PauloSP0000000000BIANCA MOREIRA ARA：OI06000113
10205567782000169043709196412013003430000000000000000000000000000172179000000 00000000000000000000    000000501000000000020200810000000398760000000043701N1702202000000000000000000000000000000000000000000000000000000000000000010004443294589300000000000000000000BIANCA MOREIRA ARA：O0000000000000000000000000000000000000000Vila Penteado0286707000000000S伋 PauloSP0000000000BIANCA MOREIRA ARA：OI06000114
102055677820001690437091964120130034300000000000000000000000000001721810000000 00000000000000000000    000000501000000000020200910000000398760000000043701N1702202000000000000000000000000000000000000000000000000000000000000000010004443294589300000000000000000000BIANCA MOREIRA ARA：O0000000000000000000000000000000000000000Vila Penteado0286707000000000S伋 PauloSP0000000000BIANCA MOREIRA ARA：OI06000115
102055677820001690437091964120130034300000000000000000000000000001721911000000 00000000000000000000    000000501000000000020201010000000398760000000043701N1702202000000000000000000000000000000000000000000000000000000000000000010004443294589300000000000000000000BIANCA MOREIRA ARA：O0000000000000000000000000000000000000000Vila Penteado0286707000000000S伋 PauloSP0000000000BIANCA MOREIRA ARA：OI06000116
102055677820001690437091964120130034300000000000000000000000000001722012000000 00000000000000000000    000000501000000000020201110000000398760000000043701N1702202000000000000000000000000000000000000000000000000000000000000000010004443294589300000000000000000000BIANCA MOREIRA ARA：O0000000000000000000000000000000000000000Vila Penteado0286707000000000S伋 PauloSP0000000000BIANCA MOREIRA ARA：OI06000117
102055677820001690437091964120130034300000000000000000000000000001722113000000 00000000000000000000    000000501000000000020201210000000398760000000043701N1702202000000000000000000000000000000000000000000000000000000000000000010004443294589300000000000000000000BIANCA MOREIRA ARA：O0000000000000000000000000000000000000000Vila Penteado0286707000000000S伋 PauloSP0000000000BIANCA MOREIRA ARA：OI06000118
10205567782000169043709196412013003430000000000000000000000000000182221000000 00000000000000000000    000000501000000000000000000000000002500000000043701N1702202000000000000000000000000000000000000000000000000000000000000000010004321851483500000000000000000ALINE SANTANA DE TOLEDO0000000000000000000000000000000000000000Jardim Almanara0286314000000000S伋 PauloSP0000000ALINE SANTANA DE TOLEDOI06000119
10205567782000169043709196412013003430000000000000000000000000000182232000000 00000000000000000000    000000501000000000020200125000000398760000000043701N1702202000000000000000000000000000000000000000000000000000000000000000010004321851483500000000000000000ALINE SANTANA DE TOLEDO0000000000000000000000000000000000000000Jardim Almanara0286314000000000S伋 PauloSP0000000ALINE SANTANA DE TOLEDOI06000120
10205567782000169043709196412013003430000000000000000000000000000182243000000 00000000000000000000    000000501000000000020200225000000398760000000043701N1702202000000000000000000000000000000000000000000000000000000000000000010004321851483500000000000000000ALINE SANTANA DE TOLEDO0000000000000000000000000000000000000000Jardim Almanara0286314000000000S伋 PauloSP0000000ALINE SANTANA DE TOLEDOI06000121
10205567782000169043709196412013003430000000000000000000000000000182254000000 00000000000000000000    000000501000000000020200325000000398760000000043701N1702202000000000000000000000000000000000000000000000000000000000000000010004321851483500000000000000000ALINE SANTANA DE TOLEDO0000000000000000000000000000000000000000Jardim Almanara0286314000000000S伋 PauloSP0000000ALINE SANTANA DE TOLEDOI06000122
10205567782000169043709196412013003430000000000000000000000000000182265000000 00000000000000000000    000000501000000000020200425000000398760000000043701N1702202000000000000000000000000000000000000000000000000000000000000000010004321851483500000000000000000ALINE SANTANA DE TOLEDO0000000000000000000000000000000000000000Jardim Almanara0286314000000000S伋 PauloSP0000000ALINE SANTANA DE TOLEDOI06000123
10205567782000169043709196412013003430000000000000000000000000000182276000000 00000000000000000000    000000501000000000020200525000000398760000000043701N1702202000000000000000000000000000000000000000000000000000000000000000010004321851483500000000000000000ALINE SANTANA DE TOLEDO0000000000000000000000000000000000000000Jardim Almanara0286314000000000S伋 PauloSP0000000ALINE SANTANA DE TOLEDOI06000124
10205567782000169043709196412013003430000000000000000000000000000182287000000 00000000000000000000    000000501000000000020200625000000398760000000043701N1702202000000000000000000000000000000000000000000000000000000000000000010004321851483500000000000000000ALINE SANTANA DE TOLEDO0000000000000000000000000000000000000000Jardim Almanara0286314000000000S伋 PauloSP0000000ALINE SANTANA DE TOLEDOI06000125
10205567782000169043709196412013003430000000000000000000000000000182298000000 00000000000000000000    000000501000000000020200725000000398760000000043701N1702202000000000000000000000000000000000000000000000000000000000000000010004321851483500000000000000000ALINE SANTANA DE TOLEDO0000000000000000000000000000000000000000Jardim Almanara0286314000000000S伋 PauloSP0000000ALINE SANTANA DE TOLEDOI06000126
10205567782000169043709196412013003430000000000000000000000000000182309000000 00000000000000000000    000000501000000000020200825000000398760000000043701N1702202000000000000000000000000000000000000000000000000000000000000000010004321851483500000000000000000ALINE SANTANA DE TOLEDO0000000000000000000000000000000000000000Jardim Almanara0286314000000000S伋 PauloSP0000000ALINE SANTANA DE TOLEDOI06000127
102055677820001690437091964120130034300000000000000000000000000001823110000000 00000000000000000000    000000501000000000020200925000000398760000000043701N1702202000000000000000000000000000000000000000000000000000000000000000010004321851483500000000000000000ALINE SANTANA DE TOLEDO0000000000000000000000000000000000000000Jardim Almanara0286314000000000S伋 PauloSP0000000ALINE SANTANA DE TOLEDOI06000128
102055677820001690437091964120130034300000000000000000000000000001823211000000 00000000000000000000    000000501000000000020201025000000398760000000043701N1702202000000000000000000000000000000000000000000000000000000000000000010004321851483500000000000000000ALINE SANTANA DE TOLEDO0000000000000000000000000000000000000000Jardim Almanara0286314000000000S伋 PauloSP0000000ALINE SANTANA DE TOLEDOI06000129
102055677820001690437091964120130034300000000000000000000000000001823312000000 00000000000000000000    000000501000000000020201125000000398760000000043701N1702202000000000000000000000000000000000000000000000000000000000000000010004321851483500000000000000000ALINE SANTANA DE TOLEDO0000000000000000000000000000000000000000Jardim Almanara0286314000000000S伋 PauloSP0000000ALINE SANTANA DE TOLEDOI06000130
102055677820001690437091964120130034300000000000000000000000000001823413000000 00000000000000000000    000000501000000000020201225000000398760000000043701N1702202000000000000000000000000000000000000000000000000000000000000000010004321851483500000000000000000ALINE SANTANA DE TOLEDO0000000000000000000000000000000000000000Jardim Almanara0286314000000000S伋 PauloSP0000000ALINE SANTANA DE TOLEDOI06000131
10205567782000169043709196412013003430000000000000000000000000000212351000000 00000000000000000000    000000501000000000000000000000000002500000000043701N1702202000000000000000000000000000000000000000000000000000000000000000010002958010589800000000000000000MARIA IVANILCE OLIVEIRA0000000000000000000000000000000000000000Vila Am涇ia (Zona Norte)0000261800000000S伋 PauloSP0000000MARIA IVANILCE OLIVEIRAI06000132
10205567782000169043709196412013003430000000000000000000000000000212362000000 00000000000000000000    000000501000000000020200120000000348950000000043701N1702202000000000000000000000000000000000000000000000000000000000000000010002958010589800000000000000000MARIA IVANILCE OLIVEIRA0000000000000000000000000000000000000000Vila Am涇ia (Zona Norte)0000261800000000S伋 PauloSP0000000MARIA IVANILCE OLIVEIRAI06000133
10205567782000169043709196412013003430000000000000000000000000000212373000000 00000000000000000000    000000501000000000020200220000000348950000000043701N1702202000000000000000000000000000000000000000000000000000000000000000010002958010589800000000000000000MARIA IVANILCE OLIVEIRA0000000000000000000000000000000000000000Vila Am涇ia (Zona Norte)0000261800000000S伋 PauloSP0000000MARIA IVANILCE OLIVEIRAI06000134
10205567782000169043709196412013003430000000000000000000000000000212384000000 00000000000000000000    000000501000000000020200320000000348950000000043701N1702202000000000000000000000000000000000000000000000000000000000000000010002958010589800000000000000000MARIA IVANILCE OLIVEIRA0000000000000000000000000000000000000000Vila Am涇ia (Zona Norte)0000261800000000S伋 PauloSP0000000MARIA IVANILCE OLIVEIRAI06000135
10205567782000169043709196412013003430000000000000000000000000000212395000000 00000000000000000000    000000501000000000020200420000000348950000000043701N1702202000000000000000000000000000000000000000000000000000000000000000010002958010589800000000000000000MARIA IVANILCE OLIVEIRA0000000000000000000000000000000000000000Vila Am涇ia (Zona Norte)0000261800000000S伋 PauloSP0000000MARIA IVANILCE OLIVEIRAI06000136
10205567782000169043709196412013003430000000000000000000000000000212406000000 00000000000000000000    000000501000000000020200520000000348950000000043701N1702202000000000000000000000000000000000000000000000000000000000000000010002958010589800000000000000000MARIA IVANILCE OLIVEIRA0000000000000000000000000000000000000000Vila Am涇ia (Zona Norte)0000261800000000S伋 PauloSP0000000MARIA IVANILCE OLIVEIRAI06000137
10205567782000169043709196412013003430000000000000000000000000000212417000000 00000000000000000000    000000501000000000020200620000000348950000000043701N1702202000000000000000000000000000000000000000000000000000000000000000010002958010589800000000000000000MARIA IVANILCE OLIVEIRA0000000000000000000000000000000000000000Vila Am涇ia (Zona Norte)0000261800000000S伋 PauloSP0000000MARIA IVANILCE OLIVEIRAI06000138
10205567782000169043709196412013003430000000000000000000000000000212428000000 00000000000000000000    000000501000000000020200720000000348950000000043701N1702202000000000000000000000000000000000000000000000000000000000000000010002958010589800000000000000000MARIA IVANILCE OLIVEIRA0000000000000000000000000000000000000000Vila Am涇ia (Zona Norte)0000261800000000S伋 PauloSP0000000MARIA IVANILCE OLIVEIRAI06000139
10205567782000169043709196412013003430000000000000000000000000000212439000000 00000000000000000000    000000501000000000020200820000000348950000000043701N1702202000000000000000000000000000000000000000000000000000000000000000010002958010589800000000000000000MARIA IVANILCE OLIVEIRA0000000000000000000000000000000000000000Vila Am涇ia (Zona Norte)0000261800000000S伋 PauloSP0000000MARIA IVANILCE OLIVEIRAI06000140
102055677820001690437091964120130034300000000000000000000000000002124410000000 00000000000000000000    000000501000000000020200920000000348950000000043701N1702202000000000000000000000000000000000000000000000000000000000000000010002958010589800000000000000000MARIA IVANILCE OLIVEIRA0000000000000000000000000000000000000000Vila Am涇ia (Zona Norte)0000261800000000S伋 PauloSP0000000MARIA IVANILCE OLIVEIRAI06000141
102055677820001690437091964120130034300000000000000000000000000002124511000000 00000000000000000000    000000501000000000020201020000000348950000000043701N1702202000000000000000000000000000000000000000000000000000000000000000010002958010589800000000000000000MARIA IVANILCE OLIVEIRA0000000000000000000000000000000000000000Vila Am涇ia (Zona Norte)0000261800000000S伋 PauloSP0000000MARIA IVANILCE OLIVEIRAI06000142
102055677820001690437091964120130034300000000000000000000000000002124612000000 00000000000000000000    000000501000000000020201120000000348950000000043701N1702202000000000000000000000000000000000000000000000000000000000000000010002958010589800000000000000000MARIA IVANILCE OLIVEIRA0000000000000000000000000000000000000000Vila Am涇ia (Zona Norte)0000261800000000S伋 PauloSP0000000MARIA IVANILCE OLIVEIRAI06000143
102055677820001690437091964120130034300000000000000000000000000002124713000000 00000000000000000000    000000501000000000020201220000000348950000000043701N1702202000000000000000000000000000000000000000000000000000000000000000010002958010589800000000000000000MARIA IVANILCE OLIVEIRA0000000000000000000000000000000000000000Vila Am涇ia (Zona Norte)0000261800000000S伋 PauloSP0000000MARIA IVANILCE OLIVEIRAI06000144
10205567782000169043709196412013003430000000000000000000000000000502481000000 00000000000000000000    000000501000000000000000000000000002500000000043701N1702202000000000000000000000000000000000000000000000000000000000000000010004496000580700000000000000000000Karina da Cunha Sena0000000000000000000000000000000000000000Jardim Vista Alegre0287815000000000S伋 PauloSP0000000000Karina da Cunha SenaI06000145
10205567782000169043709196412013003430000000000000000000000000000502492000000 00000000000000000000    000000501000000000020200110000000007200000000043701N1702202000000000000000000000000000000000000000000000000000000000000000010004496000580700000000000000000000Karina da Cunha Sena0000000000000000000000000000000000000000Jardim Vista Alegre0287815000000000S伋 PauloSP0000000000Karina da Cunha SenaI06000146
10205567782000169043709196412013003430000000000000000000000000000502503000000 00000000000000000000    000000501000000000020200210000000007200000000043701N1702202000000000000000000000000000000000000000000000000000000000000000010004496000580700000000000000000000Karina da Cunha Sena0000000000000000000000000000000000000000Jardim Vista Alegre0287815000000000S伋 PauloSP0000000000Karina da Cunha SenaI06000147
10205567782000169043709196412013003430000000000000000000000000000502514000000 00000000000000000000    000000501000000000020200310000000007200000000043701N1702202000000000000000000000000000000000000000000000000000000000000000010004496000580700000000000000000000Karina da Cunha Sena0000000000000000000000000000000000000000Jardim Vista Alegre0287815000000000S伋 PauloSP0000000000Karina da Cunha SenaI06000148
10205567782000169043709196412013003430000000000000000000000000000502525000000 00000000000000000000    000000501000000000020200410000000007200000000043701N1702202000000000000000000000000000000000000000000000000000000000000000010004496000580700000000000000000000Karina da Cunha Sena0000000000000000000000000000000000000000Jardim Vista Alegre0287815000000000S伋 PauloSP0000000000Karina da Cunha SenaI06000149
10205567782000169043709196412013003430000000000000000000000000000502536000000 00000000000000000000    000000501000000000020200510000000007200000000043701N1702202000000000000000000000000000000000000000000000000000000000000000010004496000580700000000000000000000Karina da Cunha Sena0000000000000000000000000000000000000000Jardim Vista Alegre0287815000000000S伋 PauloSP0000000000Karina da Cunha SenaI06000150
10205567782000169043709196412013003430000000000000000000000000000502547000000 00000000000000000000    000000501000000000020200610000000007200000000043701N1702202000000000000000000000000000000000000000000000000000000000000000010004496000580700000000000000000000Karina da Cunha Sena0000000000000000000000000000000000000000Jardim Vista Alegre0287815000000000S伋 PauloSP0000000000Karina da Cunha SenaI06000151
10205567782000169043709196412013003430000000000000000000000000000502558000000 00000000000000000000    000000501000000000020200710000000007200000000043701N1702202000000000000000000000000000000000000000000000000000000000000000010004496000580700000000000000000000Karina da Cunha Sena0000000000000000000000000000000000000000Jardim Vista Alegre0287815000000000S伋 PauloSP0000000000Karina da Cunha SenaI06000152
10205567782000169043709196412013003430000000000000000000000000000502569000000 00000000000000000000    000000501000000000020200810000000007200000000043701N1702202000000000000000000000000000000000000000000000000000000000000000010004496000580700000000000000000000Karina da Cunha Sena0000000000000000000000000000000000000000Jardim Vista Alegre0287815000000000S伋 PauloSP0000000000Karina da Cunha SenaI06000153
102055677820001690437091964120130034300000000000000000000000000005025710000000 00000000000000000000    000000501000000000020200910000000007200000000043701N1702202000000000000000000000000000000000000000000000000000000000000000010004496000580700000000000000000000Karina da Cunha Sena0000000000000000000000000000000000000000Jardim Vista Alegre0287815000000000S伋 PauloSP0000000000Karina da Cunha SenaI06000154
102055677820001690437091964120130034300000000000000000000000000005025811000000 00000000000000000000    000000501000000000020201010000000007200000000043701N1702202000000000000000000000000000000000000000000000000000000000000000010004496000580700000000000000000000Karina da Cunha Sena0000000000000000000000000000000000000000Jardim Vista Alegre0287815000000000S伋 PauloSP0000000000Karina da Cunha SenaI06000155
102055677820001690437091964120130034300000000000000000000000000005025912000000 00000000000000000000    000000501000000000020201110000000007200000000043701N1702202000000000000000000000000000000000000000000000000000000000000000010004496000580700000000000000000000Karina da Cunha Sena0000000000000000000000000000000000000000Jardim Vista Alegre0287815000000000S伋 PauloSP0000000000Karina da Cunha SenaI06000156
102055677820001690437091964120130034300000000000000000000000000005026013000000 00000000000000000000    000000501000000000020201210000000007200000000043701N1702202000000000000000000000000000000000000000000000000000000000000000010004496000580700000000000000000000Karina da Cunha Sena0000000000000000000000000000000000000000Jardim Vista Alegre0287815000000000S伋 PauloSP0000000000Karina da Cunha SenaI06000157
10205567782000169043709196412013003430000000000000000000000000000522611000000 00000000000000000000    000000501000000000000000000000000002500000000043701N17022020000000000000000000000000000000000000000000000000000000000000000100038118391876000000000MICHELE CRISTINA ALVES DA SILVA0000000000000000000000000000000000000000Vila dos Andrades0261001000000000S伋 PauloSPMICHELE CRISTINA ALVES DA SILVAI06000158
10205567782000169043709196412013003430000000000000000000000000000522622000000 00000000000000000000    000000501000000000020200115000000006300000000043701N17022020000000000000000000000000000000000000000000000000000000000000000100038118391876000000000MICHELE CRISTINA ALVES DA SILVA0000000000000000000000000000000000000000Vila dos Andrades0261001000000000S伋 PauloSPMICHELE CRISTINA ALVES DA SILVAI06000159
10205567782000169043709196412013003430000000000000000000000000000522633000000 00000000000000000000    000000501000000000020200215000000006300000000043701N17022020000000000000000000000000000000000000000000000000000000000000000100038118391876000000000MICHELE CRISTINA ALVES DA SILVA0000000000000000000000000000000000000000Vila dos Andrades0261001000000000S伋 PauloSPMICHELE CRISTINA ALVES DA SILVAI06000160
10205567782000169043709196412013003430000000000000000000000000000522644000000 00000000000000000000    000000501000000000020200315000000006300000000043701N17022020000000000000000000000000000000000000000000000000000000000000000100038118391876000000000MICHELE CRISTINA ALVES DA SILVA0000000000000000000000000000000000000000Vila dos Andrades0261001000000000S伋 PauloSPMICHELE CRISTINA ALVES DA SILVAI06000161
10205567782000169043709196412013003430000000000000000000000000000522655000000 00000000000000000000    000000501000000000000000000000000006300000000043701N17022020000000000000000000000000000000000000000000000000000000000000000100038118391876000000000MICHELE CRISTINA ALVES DA SILVA0000000000000000000000000000000000000000Vila dos Andrades0261001000000000S伋 PauloSPMICHELE CRISTINA ALVES DA SILVAI06000162
10205567782000169043709196412013003430000000000000000000000000000522666000000 00000000000000000000    000000501000000000020200515000000006300000000043701N17022020000000000000000000000000000000000000000000000000000000000000000100038118391876000000000MICHELE CRISTINA ALVES DA SILVA0000000000000000000000000000000000000000Vila dos Andrades0261001000000000S伋 PauloSPMICHELE CRISTINA ALVES DA SILVAI06000163
10205567782000169043709196412013003430000000000000000000000000000522677000000 00000000000000000000    000000501000000000020200615000000006300000000043701N17022020000000000000000000000000000000000000000000000000000000000000000100038118391876000000000MICHELE CRISTINA ALVES DA SILVA0000000000000000000000000000000000000000Vila dos Andrades0261001000000000S伋 PauloSPMICHELE CRISTINA ALVES DA SILVAI06000164
10205567782000169043709196412013003430000000000000000000000000000522688000000 00000000000000000000    000000501000000000020200715000000006300000000043701N17022020000000000000000000000000000000000000000000000000000000000000000100038118391876000000000MICHELE CRISTINA ALVES DA SILVA0000000000000000000000000000000000000000Vila dos Andrades0261001000000000S伋 PauloSPMICHELE CRISTINA ALVES DA SILVAI06000165
10205567782000169043709196412013003430000000000000000000000000000522699000000 00000000000000000000    000000501000000000020200815000000006300000000043701N17022020000000000000000000000000000000000000000000000000000000000000000100038118391876000000000MICHELE CRISTINA ALVES DA SILVA0000000000000000000000000000000000000000Vila dos Andrades0261001000000000S伋 PauloSPMICHELE CRISTINA ALVES DA SILVAI06000166
102055677820001690437091964120130034300000000000000000000000000005227010000000 00000000000000000000    000000501000000000020200915000000006300000000043701N17022020000000000000000000000000000000000000000000000000000000000000000100038118391876000000000MICHELE CRISTINA ALVES DA SILVA0000000000000000000000000000000000000000Vila dos Andrades0261001000000000S伋 PauloSPMICHELE CRISTINA ALVES DA SILVAI06000167
102055677820001690437091964120130034300000000000000000000000000005227111000000 00000000000000000000    000000501000000000020201015000000006300000000043701N17022020000000000000000000000000000000000000000000000000000000000000000100038118391876000000000MICHELE CRISTINA ALVES DA SILVA0000000000000000000000000000000000000000Vila dos Andrades0261001000000000S伋 PauloSPMICHELE CRISTINA ALVES DA SILVAI06000168
102055677820001690437091964120130034300000000000000000000000000005227212000000 00000000000000000000    000000501000000000020201115000000006300000000043701N17022020000000000000000000000000000000000000000000000000000000000000000100038118391876000000000MICHELE CRISTINA ALVES DA SILVA0000000000000000000000000000000000000000Vila dos Andrades0261001000000000S伋 PauloSPMICHELE CRISTINA ALVES DA SILVAI06000169
102055677820001690437091964120130034300000000000000000000000000005227313000000 00000000000000000000    000000501000000000020201215000000006300000000043701N17022020000000000000000000000000000000000000000000000000000000000000000100038118391876000000000MICHELE CRISTINA ALVES DA SILVA0000000000000000000000000000000000000000Vila dos Andrades0261001000000000S伋 PauloSPMICHELE CRISTINA ALVES DA SILVAI06000170
10205567782000169043709196412013003430000000000000000000000000000262741000000 00000000000000000000    000000501000000000000000000000000002500000000043701N170220200000000000000000000000000000000000000000000000000000000000000001000388231378100000000000000000000ANA CLAUDIA DO AMARAL0000000000000000000000000000000000000000000Vila Rica0286109000000000S伋 PauloSP000000000ANA CLAUDIA DO AMARALI06000171
10205567782000169043709196412013003430000000000000000000000000000262752000000 00000000000000000000    000000501000000000020200110000000026420000000043701N170220200000000000000000000000000000000000000000000000000000000000000001000388231378100000000000000000000ANA CLAUDIA DO AMARAL0000000000000000000000000000000000000000000Vila Rica0286109000000000S伋 PauloSP000000000ANA CLAUDIA DO AMARALI06000172
10205567782000169043709196412013003430000000000000000000000000000262763000000 00000000000000000000    000000501000000000020200210000000026420000000043701N170220200000000000000000000000000000000000000000000000000000000000000001000388231378100000000000000000000ANA CLAUDIA DO AMARAL0000000000000000000000000000000000000000000Vila Rica0286109000000000S伋 PauloSP000000000ANA CLAUDIA DO AMARALI06000173
10205567782000169043709196412013003430000000000000000000000000000262774000000 00000000000000000000    000000501000000000020200310000000026420000000043701N170220200000000000000000000000000000000000000000000000000000000000000001000388231378100000000000000000000ANA CLAUDIA DO AMARAL0000000000000000000000000000000000000000000Vila Rica0286109000000000S伋 PauloSP000000000ANA CLAUDIA DO AMARALI06000174
10205567782000169043709196412013003430000000000000000000000000000262785000000 00000000000000000000    000000501000000000020200410000000026420000000043701N170220200000000000000000000000000000000000000000000000000000000000000001000388231378100000000000000000000ANA CLAUDIA DO AMARAL0000000000000000000000000000000000000000000Vila Rica0286109000000000S伋 PauloSP000000000ANA CLAUDIA DO AMARALI06000175
10205567782000169043709196412013003430000000000000000000000000000262796000000 00000000000000000000    000000501000000000020200510000000026420000000043701N170220200000000000000000000000000000000000000000000000000000000000000001000388231378100000000000000000000ANA CLAUDIA DO AMARAL0000000000000000000000000000000000000000000Vila Rica0286109000000000S伋 PauloSP000000000ANA CLAUDIA DO AMARALI06000176
10205567782000169043709196412013003430000000000000000000000000000262807000000 00000000000000000000    000000501000000000020200610000000026420000000043701N170220200000000000000000000000000000000000000000000000000000000000000001000388231378100000000000000000000ANA CLAUDIA DO AMARAL0000000000000000000000000000000000000000000Vila Rica0286109000000000S伋 PauloSP000000000ANA CLAUDIA DO AMARALI06000177
10205567782000169043709196412013003430000000000000000000000000000262818000000 00000000000000000000    000000501000000000020200710000000026420000000043701N170220200000000000000000000000000000000000000000000000000000000000000001000388231378100000000000000000000ANA CLAUDIA DO AMARAL0000000000000000000000000000000000000000000Vila Rica0286109000000000S伋 PauloSP000000000ANA CLAUDIA DO AMARALI06000178
10205567782000169043709196412013003430000000000000000000000000000262829000000 00000000000000000000    000000501000000000020200810000000026420000000043701N170220200000000000000000000000000000000000000000000000000000000000000001000388231378100000000000000000000ANA CLAUDIA DO AMARAL0000000000000000000000000000000000000000000Vila Rica0286109000000000S伋 PauloSP000000000ANA CLAUDIA DO AMARALI06000179
102055677820001690437091964120130034300000000000000000000000000002628310000000 00000000000000000000    000000501000000000020200910000000026420000000043701N170220200000000000000000000000000000000000000000000000000000000000000001000388231378100000000000000000000ANA CLAUDIA DO AMARAL0000000000000000000000000000000000000000000Vila Rica0286109000000000S伋 PauloSP000000000ANA CLAUDIA DO AMARALI06000180
102055677820001690437091964120130034300000000000000000000000000002628411000000 00000000000000000000    000000501000000000020201010000000026420000000043701N170220200000000000000000000000000000000000000000000000000000000000000001000388231378100000000000000000000ANA CLAUDIA DO AMARAL0000000000000000000000000000000000000000000Vila Rica0286109000000000S伋 PauloSP000000000ANA CLAUDIA DO AMARALI06000181
102055677820001690437091964120130034300000000000000000000000000002628512000000 00000000000000000000    000000501000000000020201110000000026420000000043701N170220200000000000000000000000000000000000000000000000000000000000000001000388231378100000000000000000000ANA CLAUDIA DO AMARAL0000000000000000000000000000000000000000000Vila Rica0286109000000000S伋 PauloSP000000000ANA CLAUDIA DO AMARALI06000182
102055677820001690437091964120130034300000000000000000000000000002628613000000 00000000000000000000    000000501000000000020201210000000026420000000043701N170220200000000000000000000000000000000000000000000000000000000000000001000388231378100000000000000000000ANA CLAUDIA DO AMARAL0000000000000000000000000000000000000000000Vila Rica0286109000000000S伋 PauloSP000000000ANA CLAUDIA DO AMARALI06000183
10205567782000169043709196412013003430000000000000000000000000000112871000000 00000000000000000000    000000501000000000000000000000000002500000000043701N170220200000000000000000000000000000000000000000000000000000000000000001000460366718300000000000000KAMILA PATR펚IA SILVA BERING000000000000000000000000000000000000000000Vila Souza0286005000000000S伋 PauloSP000KAMILA PATR펚IA SILVA BERINGI06000184
10205567782000169043709196412013003430000000000000000000000000000112882000000 00000000000000000000    000000501000000000020200110000000498460000000043701N170220200000000000000000000000000000000000000000000000000000000000000001000460366718300000000000000KAMILA PATR펚IA SILVA BERING000000000000000000000000000000000000000000Vila Souza0286005000000000S伋 PauloSP000KAMILA PATR펚IA SILVA BERINGI06000185
10205567782000169043709196412013003430000000000000000000000000000112893000000 00000000000000000000    000000501000000000020200210000000498460000000043701N170220200000000000000000000000000000000000000000000000000000000000000001000460366718300000000000000KAMILA PATR펚IA SILVA BERING000000000000000000000000000000000000000000Vila Souza0286005000000000S伋 PauloSP000KAMILA PATR펚IA SILVA BERINGI06000186
10205567782000169043709196412013003430000000000000000000000000000112904000000 00000000000000000000    000000501000000000020200310000000498460000000043701N170220200000000000000000000000000000000000000000000000000000000000000001000460366718300000000000000KAMILA PATR펚IA SILVA BERING000000000000000000000000000000000000000000Vila Souza0286005000000000S伋 PauloSP000KAMILA PATR펚IA SILVA BERINGI06000187
10205567782000169043709196412013003430000000000000000000000000000112915000000 00000000000000000000    000000501000000000020200410000000498460000000043701N170220200000000000000000000000000000000000000000000000000000000000000001000460366718300000000000000KAMILA PATR펚IA SILVA BERING000000000000000000000000000000000000000000Vila Souza0286005000000000S伋 PauloSP000KAMILA PATR펚IA SILVA BERINGI06000188
10205567782000169043709196412013003430000000000000000000000000000112926000000 00000000000000000000    000000501000000000020200510000000498460000000043701N170220200000000000000000000000000000000000000000000000000000000000000001000460366718300000000000000KAMILA PATR펚IA SILVA BERING000000000000000000000000000000000000000000Vila Souza0286005000000000S伋 PauloSP000KAMILA PATR펚IA SILVA BERINGI06000189
10205567782000169043709196412013003430000000000000000000000000000112937000000 00000000000000000000    000000501000000000020200610000000498460000000043701N170220200000000000000000000000000000000000000000000000000000000000000001000460366718300000000000000KAMILA PATR펚IA SILVA BERING000000000000000000000000000000000000000000Vila Souza0286005000000000S伋 PauloSP000KAMILA PATR펚IA SILVA BERINGI06000190
10205567782000169043709196412013003430000000000000000000000000000112948000000 00000000000000000000    000000501000000000020200710000000498460000000043701N170220200000000000000000000000000000000000000000000000000000000000000001000460366718300000000000000KAMILA PATR펚IA SILVA BERING000000000000000000000000000000000000000000Vila Souza0286005000000000S伋 PauloSP000KAMILA PATR펚IA SILVA BERINGI06000191
10205567782000169043709196412013003430000000000000000000000000000112959000000 00000000000000000000    000000501000000000020200810000000498460000000043701N170220200000000000000000000000000000000000000000000000000000000000000001000460366718300000000000000KAMILA PATR펚IA SILVA BERING000000000000000000000000000000000000000000Vila Souza0286005000000000S伋 PauloSP000KAMILA PATR펚IA SILVA BERINGI06000192
102055677820001690437091964120130034300000000000000000000000000001129610000000 00000000000000000000    000000501000000000020200910000000498460000000043701N170220200000000000000000000000000000000000000000000000000000000000000001000460366718300000000000000KAMILA PATR펚IA SILVA BERING000000000000000000000000000000000000000000Vila Souza0286005000000000S伋 PauloSP000KAMILA PATR펚IA SILVA BERINGI06000193
102055677820001690437091964120130034300000000000000000000000000001129711000000 00000000000000000000    000000501000000000020201010000000498460000000043701N170220200000000000000000000000000000000000000000000000000000000000000001000460366718300000000000000KAMILA PATR펚IA SILVA BERING000000000000000000000000000000000000000000Vila Souza0286005000000000S伋 PauloSP000KAMILA PATR펚IA SILVA BERINGI06000194
102055677820001690437091964120130034300000000000000000000000000001129812000000 00000000000000000000    000000501000000000020201110000000498460000000043701N170220200000000000000000000000000000000000000000000000000000000000000001000460366718300000000000000KAMILA PATR펚IA SILVA BERING000000000000000000000000000000000000000000Vila Souza0286005000000000S伋 PauloSP000KAMILA PATR펚IA SILVA BERINGI06000195
102055677820001690437091964120130034300000000000000000000000000001129913000000 00000000000000000000    000000501000000000020201210000000498460000000043701N170220200000000000000000000000000000000000000000000000000000000000000001000460366718300000000000000KAMILA PATR펚IA SILVA BERING000000000000000000000000000000000000000000Vila Souza0286005000000000S伋 PauloSP000KAMILA PATR펚IA SILVA BERINGI06000196
10205567782000169043709196412013003430000000000000000000000000000473001000000 00000000000000000000    000000501000000000000000000000000002500000000043701N17022020000000000000000000000000000000000000000000000000000000000000000100089896670544000IACIANA PEREIRA DO NASCIMENTO BEZERRA0000000000000000000000000000000000000000Jardim Alvina0299128000000000S伋 PauloSPIACIANA PEREIRA DO NASCIMENTO BEZERRAI06000197
10205567782000169043709196412013003430000000000000000000000000000473012000000 00000000000000000000    000000501000000000020200115000000006300000000043701N17022020000000000000000000000000000000000000000000000000000000000000000100089896670544000IACIANA PEREIRA DO NASCIMENTO BEZERRA0000000000000000000000000000000000000000Jardim Alvina0299128000000000S伋 PauloSPIACIANA PEREIRA DO NASCIMENTO BEZERRAI06000198
10205567782000169043709196412013003430000000000000000000000000000473023000000 00000000000000000000    000000501000000000020200215000000006300000000043701N17022020000000000000000000000000000000000000000000000000000000000000000100089896670544000IACIANA PEREIRA DO NASCIMENTO BEZERRA0000000000000000000000000000000000000000Jardim Alvina0299128000000000S伋 PauloSPIACIANA PEREIRA DO NASCIMENTO BEZERRAI06000199
10205567782000169043709196412013003430000000000000000000000000000473034000000 00000000000000000000    000000501000000000020200315000000006300000000043701N17022020000000000000000000000000000000000000000000000000000000000000000100089896670544000IACIANA PEREIRA DO NASCIMENTO BEZERRA0000000000000000000000000000000000000000Jardim Alvina0299128000000000S伋 PauloSPIACIANA PEREIRA DO NASCIMENTO BEZERRAI06000200
10205567782000169043709196412013003430000000000000000000000000000473045000000 00000000000000000000    000000501000000000020200415000000006300000000043701N17022020000000000000000000000000000000000000000000000000000000000000000100089896670544000IACIANA PEREIRA DO NASCIMENTO BEZERRA0000000000000000000000000000000000000000Jardim Alvina0299128000000000S伋 PauloSPIACIANA PEREIRA DO NASCIMENTO BEZERRAI06000201
10205567782000169043709196412013003430000000000000000000000000000473056000000 00000000000000000000    000000501000000000020200515000000006300000000043701N17022020000000000000000000000000000000000000000000000000000000000000000100089896670544000IACIANA PEREIRA DO NASCIMENTO BEZERRA0000000000000000000000000000000000000000Jardim Alvina0299128000000000S伋 PauloSPIACIANA PEREIRA DO NASCIMENTO BEZERRAI06000202
10205567782000169043709196412013003430000000000000000000000000000473067000000 00000000000000000000    000000501000000000020200615000000006300000000043701N17022020000000000000000000000000000000000000000000000000000000000000000100089896670544000IACIANA PEREIRA DO NASCIMENTO BEZERRA0000000000000000000000000000000000000000Jardim Alvina0299128000000000S伋 PauloSPIACIANA PEREIRA DO NASCIMENTO BEZERRAI06000203
10205567782000169043709196412013003430000000000000000000000000000473078000000 00000000000000000000    000000501000000000020200715000000006300000000043701N17022020000000000000000000000000000000000000000000000000000000000000000100089896670544000IACIANA PEREIRA DO NASCIMENTO BEZERRA0000000000000000000000000000000000000000Jardim Alvina0299128000000000S伋 PauloSPIACIANA PEREIRA DO NASCIMENTO BEZERRAI06000204
10205567782000169043709196412013003430000000000000000000000000000473089000000 00000000000000000000    000000501000000000020200815000000006300000000043701N17022020000000000000000000000000000000000000000000000000000000000000000100089896670544000IACIANA PEREIRA DO NASCIMENTO BEZERRA0000000000000000000000000000000000000000Jardim Alvina0299128000000000S伋 PauloSPIACIANA PEREIRA DO NASCIMENTO BEZERRAI06000205
102055677820001690437091964120130034300000000000000000000000000004730910000000 00000000000000000000    000000501000000000020200915000000006300000000043701N17022020000000000000000000000000000000000000000000000000000000000000000100089896670544000IACIANA PEREIRA DO NASCIMENTO BEZERRA0000000000000000000000000000000000000000Jardim Alvina0299128000000000S伋 PauloSPIACIANA PEREIRA DO NASCIMENTO BEZERRAI06000206
102055677820001690437091964120130034300000000000000000000000000004731011000000 00000000000000000000    000000501000000000020201015000000006300000000043701N17022020000000000000000000000000000000000000000000000000000000000000000100089896670544000IACIANA PEREIRA DO NASCIMENTO BEZERRA0000000000000000000000000000000000000000Jardim Alvina0299128000000000S伋 PauloSPIACIANA PEREIRA DO NASCIMENTO BEZERRAI06000207
102055677820001690437091964120130034300000000000000000000000000004731112000000 00000000000000000000    000000501000000000020201115000000006300000000043701N17022020000000000000000000000000000000000000000000000000000000000000000100089896670544000IACIANA PEREIRA DO NASCIMENTO BEZERRA0000000000000000000000000000000000000000Jardim Alvina0299128000000000S伋 PauloSPIACIANA PEREIRA DO NASCIMENTO BEZERRAI06000208
102055677820001690437091964120130034300000000000000000000000000004731213000000 00000000000000000000    000000501000000000020201215000000006300000000043701N17022020000000000000000000000000000000000000000000000000000000000000000100089896670544000IACIANA PEREIRA DO NASCIMENTO BEZERRA0000000000000000000000000000000000000000Jardim Alvina0299128000000000S伋 PauloSPIACIANA PEREIRA DO NASCIMENTO BEZERRAI06000209
10205567782000169043709196412013003430000000000000000000000000000353131000000 00000000000000000000    000000501000000000000000000000000002500000000043701N170220200000000000000000000000000000000000000000000000000000000000000001000379945678350000000000000000000BRUNO EDDINE DA SILVA0000000000000000000000000000000000000000Vila Penteado0286610000000000S伋 PauloSP000000000BRUNO EDDINE DA SILVAI06000210
10205567782000169043709196412013003430000000000000000000000000000353142000000 00000000000000000000    000000501000000000020200110000000687880000000043701N170220200000000000000000000000000000000000000000000000000000000000000001000379945678350000000000000000000BRUNO EDDINE DA SILVA0000000000000000000000000000000000000000Vila Penteado0286610000000000S伋 PauloSP000000000BRUNO EDDINE DA SILVAI06000211
10205567782000169043709196412013003430000000000000000000000000000353153000000 00000000000000000000    000000501000000000020200210000000687880000000043701N170220200000000000000000000000000000000000000000000000000000000000000001000379945678350000000000000000000BRUNO EDDINE DA SILVA0000000000000000000000000000000000000000Vila Penteado0286610000000000S伋 PauloSP000000000BRUNO EDDINE DA SILVAI06000212
10205567782000169043709196412013003430000000000000000000000000000353164000000 00000000000000000000    000000501000000000020200310000000687880000000043701N170220200000000000000000000000000000000000000000000000000000000000000001000379945678350000000000000000000BRUNO EDDINE DA SILVA0000000000000000000000000000000000000000Vila Penteado0286610000000000S伋 PauloSP000000000BRUNO EDDINE DA SILVAI06000213
10205567782000169043709196412013003430000000000000000000000000000353175000000 00000000000000000000    000000501000000000020200410000000687880000000043701N170220200000000000000000000000000000000000000000000000000000000000000001000379945678350000000000000000000BRUNO EDDINE DA SILVA0000000000000000000000000000000000000000Vila Penteado0286610000000000S伋 PauloSP000000000BRUNO EDDINE DA SILVAI06000214
10205567782000169043709196412013003430000000000000000000000000000353186000000 00000000000000000000    000000501000000000020200510000000687880000000043701N170220200000000000000000000000000000000000000000000000000000000000000001000379945678350000000000000000000BRUNO EDDINE DA SILVA0000000000000000000000000000000000000000Vila Penteado0286610000000000S伋 PauloSP000000000BRUNO EDDINE DA SILVAI06000215
10205567782000169043709196412013003430000000000000000000000000000353197000000 00000000000000000000    000000501000000000020200610000000687880000000043701N170220200000000000000000000000000000000000000000000000000000000000000001000379945678350000000000000000000BRUNO EDDINE DA SILVA0000000000000000000000000000000000000000Vila Penteado0286610000000000S伋 PauloSP000000000BRUNO EDDINE DA SILVAI06000216
10205567782000169043709196412013003430000000000000000000000000000353208000000 00000000000000000000    000000501000000000020200710000000687880000000043701N170220200000000000000000000000000000000000000000000000000000000000000001000379945678350000000000000000000BRUNO EDDINE DA SILVA0000000000000000000000000000000000000000Vila Penteado0286610000000000S伋 PauloSP000000000BRUNO EDDINE DA SILVAI06000217
10205567782000169043709196412013003430000000000000000000000000000353219000000 00000000000000000000    000000501000000000020200810000000687880000000043701N170220200000000000000000000000000000000000000000000000000000000000000001000379945678350000000000000000000BRUNO EDDINE DA SILVA0000000000000000000000000000000000000000Vila Penteado0286610000000000S伋 PauloSP000000000BRUNO EDDINE DA SILVAI06000218
102055677820001690437091964120130034300000000000000000000000000003532210000000 00000000000000000000    000000501000000000020200910000000687880000000043701N170220200000000000000000000000000000000000000000000000000000000000000001000379945678350000000000000000000BRUNO EDDINE DA SILVA0000000000000000000000000000000000000000Vila Penteado0286610000000000S伋 PauloSP000000000BRUNO EDDINE DA SILVAI06000219
102055677820001690437091964120130034300000000000000000000000000003532311000000 00000000000000000000    000000501000000000000000000000000687880000000043701N170220200000000000000000000000000000000000000000000000000000000000000001000379945678350000000000000000000BRUNO EDDINE DA SILVA0000000000000000000000000000000000000000Vila Penteado0286610000000000S伋 PauloSP000000000BRUNO EDDINE DA SILVAI06000220
102055677820001690437091964120130034300000000000000000000000000003532412000000 00000000000000000000    000000501000000000020201110000000687880000000043701N170220200000000000000000000000000000000000000000000000000000000000000001000379945678350000000000000000000BRUNO EDDINE DA SILVA0000000000000000000000000000000000000000Vila Penteado0286610000000000S伋 PauloSP000000000BRUNO EDDINE DA SILVAI06000221
102055677820001690437091964120130034300000000000000000000000000003532513000000 00000000000000000000    000000501000000000020201210000000687880000000043701N170220200000000000000000000000000000000000000000000000000000000000000001000379945678350000000000000000000BRUNO EDDINE DA SILVA0000000000000000000000000000000000000000Vila Penteado0286610000000000S伋 PauloSP000000000BRUNO EDDINE DA SILVAI06000222
10205567782000169043709196412013003430000000000000000000000000000253261000000 00000000000000000000    000000501000000000000000000000000002500000000043701N17022020000000000000000000000000000000000000000000000000000000000000000100036649004804000000000000000000MURILO BASTOS DE SOUZA0000000000000000000000000000000000000000000Vila Rica0286102000000000S伋 PauloSP00000000MURILO BASTOS DE SOUZAI06000223
10205567782000169043709196412013003430000000000000000000000000000253272000000 00000000000000000000    000000501000000000020200110000000763650000000043701N17022020000000000000000000000000000000000000000000000000000000000000000100036649004804000000000000000000MURILO BASTOS DE SOUZA0000000000000000000000000000000000000000000Vila Rica0286102000000000S伋 PauloSP00000000MURILO BASTOS DE SOUZAI06000224
10205567782000169043709196412013003430000000000000000000000000000253283000000 00000000000000000000    000000501000000000020200210000000763650000000043701N17022020000000000000000000000000000000000000000000000000000000000000000100036649004804000000000000000000MURILO BASTOS DE SOUZA0000000000000000000000000000000000000000000Vila Rica0286102000000000S伋 PauloSP00000000MURILO BASTOS DE SOUZAI06000225
10205567782000169043709196412013003430000000000000000000000000000253294000000 00000000000000000000    000000501000000000020200310000000763650000000043701N17022020000000000000000000000000000000000000000000000000000000000000000100036649004804000000000000000000MURILO BASTOS DE SOUZA0000000000000000000000000000000000000000000Vila Rica0286102000000000S伋 PauloSP00000000MURILO BASTOS DE SOUZAI06000226
10205567782000169043709196412013003430000000000000000000000000000253305000000 00000000000000000000    000000501000000000020200410000000763650000000043701N17022020000000000000000000000000000000000000000000000000000000000000000100036649004804000000000000000000MURILO BASTOS DE SOUZA0000000000000000000000000000000000000000000Vila Rica0286102000000000S伋 PauloSP00000000MURILO BASTOS DE SOUZAI06000227
10205567782000169043709196412013003430000000000000000000000000000253316000000 00000000000000000000    000000501000000000020200510000000763650000000043701N17022020000000000000000000000000000000000000000000000000000000000000000100036649004804000000000000000000MURILO BASTOS DE SOUZA0000000000000000000000000000000000000000000Vila Rica0286102000000000S伋 PauloSP00000000MURILO BASTOS DE SOUZAI06000228
10205567782000169043709196412013003430000000000000000000000000000253327000000 00000000000000000000    000000501000000000020200610000000763650000000043701N17022020000000000000000000000000000000000000000000000000000000000000000100036649004804000000000000000000MURILO BASTOS DE SOUZA0000000000000000000000000000000000000000000Vila Rica0286102000000000S伋 PauloSP00000000MURILO BASTOS DE SOUZAI06000229
10205567782000169043709196412013003430000000000000000000000000000253338000000 00000000000000000000    000000501000000000020200710000000763650000000043701N17022020000000000000000000000000000000000000000000000000000000000000000100036649004804000000000000000000MURILO BASTOS DE SOUZA0000000000000000000000000000000000000000000Vila Rica0286102000000000S伋 PauloSP00000000MURILO BASTOS DE SOUZAI06000230
10205567782000169043709196412013003430000000000000000000000000000253349000000 00000000000000000000    000000501000000000020200810000000763650000000043701N17022020000000000000000000000000000000000000000000000000000000000000000100036649004804000000000000000000MURILO BASTOS DE SOUZA0000000000000000000000000000000000000000000Vila Rica0286102000000000S伋 PauloSP00000000MURILO BASTOS DE SOUZAI06000231
102055677820001690437091964120130034300000000000000000000000000002533510000000 00000000000000000000    000000501000000000020200910000000763650000000043701N17022020000000000000000000000000000000000000000000000000000000000000000100036649004804000000000000000000MURILO BASTOS DE SOUZA0000000000000000000000000000000000000000000Vila Rica0286102000000000S伋 PauloSP00000000MURILO BASTOS DE SOUZAI06000232
102055677820001690437091964120130034300000000000000000000000000002533611000000 00000000000000000000    000000501000000000020201010000000763650000000043701N17022020000000000000000000000000000000000000000000000000000000000000000100036649004804000000000000000000MURILO BASTOS DE SOUZA0000000000000000000000000000000000000000000Vila Rica0286102000000000S伋 PauloSP00000000MURILO BASTOS DE SOUZAI06000233
102055677820001690437091964120130034300000000000000000000000000002533712000000 00000000000000000000    000000501000000000020201110000000763650000000043701N17022020000000000000000000000000000000000000000000000000000000000000000100036649004804000000000000000000MURILO BASTOS DE SOUZA0000000000000000000000000000000000000000000Vila Rica0286102000000000S伋 PauloSP00000000MURILO BASTOS DE SOUZAI06000234
102055677820001690437091964120130034300000000000000000000000000002533813000000 00000000000000000000    000000501000000000020201210000000763650000000043701N17022020000000000000000000000000000000000000000000000000000000000000000100036649004804000000000000000000MURILO BASTOS DE SOUZA0000000000000000000000000000000000000000000Vila Rica0286102000000000S伋 PauloSP00000000MURILO BASTOS DE SOUZAI06000235
10205567782000169043709196412013003430000000000000000000000000000483391000000 00000000000000000000    000000501000000000000000000000000002500000000043701N1702202000000000000000000000000000000000000000000000000000000000000000010003785200889500000000000000000RITA DO NASCIMENTO IMAI0000000000000000000000000000000000000000Vila Nova Cachoeirinha0261100300000000S伋 PauloSP0000000RITA DO NASCIMENTO IMAII06000236
10205567782000169043709196412013003430000000000000000000000000000483402000000 00000000000000000000    000000501000000000020200108000000005270000000043701N1702202000000000000000000000000000000000000000000000000000000000000000010003785200889500000000000000000RITA DO NASCIMENTO IMAI0000000000000000000000000000000000000000Vila Nova Cachoeirinha0261100300000000S伋 PauloSP0000000RITA DO NASCIMENTO IMAII06000237
10205567782000169043709196412013003430000000000000000000000000000483413000000 00000000000000000000    000000501000000000020200207000000005270000000043701N1702202000000000000000000000000000000000000000000000000000000000000000010003785200889500000000000000000RITA DO NASCIMENTO IMAI0000000000000000000000000000000000000000Vila Nova Cachoeirinha0261100300000000S伋 PauloSP0000000RITA DO NASCIMENTO IMAII06000238
10205567782000169043709196412013003430000000000000000000000000000483424000000 00000000000000000000    000000501000000000020200306000000005270000000043701N1702202000000000000000000000000000000000000000000000000000000000000000010003785200889500000000000000000RITA DO NASCIMENTO IMAI0000000000000000000000000000000000000000Vila Nova Cachoeirinha0261100300000000S伋 PauloSP0000000RITA DO NASCIMENTO IMAII06000239
10205567782000169043709196412013003430000000000000000000000000000483435000000 00000000000000000000    000000501000000000020200407000000005270000000043701N1702202000000000000000000000000000000000000000000000000000000000000000010003785200889500000000000000000RITA DO NASCIMENTO IMAI0000000000000000000000000000000000000000Vila Nova Cachoeirinha0261100300000000S伋 PauloSP0000000RITA DO NASCIMENTO IMAII06000240
10205567782000169043709196412013003430000000000000000000000000000483446000000 00000000000000000000    000000501000000000020200508000000005270000000043701N1702202000000000000000000000000000000000000000000000000000000000000000010003785200889500000000000000000RITA DO NASCIMENTO IMAI0000000000000000000000000000000000000000Vila Nova Cachoeirinha0261100300000000S伋 PauloSP0000000RITA DO NASCIMENTO IMAII06000241
10205567782000169043709196412013003430000000000000000000000000000483457000000 00000000000000000000    000000501000000000020200607000000005270000000043701N1702202000000000000000000000000000000000000000000000000000000000000000010003785200889500000000000000000RITA DO NASCIMENTO IMAI0000000000000000000000000000000000000000Vila Nova Cachoeirinha0261100300000000S伋 PauloSP0000000RITA DO NASCIMENTO IMAII06000242
10205567782000169043709196412013003430000000000000000000000000000483468000000 00000000000000000000    000000501000000000020200709000000005270000000043701N1702202000000000000000000000000000000000000000000000000000000000000000010003785200889500000000000000000RITA DO NASCIMENTO IMAI0000000000000000000000000000000000000000Vila Nova Cachoeirinha0261100300000000S伋 PauloSP0000000RITA DO NASCIMENTO IMAII06000243
10205567782000169043709196412013003430000000000000000000000000000483479000000 00000000000000000000    000000501000000000020200807000000005270000000043701N1702202000000000000000000000000000000000000000000000000000000000000000010003785200889500000000000000000RITA DO NASCIMENTO IMAI0000000000000000000000000000000000000000Vila Nova Cachoeirinha0261100300000000S伋 PauloSP0000000RITA DO NASCIMENTO IMAII06000244
102055677820001690437091964120130034300000000000000000000000000004834810000000 00000000000000000000    000000501000000000020200908000000005270000000043701N1702202000000000000000000000000000000000000000000000000000000000000000010003785200889500000000000000000RITA DO NASCIMENTO IMAI0000000000000000000000000000000000000000Vila Nova Cachoeirinha0261100300000000S伋 PauloSP0000000RITA DO NASCIMENTO IMAII06000245
102055677820001690437091964120130034300000000000000000000000000004834911000000 00000000000000000000    000000501000000000020201007000000005270000000043701N1702202000000000000000000000000000000000000000000000000000000000000000010003785200889500000000000000000RITA DO NASCIMENTO IMAI0000000000000000000000000000000000000000Vila Nova Cachoeirinha0261100300000000S伋 PauloSP0000000RITA DO NASCIMENTO IMAII06000246
102055677820001690437091964120130034300000000000000000000000000004835012000000 00000000000000000000    000000501000000000020201109000000005270000000043701N1702202000000000000000000000000000000000000000000000000000000000000000010003785200889500000000000000000RITA DO NASCIMENTO IMAI0000000000000000000000000000000000000000Vila Nova Cachoeirinha0261100300000000S伋 PauloSP0000000RITA DO NASCIMENTO IMAII06000247
