01REMESSA01COBRANCA       04370919641201300343ESCOLA FUTUROS GENIOS.        033SANTANDER      1702200000000000000000                                                                                                                                                                                                                                                                                      000001
1020556778200016904370919641201300343000000000000000000000000000030921000000 00000000000000000000    000000501000000000000000000000000002500000000043701N17022020000000000000000000000000000000000000000000000000000000000000000100015248324807000000000000000SALWA MAHMOUD BAKRI SOUZA0000000000000000000000000000000000000000Vila Itaberaba0284707000000000S伋 PauloSP00000SALWA MAHMOUD BAKRI SOUZAI06000002
1020556778200016904370919641201300343000000000000000000000000000030932000000 00000000000000000000    000000501000000000020200110000000478520000000043701N17022020000000000000000000000000000000000000000000000000000000000000000100015248324807000000000000000SALWA MAHMOUD BAKRI SOUZA0000000000000000000000000000000000000000Vila Itaberaba0284707000000000S伋 PauloSP00000SALWA MAHMOUD BAKRI SOUZAI06000003
1020556778200016904370919641201300343000000000000000000000000000030943000000 00000000000000000000    000000501000000000020200210000000478520000000043701N17022020000000000000000000000000000000000000000000000000000000000000000100015248324807000000000000000SALWA MAHMOUD BAKRI SOUZA0000000000000000000000000000000000000000Vila Itaberaba0284707000000000S伋 PauloSP00000SALWA MAHMOUD BAKRI SOUZAI06000004
1020556778200016904370919641201300343000000000000000000000000000030954000000 00000000000000000000    000000501000000000020200310000000478520000000043701N17022020000000000000000000000000000000000000000000000000000000000000000100015248324807000000000000000SALWA MAHMOUD BAKRI SOUZA0000000000000000000000000000000000000000Vila Itaberaba0284707000000000S伋 PauloSP00000SALWA MAHMOUD BAKRI SOUZAI06000005
1020556778200016904370919641201300343000000000000000000000000000030965000000 00000000000000000000    000000501000000000020200410000000478520000000043701N17022020000000000000000000000000000000000000000000000000000000000000000100015248324807000000000000000SALWA MAHMOUD BAKRI SOUZA0000000000000000000000000000000000000000Vila Itaberaba0284707000000000S伋 PauloSP00000SALWA MAHMOUD BAKRI SOUZAI06000006
1020556778200016904370919641201300343000000000000000000000000000030976000000 00000000000000000000    000000501000000000020200510000000478520000000043701N17022020000000000000000000000000000000000000000000000000000000000000000100015248324807000000000000000SALWA MAHMOUD BAKRI SOUZA0000000000000000000000000000000000000000Vila Itaberaba0284707000000000S伋 PauloSP00000SALWA MAHMOUD BAKRI SOUZAI06000007
1020556778200016904370919641201300343000000000000000000000000000030987000000 00000000000000000000    000000501000000000020200610000000478520000000043701N17022020000000000000000000000000000000000000000000000000000000000000000100015248324807000000000000000SALWA MAHMOUD BAKRI SOUZA0000000000000000000000000000000000000000Vila Itaberaba0284707000000000S伋 PauloSP00000SALWA MAHMOUD BAKRI SOUZAI06000008
1020556778200016904370919641201300343000000000000000000000000000030998000000 00000000000000000000    000000501000000000020200710000000478520000000043701N17022020000000000000000000000000000000000000000000000000000000000000000100015248324807000000000000000SALWA MAHMOUD BAKRI SOUZA0000000000000000000000000000000000000000Vila Itaberaba0284707000000000S伋 PauloSP00000SALWA MAHMOUD BAKRI SOUZAI06000009
1020556778200016904370919641201300343000000000000000000000000000301009000000 00000000000000000000    000000501000000000020200810000000478520000000043701N17022020000000000000000000000000000000000000000000000000000000000000000100015248324807000000000000000SALWA MAHMOUD BAKRI SOUZA0000000000000000000000000000000000000000Vila Itaberaba0284707000000000S伋 PauloSP00000SALWA MAHMOUD BAKRI SOUZAI06000010
1020556778200016904370919641201300343000000000000000000000000003010110000000 00000000000000000000    000000501000000000020200910000000478520000000043701N17022020000000000000000000000000000000000000000000000000000000000000000100015248324807000000000000000SALWA MAHMOUD BAKRI SOUZA0000000000000000000000000000000000000000Vila Itaberaba0284707000000000S伋 PauloSP00000SALWA MAHMOUD BAKRI SOUZAI06000011
1020556778200016904370919641201300343000000000000000000000000003010211000000 00000000000000000000    000000501000000000020201010000000478520000000043701N17022020000000000000000000000000000000000000000000000000000000000000000100015248324807000000000000000SALWA MAHMOUD BAKRI SOUZA0000000000000000000000000000000000000000Vila Itaberaba0284707000000000S伋 PauloSP00000SALWA MAHMOUD BAKRI SOUZAI06000012
1020556778200016904370919641201300343000000000000000000000000003010312000000 00000000000000000000    000000501000000000020201110000000478520000000043701N17022020000000000000000000000000000000000000000000000000000000000000000100015248324807000000000000000SALWA MAHMOUD BAKRI SOUZA0000000000000000000000000000000000000000Vila Itaberaba0284707000000000S伋 PauloSP00000SALWA MAHMOUD BAKRI SOUZAI06000013
1020556778200016904370919641201300343000000000000000000000000003010413000000 00000000000000000000    000000501000000000000000000000000478520000000043701N17022020000000000000000000000000000000000000000000000000000000000000000100015248324807000000000000000SALWA MAHMOUD BAKRI SOUZA0000000000000000000000000000000000000000Vila Itaberaba0284707000000000S伋 PauloSP00000SALWA MAHMOUD BAKRI SOUZAI06000014
1020556778200016904370919641201300343000000000000000000000000000541051000000 00000000000000000000    000000501000000000000000000000000002500000000043701N17022020000000000000000000000000000000000000000000000000000000000000000100036429746860000000000000000000DANILLO CALLANA SAN츒 0000000000000000000000000000000000000000Jardim dos Francos0287400000000000S伋 PauloSP00000000DANILLO CALLANA SAN츒 I06000015
1020556778200016904370919641201300343000000000000000000000000000541062000000 00000000000000000000    000000501000000000020200108000000004300000000043701N17022020000000000000000000000000000000000000000000000000000000000000000100036429746860000000000000000000DANILLO CALLANA SAN츒 0000000000000000000000000000000000000000Jardim dos Francos0287400000000000S伋 PauloSP00000000DANILLO CALLANA SAN츒 I06000016
1020556778200016904370919641201300343000000000000000000000000000541073000000 00000000000000000000    000000501000000000020200207000000004300000000043701N17022020000000000000000000000000000000000000000000000000000000000000000100036429746860000000000000000000DANILLO CALLANA SAN츒 0000000000000000000000000000000000000000Jardim dos Francos0287400000000000S伋 PauloSP00000000DANILLO CALLANA SAN츒 I06000017
1020556778200016904370919641201300343000000000000000000000000000541084000000 00000000000000000000    000000501000000000020200306000000004300000000043701N17022020000000000000000000000000000000000000000000000000000000000000000100036429746860000000000000000000DANILLO CALLANA SAN츒 0000000000000000000000000000000000000000Jardim dos Francos0287400000000000S伋 PauloSP00000000DANILLO CALLANA SAN츒 I06000018
1020556778200016904370919641201300343000000000000000000000000000541095000000 00000000000000000000    000000501000000000020200407000000004300000000043701N17022020000000000000000000000000000000000000000000000000000000000000000100036429746860000000000000000000DANILLO CALLANA SAN츒 0000000000000000000000000000000000000000Jardim dos Francos0287400000000000S伋 PauloSP00000000DANILLO CALLANA SAN츒 I06000019
1020556778200016904370919641201300343000000000000000000000000000541106000000 00000000000000000000    000000501000000000020200508000000004300000000043701N17022020000000000000000000000000000000000000000000000000000000000000000100036429746860000000000000000000DANILLO CALLANA SAN츒 0000000000000000000000000000000000000000Jardim dos Francos0287400000000000S伋 PauloSP00000000DANILLO CALLANA SAN츒 I06000020
1020556778200016904370919641201300343000000000000000000000000000541117000000 00000000000000000000    000000501000000000020200605000000004300000000043701N17022020000000000000000000000000000000000000000000000000000000000000000100036429746860000000000000000000DANILLO CALLANA SAN츒 0000000000000000000000000000000000000000Jardim dos Francos0287400000000000S伋 PauloSP00000000DANILLO CALLANA SAN츒 I06000021
1020556778200016904370919641201300343000000000000000000000000000541128000000 00000000000000000000    000000501000000000020200707000000004300000000043701N17022020000000000000000000000000000000000000000000000000000000000000000100036429746860000000000000000000DANILLO CALLANA SAN츒 0000000000000000000000000000000000000000Jardim dos Francos0287400000000000S伋 PauloSP00000000DANILLO CALLANA SAN츒 I06000022
1020556778200016904370919641201300343000000000000000000000000000541139000000 00000000000000000000    000000501000000000020200807000000004300000000043701N17022020000000000000000000000000000000000000000000000000000000000000000100036429746860000000000000000000DANILLO CALLANA SAN츒 0000000000000000000000000000000000000000Jardim dos Francos0287400000000000S伋 PauloSP00000000DANILLO CALLANA SAN츒 I06000023
1020556778200016904370919641201300343000000000000000000000000005411410000000 00000000000000000000    000000501000000000020200908000000004300000000043701N17022020000000000000000000000000000000000000000000000000000000000000000100036429746860000000000000000000DANILLO CALLANA SAN츒 0000000000000000000000000000000000000000Jardim dos Francos0287400000000000S伋 PauloSP00000000DANILLO CALLANA SAN츒 I06000024
1020556778200016904370919641201300343000000000000000000000000005411511000000 00000000000000000000    000000501000000000020201007000000004300000000043701N17022020000000000000000000000000000000000000000000000000000000000000000100036429746860000000000000000000DANILLO CALLANA SAN츒 0000000000000000000000000000000000000000Jardim dos Francos0287400000000000S伋 PauloSP00000000DANILLO CALLANA SAN츒 I06000025
1020556778200016904370919641201300343000000000000000000000000005411612000000 00000000000000000000    000000501000000000020201109000000004300000000043701N17022020000000000000000000000000000000000000000000000000000000000000000100036429746860000000000000000000DANILLO CALLANA SAN츒 0000000000000000000000000000000000000000Jardim dos Francos0287400000000000S伋 PauloSP00000000DANILLO CALLANA SAN츒 I06000026
1020556778200016904370919641201300343000000000000000000000000005411713000000 00000000000000000000    000000501000000000020201207000000004300000000043701N17022020000000000000000000000000000000000000000000000000000000000000000100036429746860000000000000000000DANILLO CALLANA SAN츒 0000000000000000000000000000000000000000Jardim dos Francos0287400000000000S伋 PauloSP00000000DANILLO CALLANA SAN츒 I06000027
1020556778200016904370919641201300343000000000000000000000000000441181000000 00000000000000000000    000000501000000000000000000000000002500000000043701N1702202000000000000000000000000000000000000000000000000000000000000000010001934614688500000000000000000MARCIO OLIVEIRA MARQUES000000000000000000000000000000000000000000Vila Souza0000286000000000S伋 PauloSP0000000MARCIO OLIVEIRA MARQUESI06000028
1020556778200016904370919641201300343000000000000000000000000000441192000000 00000000000000000000    000000501000000000020200108000000004320000000043701N1702202000000000000000000000000000000000000000000000000000000000000000010001934614688500000000000000000MARCIO OLIVEIRA MARQUES000000000000000000000000000000000000000000Vila Souza0000286000000000S伋 PauloSP0000000MARCIO OLIVEIRA MARQUESI06000029
1020556778200016904370919641201300343000000000000000000000000000441203000000 00000000000000000000    000000501000000000020200207000000004320000000043701N1702202000000000000000000000000000000000000000000000000000000000000000010001934614688500000000000000000MARCIO OLIVEIRA MARQUES000000000000000000000000000000000000000000Vila Souza0000286000000000S伋 PauloSP0000000MARCIO OLIVEIRA MARQUESI06000030
1020556778200016904370919641201300343000000000000000000000000000441214000000 00000000000000000000    000000501000000000020200306000000004320000000043701N1702202000000000000000000000000000000000000000000000000000000000000000010001934614688500000000000000000MARCIO OLIVEIRA MARQUES000000000000000000000000000000000000000000Vila Souza0000286000000000S伋 PauloSP0000000MARCIO OLIVEIRA MARQUESI06000031
1020556778200016904370919641201300343000000000000000000000000000441225000000 00000000000000000000    000000501000000000020200407000000004320000000043701N1702202000000000000000000000000000000000000000000000000000000000000000010001934614688500000000000000000MARCIO OLIVEIRA MARQUES000000000000000000000000000000000000000000Vila Souza0000286000000000S伋 PauloSP0000000MARCIO OLIVEIRA MARQUESI06000032
1020556778200016904370919641201300343000000000000000000000000000441236000000 00000000000000000000    000000501000000000020200508000000004320000000043701N1702202000000000000000000000000000000000000000000000000000000000000000010001934614688500000000000000000MARCIO OLIVEIRA MARQUES000000000000000000000000000000000000000000Vila Souza0000286000000000S伋 PauloSP0000000MARCIO OLIVEIRA MARQUESI06000033
1020556778200016904370919641201300343000000000000000000000000000441247000000 00000000000000000000    000000501000000000020200605000000004320000000043701N1702202000000000000000000000000000000000000000000000000000000000000000010001934614688500000000000000000MARCIO OLIVEIRA MARQUES000000000000000000000000000000000000000000Vila Souza0000286000000000S伋 PauloSP0000000MARCIO OLIVEIRA MARQUESI06000034
1020556778200016904370919641201300343000000000000000000000000000441258000000 00000000000000000000    000000501000000000020200707000000004320000000043701N1702202000000000000000000000000000000000000000000000000000000000000000010001934614688500000000000000000MARCIO OLIVEIRA MARQUES000000000000000000000000000000000000000000Vila Souza0000286000000000S伋 PauloSP0000000MARCIO OLIVEIRA MARQUESI06000035
1020556778200016904370919641201300343000000000000000000000000000441269000000 00000000000000000000    000000501000000000020200807000000004320000000043701N1702202000000000000000000000000000000000000000000000000000000000000000010001934614688500000000000000000MARCIO OLIVEIRA MARQUES000000000000000000000000000000000000000000Vila Souza0000286000000000S伋 PauloSP0000000MARCIO OLIVEIRA MARQUESI06000036
1020556778200016904370919641201300343000000000000000000000000004412710000000 00000000000000000000    000000501000000000020200908000000004320000000043701N1702202000000000000000000000000000000000000000000000000000000000000000010001934614688500000000000000000MARCIO OLIVEIRA MARQUES000000000000000000000000000000000000000000Vila Souza0000286000000000S伋 PauloSP0000000MARCIO OLIVEIRA MARQUESI06000037
1020556778200016904370919641201300343000000000000000000000000004412811000000 00000000000000000000    000000501000000000020201007000000004320000000043701N1702202000000000000000000000000000000000000000000000000000000000000000010001934614688500000000000000000MARCIO OLIVEIRA MARQUES000000000000000000000000000000000000000000Vila Souza0000286000000000S伋 PauloSP0000000MARCIO OLIVEIRA MARQUESI06000038
1020556778200016904370919641201300343000000000000000000000000004412912000000 00000000000000000000    000000501000000000020201109000000004320000000043701N1702202000000000000000000000000000000000000000000000000000000000000000010001934614688500000000000000000MARCIO OLIVEIRA MARQUES000000000000000000000000000000000000000000Vila Souza0000286000000000S伋 PauloSP0000000MARCIO OLIVEIRA MARQUESI06000039
1020556778200016904370919641201300343000000000000000000000000004413013000000 00000000000000000000    000000501000000000020201207000000004320000000043701N1702202000000000000000000000000000000000000000000000000000000000000000010001934614688500000000000000000MARCIO OLIVEIRA MARQUES000000000000000000000000000000000000000000Vila Souza0000286000000000S伋 PauloSP0000000MARCIO OLIVEIRA MARQUESI06000040
1020556778200016904370919641201300343000000000000000000000000000531441000000 00000000000000000000    000000501000000000000000000000000002500000000043701N170220200000000000000000000000000000000000000000000000000000000000000001000306385718120000000000000Tatiane Alessandra da Silva0000000000000000000000000000000000000000Lauzane Paulista0243000200000000S伋 PauloSP000Tatiane Alessandra da SilvaI06000041
1020556778200016904370919641201300343000000000000000000000000000531452000000 00000000000000000000    000000501000000000020200108000000006900000000043701N170220200000000000000000000000000000000000000000000000000000000000000001000306385718120000000000000Tatiane Alessandra da Silva0000000000000000000000000000000000000000Lauzane Paulista0243000200000000S伋 PauloSP000Tatiane Alessandra da SilvaI06000042
1020556778200016904370919641201300343000000000000000000000000000531463000000 00000000000000000000    000000501000000000020200207000000006900000000043701N170220200000000000000000000000000000000000000000000000000000000000000001000306385718120000000000000Tatiane Alessandra da Silva0000000000000000000000000000000000000000Lauzane Paulista0243000200000000S伋 PauloSP000Tatiane Alessandra da SilvaI06000043
1020556778200016904370919641201300343000000000000000000000000000531474000000 00000000000000000000    000000501000000000020200306000000006900000000043701N170220200000000000000000000000000000000000000000000000000000000000000001000306385718120000000000000Tatiane Alessandra da Silva0000000000000000000000000000000000000000Lauzane Paulista0243000200000000S伋 PauloSP000Tatiane Alessandra da SilvaI06000044
1020556778200016904370919641201300343000000000000000000000000000531485000000 00000000000000000000    000000501000000000020200406000000006900000000043701N170220200000000000000000000000000000000000000000000000000000000000000001000306385718120000000000000Tatiane Alessandra da Silva0000000000000000000000000000000000000000Lauzane Paulista0243000200000000S伋 PauloSP000Tatiane Alessandra da SilvaI06000045
1020556778200016904370919641201300343000000000000000000000000000531496000000 00000000000000000000    000000501000000000020200508000000006900000000043701N170220200000000000000000000000000000000000000000000000000000000000000001000306385718120000000000000Tatiane Alessandra da Silva0000000000000000000000000000000000000000Lauzane Paulista0243000200000000S伋 PauloSP000Tatiane Alessandra da SilvaI06000046
1020556778200016904370919641201300343000000000000000000000000000531507000000 00000000000000000000    000000501000000000020200605000000006900000000043701N170220200000000000000000000000000000000000000000000000000000000000000001000306385718120000000000000Tatiane Alessandra da Silva0000000000000000000000000000000000000000Lauzane Paulista0243000200000000S伋 PauloSP000Tatiane Alessandra da SilvaI06000047
1020556778200016904370919641201300343000000000000000000000000000531518000000 00000000000000000000    000000501000000000020200707000000006900000000043701N170220200000000000000000000000000000000000000000000000000000000000000001000306385718120000000000000Tatiane Alessandra da Silva0000000000000000000000000000000000000000Lauzane Paulista0243000200000000S伋 PauloSP000Tatiane Alessandra da SilvaI06000048
1020556778200016904370919641201300343000000000000000000000000000531529000000 00000000000000000000    000000501000000000020200807000000006900000000043701N170220200000000000000000000000000000000000000000000000000000000000000001000306385718120000000000000Tatiane Alessandra da Silva0000000000000000000000000000000000000000Lauzane Paulista0243000200000000S伋 PauloSP000Tatiane Alessandra da SilvaI06000049
1020556778200016904370919641201300343000000000000000000000000005315310000000 00000000000000000000    000000501000000000020200907000000006900000000043701N170220200000000000000000000000000000000000000000000000000000000000000001000306385718120000000000000Tatiane Alessandra da Silva0000000000000000000000000000000000000000Lauzane Paulista0243000200000000S伋 PauloSP000Tatiane Alessandra da SilvaI06000050
1020556778200016904370919641201300343000000000000000000000000005315411000000 00000000000000000000    000000501000000000020201008000000006900000000043701N170220200000000000000000000000000000000000000000000000000000000000000001000306385718120000000000000Tatiane Alessandra da Silva0000000000000000000000000000000000000000Lauzane Paulista0243000200000000S伋 PauloSP000Tatiane Alessandra da SilvaI06000051
1020556778200016904370919641201300343000000000000000000000000005315512000000 00000000000000000000    000000501000000000020201109000000006900000000043701N170220200000000000000000000000000000000000000000000000000000000000000001000306385718120000000000000Tatiane Alessandra da Silva0000000000000000000000000000000000000000Lauzane Paulista0243000200000000S伋 PauloSP000Tatiane Alessandra da SilvaI06000052
1020556778200016904370919641201300343000000000000000000000000005315613000000 00000000000000000000    000000501000000000020201207000000006900000000043701N170220200000000000000000000000000000000000000000000000000000000000000001000306385718120000000000000Tatiane Alessandra da Silva0000000000000000000000000000000000000000Lauzane Paulista0243000200000000S伋 PauloSP000Tatiane Alessandra da SilvaI06000053
1020556778200016904370919641201300343000000000000000000000000000421571000000 00000000000000000000    000000501000000000000000000000000002500000000043701N170220200000000000000000000000000000000000000000000000000000000000000001000130002758430000000ANTONIO COSTA DOS SANTOS GON큐LVES0000000000000000000000000000000000000000000Brasil轟dia0286310000000000S伋 PauloSPANTONIO COSTA DOS SANTOS GON큐LVESI06000054
1020556778200016904370919641201300343000000000000000000000000000421582000000 00000000000000000000    000000501000000000020200108000000077520000000043701N170220200000000000000000000000000000000000000000000000000000000000000001000130002758430000000ANTONIO COSTA DOS SANTOS GON큐LVES0000000000000000000000000000000000000000000Brasil轟dia0286310000000000S伋 PauloSPANTONIO COSTA DOS SANTOS GON큐LVESI06000055
1020556778200016904370919641201300343000000000000000000000000000421593000000 00000000000000000000    000000501000000000020200207000000077520000000043701N170220200000000000000000000000000000000000000000000000000000000000000001000130002758430000000ANTONIO COSTA DOS SANTOS GON큐LVES0000000000000000000000000000000000000000000Brasil轟dia0286310000000000S伋 PauloSPANTONIO COSTA DOS SANTOS GON큐LVESI06000056
1020556778200016904370919641201300343000000000000000000000000000421604000000 00000000000000000000    000000501000000000020200306000000077520000000043701N170220200000000000000000000000000000000000000000000000000000000000000001000130002758430000000ANTONIO COSTA DOS SANTOS GON큐LVES0000000000000000000000000000000000000000000Brasil轟dia0286310000000000S伋 PauloSPANTONIO COSTA DOS SANTOS GON큐LVESI06000057
1020556778200016904370919641201300343000000000000000000000000000421615000000 00000000000000000000    000000501000000000020200407000000077520000000043701N170220200000000000000000000000000000000000000000000000000000000000000001000130002758430000000ANTONIO COSTA DOS SANTOS GON큐LVES0000000000000000000000000000000000000000000Brasil轟dia0286310000000000S伋 PauloSPANTONIO COSTA DOS SANTOS GON큐LVESI06000058
1020556778200016904370919641201300343000000000000000000000000000421626000000 00000000000000000000    000000501000000000020200508000000077520000000043701N170220200000000000000000000000000000000000000000000000000000000000000001000130002758430000000ANTONIO COSTA DOS SANTOS GON큐LVES0000000000000000000000000000000000000000000Brasil轟dia0286310000000000S伋 PauloSPANTONIO COSTA DOS SANTOS GON큐LVESI06000059
1020556778200016904370919641201300343000000000000000000000000000421637000000 00000000000000000000    000000501000000000020200605000000077520000000043701N170220200000000000000000000000000000000000000000000000000000000000000001000130002758430000000ANTONIO COSTA DOS SANTOS GON큐LVES0000000000000000000000000000000000000000000Brasil轟dia0286310000000000S伋 PauloSPANTONIO COSTA DOS SANTOS GON큐LVESI06000060
1020556778200016904370919641201300343000000000000000000000000000421648000000 00000000000000000000    000000501000000000020200707000000077520000000043701N170220200000000000000000000000000000000000000000000000000000000000000001000130002758430000000ANTONIO COSTA DOS SANTOS GON큐LVES0000000000000000000000000000000000000000000Brasil轟dia0286310000000000S伋 PauloSPANTONIO COSTA DOS SANTOS GON큐LVESI06000061
1020556778200016904370919641201300343000000000000000000000000000421659000000 00000000000000000000    000000501000000000020200807000000077520000000043701N170220200000000000000000000000000000000000000000000000000000000000000001000130002758430000000ANTONIO COSTA DOS SANTOS GON큐LVES0000000000000000000000000000000000000000000Brasil轟dia0286310000000000S伋 PauloSPANTONIO COSTA DOS SANTOS GON큐LVESI06000062
1020556778200016904370919641201300343000000000000000000000000004216610000000 00000000000000000000    000000501000000000020200908000000077520000000043701N170220200000000000000000000000000000000000000000000000000000000000000001000130002758430000000ANTONIO COSTA DOS SANTOS GON큐LVES0000000000000000000000000000000000000000000Brasil轟dia0286310000000000S伋 PauloSPANTONIO COSTA DOS SANTOS GON큐LVESI06000063
1020556778200016904370919641201300343000000000000000000000000004216711000000 00000000000000000000    000000501000000000020201007000000077520000000043701N170220200000000000000000000000000000000000000000000000000000000000000001000130002758430000000ANTONIO COSTA DOS SANTOS GON큐LVES0000000000000000000000000000000000000000000Brasil轟dia0286310000000000S伋 PauloSPANTONIO COSTA DOS SANTOS GON큐LVESI06000064
1020556778200016904370919641201300343000000000000000000000000004216812000000 00000000000000000000    000000501000000000020201109000000077520000000043701N170220200000000000000000000000000000000000000000000000000000000000000001000130002758430000000ANTONIO COSTA DOS SANTOS GON큐LVES0000000000000000000000000000000000000000000Brasil轟dia0286310000000000S伋 PauloSPANTONIO COSTA DOS SANTOS GON큐LVESI06000065
1020556778200016904370919641201300343000000000000000000000000004216913000000 00000000000000000000    000000501000000000020201207000000077520000000043701N170220200000000000000000000000000000000000000000000000000000000000000001000130002758430000000ANTONIO COSTA DOS SANTOS GON큐LVES0000000000000000000000000000000000000000000Brasil轟dia0286310000000000S伋 PauloSPANTONIO COSTA DOS SANTOS GON큐LVESI06000066
1020556778200016904370919641201300343000000000000000000000000000491701000000 00000000000000000000    000000501000000000000000000000000002500000000043701N1702202000000000000000000000000000000000000000000000000000000000000000010000129749451200000000000MARIA APARECIDA CARVALHO LIMA0000000000000000000000000000000000000000Jardim Vista Alegre0287800000000000S伋 PauloSP0MARIA APARECIDA CARVALHO LIMAI06000067
1020556778200016904370919641201300343000000000000000000000000000491712000000 00000000000000000000    000000501000000000020200120000000007660000000043701N1702202000000000000000000000000000000000000000000000000000000000000000010000129749451200000000000MARIA APARECIDA CARVALHO LIMA0000000000000000000000000000000000000000Jardim Vista Alegre0287800000000000S伋 PauloSP0MARIA APARECIDA CARVALHO LIMAI06000068
1020556778200016904370919641201300343000000000000000000000000000491723000000 00000000000000000000    000000501000000000020200220000000007660000000043701N1702202000000000000000000000000000000000000000000000000000000000000000010000129749451200000000000MARIA APARECIDA CARVALHO LIMA0000000000000000000000000000000000000000Jardim Vista Alegre0287800000000000S伋 PauloSP0MARIA APARECIDA CARVALHO LIMAI06000069
1020556778200016904370919641201300343000000000000000000000000000491734000000 00000000000000000000    000000501000000000020200320000000007660000000043701N1702202000000000000000000000000000000000000000000000000000000000000000010000129749451200000000000MARIA APARECIDA CARVALHO LIMA0000000000000000000000000000000000000000Jardim Vista Alegre0287800000000000S伋 PauloSP0MARIA APARECIDA CARVALHO LIMAI06000070
1020556778200016904370919641201300343000000000000000000000000000491745000000 00000000000000000000    000000501000000000020200420000000007660000000043701N1702202000000000000000000000000000000000000000000000000000000000000000010000129749451200000000000MARIA APARECIDA CARVALHO LIMA0000000000000000000000000000000000000000Jardim Vista Alegre0287800000000000S伋 PauloSP0MARIA APARECIDA CARVALHO LIMAI06000071
1020556778200016904370919641201300343000000000000000000000000000491756000000 00000000000000000000    000000501000000000020200520000000007660000000043701N1702202000000000000000000000000000000000000000000000000000000000000000010000129749451200000000000MARIA APARECIDA CARVALHO LIMA0000000000000000000000000000000000000000Jardim Vista Alegre0287800000000000S伋 PauloSP0MARIA APARECIDA CARVALHO LIMAI06000072
1020556778200016904370919641201300343000000000000000000000000000491767000000 00000000000000000000    000000501000000000020200620000000007660000000043701N1702202000000000000000000000000000000000000000000000000000000000000000010000129749451200000000000MARIA APARECIDA CARVALHO LIMA0000000000000000000000000000000000000000Jardim Vista Alegre0287800000000000S伋 PauloSP0MARIA APARECIDA CARVALHO LIMAI06000073
1020556778200016904370919641201300343000000000000000000000000000491778000000 00000000000000000000    000000501000000000020200720000000007660000000043701N1702202000000000000000000000000000000000000000000000000000000000000000010000129749451200000000000MARIA APARECIDA CARVALHO LIMA0000000000000000000000000000000000000000Jardim Vista Alegre0287800000000000S伋 PauloSP0MARIA APARECIDA CARVALHO LIMAI06000074
1020556778200016904370919641201300343000000000000000000000000000491789000000 00000000000000000000    000000501000000000020200820000000007660000000043701N1702202000000000000000000000000000000000000000000000000000000000000000010000129749451200000000000MARIA APARECIDA CARVALHO LIMA0000000000000000000000000000000000000000Jardim Vista Alegre0287800000000000S伋 PauloSP0MARIA APARECIDA CARVALHO LIMAI06000075
1020556778200016904370919641201300343000000000000000000000000004917910000000 00000000000000000000    000000501000000000020200920000000007660000000043701N1702202000000000000000000000000000000000000000000000000000000000000000010000129749451200000000000MARIA APARECIDA CARVALHO LIMA0000000000000000000000000000000000000000Jardim Vista Alegre0287800000000000S伋 PauloSP0MARIA APARECIDA CARVALHO LIMAI06000076
1020556778200016904370919641201300343000000000000000000000000004918011000000 00000000000000000000    000000501000000000020201020000000007660000000043701N1702202000000000000000000000000000000000000000000000000000000000000000010000129749451200000000000MARIA APARECIDA CARVALHO LIMA0000000000000000000000000000000000000000Jardim Vista Alegre0287800000000000S伋 PauloSP0MARIA APARECIDA CARVALHO LIMAI06000077
1020556778200016904370919641201300343000000000000000000000000004918112000000 00000000000000000000    000000501000000000020201120000000007660000000043701N1702202000000000000000000000000000000000000000000000000000000000000000010000129749451200000000000MARIA APARECIDA CARVALHO LIMA0000000000000000000000000000000000000000Jardim Vista Alegre0287800000000000S伋 PauloSP0MARIA APARECIDA CARVALHO LIMAI06000078
1020556778200016904370919641201300343000000000000000000000000004918213000000 00000000000000000000    000000501000000000020201220000000007660000000043701N1702202000000000000000000000000000000000000000000000000000000000000000010000129749451200000000000MARIA APARECIDA CARVALHO LIMA0000000000000000000000000000000000000000Jardim Vista Alegre0287800000000000S伋 PauloSP0MARIA APARECIDA CARVALHO LIMAI06000079
1020556778200016904370919641201300343000000000000000000000000000071831000000 00000000000000000000    000000501000000000000000000000000002500000000043701N17022020000000000000000000000000000000000000000000000000000000000000000100008740846873MARTA APARECIDA VENTURA PEREIRA DA SILVA0000000000000000000000000000000000000000Jardim Centen痙io0288214000000000S伋 PauloSPMARTA APARECIDA VENTURA PEREIRA DA SILVAI06000080
1020556778200016904370919641201300343000000000000000000000000000071842000000 00000000000000000000    000000501000000000020200101000000004200000000043701N17022020000000000000000000000000000000000000000000000000000000000000000100008740846873MARTA APARECIDA VENTURA PEREIRA DA SILVA0000000000000000000000000000000000000000Jardim Centen痙io0288214000000000S伋 PauloSPMARTA APARECIDA VENTURA PEREIRA DA SILVAI06000081
1020556778200016904370919641201300343000000000000000000000000000071853000000 00000000000000000000    000000501000000000020200201000000004200000000043701N17022020000000000000000000000000000000000000000000000000000000000000000100008740846873MARTA APARECIDA VENTURA PEREIRA DA SILVA0000000000000000000000000000000000000000Jardim Centen痙io0288214000000000S伋 PauloSPMARTA APARECIDA VENTURA PEREIRA DA SILVAI06000082
1020556778200016904370919641201300343000000000000000000000000000071864000000 00000000000000000000    000000501000000000020200301000000004200000000043701N17022020000000000000000000000000000000000000000000000000000000000000000100008740846873MARTA APARECIDA VENTURA PEREIRA DA SILVA0000000000000000000000000000000000000000Jardim Centen痙io0288214000000000S伋 PauloSPMARTA APARECIDA VENTURA PEREIRA DA SILVAI06000083
1020556778200016904370919641201300343000000000000000000000000000071875000000 00000000000000000000    000000501000000000020200401000000004200000000043701N17022020000000000000000000000000000000000000000000000000000000000000000100008740846873MARTA APARECIDA VENTURA PEREIRA DA SILVA0000000000000000000000000000000000000000Jardim Centen痙io0288214000000000S伋 PauloSPMARTA APARECIDA VENTURA PEREIRA DA SILVAI06000084
1020556778200016904370919641201300343000000000000000000000000000071886000000 00000000000000000000    000000501000000000020200501000000004200000000043701N17022020000000000000000000000000000000000000000000000000000000000000000100008740846873MARTA APARECIDA VENTURA PEREIRA DA SILVA0000000000000000000000000000000000000000Jardim Centen痙io0288214000000000S伋 PauloSPMARTA APARECIDA VENTURA PEREIRA DA SILVAI06000085
1020556778200016904370919641201300343000000000000000000000000000071897000000 00000000000000000000    000000501000000000020200601000000004200000000043701N17022020000000000000000000000000000000000000000000000000000000000000000100008740846873MARTA APARECIDA VENTURA PEREIRA DA SILVA0000000000000000000000000000000000000000Jardim Centen痙io0288214000000000S伋 PauloSPMARTA APARECIDA VENTURA PEREIRA DA SILVAI06000086
1020556778200016904370919641201300343000000000000000000000000000071908000000 00000000000000000000    000000501000000000020200701000000004200000000043701N17022020000000000000000000000000000000000000000000000000000000000000000100008740846873MARTA APARECIDA VENTURA PEREIRA DA SILVA0000000000000000000000000000000000000000Jardim Centen痙io0288214000000000S伋 PauloSPMARTA APARECIDA VENTURA PEREIRA DA SILVAI06000087
1020556778200016904370919641201300343000000000000000000000000000071919000000 00000000000000000000    000000501000000000020200801000000004200000000043701N17022020000000000000000000000000000000000000000000000000000000000000000100008740846873MARTA APARECIDA VENTURA PEREIRA DA SILVA0000000000000000000000000000000000000000Jardim Centen痙io0288214000000000S伋 PauloSPMARTA APARECIDA VENTURA PEREIRA DA SILVAI06000088
1020556778200016904370919641201300343000000000000000000000000000719210000000 00000000000000000000    000000501000000000020200901000000004200000000043701N17022020000000000000000000000000000000000000000000000000000000000000000100008740846873MARTA APARECIDA VENTURA PEREIRA DA SILVA0000000000000000000000000000000000000000Jardim Centen痙io0288214000000000S伋 PauloSPMARTA APARECIDA VENTURA PEREIRA DA SILVAI06000089
1020556778200016904370919641201300343000000000000000000000000000719311000000 00000000000000000000    000000501000000000020201001000000004200000000043701N17022020000000000000000000000000000000000000000000000000000000000000000100008740846873MARTA APARECIDA VENTURA PEREIRA DA SILVA0000000000000000000000000000000000000000Jardim Centen痙io0288214000000000S伋 PauloSPMARTA APARECIDA VENTURA PEREIRA DA SILVAI06000090
1020556778200016904370919641201300343000000000000000000000000000719412000000 00000000000000000000    000000501000000000020201101000000004200000000043701N17022020000000000000000000000000000000000000000000000000000000000000000100008740846873MARTA APARECIDA VENTURA PEREIRA DA SILVA0000000000000000000000000000000000000000Jardim Centen痙io0288214000000000S伋 PauloSPMARTA APARECIDA VENTURA PEREIRA DA SILVAI06000091
1020556778200016904370919641201300343000000000000000000000000000719513000000 00000000000000000000    000000501000000000020201201000000004200000000043701N17022020000000000000000000000000000000000000000000000000000000000000000100008740846873MARTA APARECIDA VENTURA PEREIRA DA SILVA0000000000000000000000000000000000000000Jardim Centen痙io0288214000000000S伋 PauloSPMARTA APARECIDA VENTURA PEREIRA DA SILVAI06000092
1020556778200016904370919641201300343000000000000000000000000000081961000000 00000000000000000000    000000501000000000000000000000000002500000000043701N17022020000000000000000000000000000000000000000000000000000000000000000100008740846873MARTA APARECIDA VENTURA PEREIRA DA SILVA0000000000000000000000000000000000000000Jardim Centen痙io0288214000000000S伋 PauloSPMARTA APARECIDA VENTURA PEREIRA DA SILVAI06000093
1020556778200016904370919641201300343000000000000000000000000000081972000000 00000000000000000000    000000501000000000020200101000000004200000000043701N17022020000000000000000000000000000000000000000000000000000000000000000100008740846873MARTA APARECIDA VENTURA PEREIRA DA SILVA0000000000000000000000000000000000000000Jardim Centen痙io0288214000000000S伋 PauloSPMARTA APARECIDA VENTURA PEREIRA DA SILVAI06000094
1020556778200016904370919641201300343000000000000000000000000000081983000000 00000000000000000000    000000501000000000020200201000000004200000000043701N17022020000000000000000000000000000000000000000000000000000000000000000100008740846873MARTA APARECIDA VENTURA PEREIRA DA SILVA0000000000000000000000000000000000000000Jardim Centen痙io0288214000000000S伋 PauloSPMARTA APARECIDA VENTURA PEREIRA DA SILVAI06000095
1020556778200016904370919641201300343000000000000000000000000000081994000000 00000000000000000000    000000501000000000020200301000000004200000000043701N17022020000000000000000000000000000000000000000000000000000000000000000100008740846873MARTA APARECIDA VENTURA PEREIRA DA SILVA0000000000000000000000000000000000000000Jardim Centen痙io0288214000000000S伋 PauloSPMARTA APARECIDA VENTURA PEREIRA DA SILVAI06000096
1020556778200016904370919641201300343000000000000000000000000000082005000000 00000000000000000000    000000501000000000020200401000000004200000000043701N17022020000000000000000000000000000000000000000000000000000000000000000100008740846873MARTA APARECIDA VENTURA PEREIRA DA SILVA0000000000000000000000000000000000000000Jardim Centen痙io0288214000000000S伋 PauloSPMARTA APARECIDA VENTURA PEREIRA DA SILVAI06000097
1020556778200016904370919641201300343000000000000000000000000000082016000000 00000000000000000000    000000501000000000020200501000000004200000000043701N17022020000000000000000000000000000000000000000000000000000000000000000100008740846873MARTA APARECIDA VENTURA PEREIRA DA SILVA0000000000000000000000000000000000000000Jardim Centen痙io0288214000000000S伋 PauloSPMARTA APARECIDA VENTURA PEREIRA DA SILVAI06000098
1020556778200016904370919641201300343000000000000000000000000000082027000000 00000000000000000000    000000501000000000020200601000000004200000000043701N17022020000000000000000000000000000000000000000000000000000000000000000100008740846873MARTA APARECIDA VENTURA PEREIRA DA SILVA0000000000000000000000000000000000000000Jardim Centen痙io0288214000000000S伋 PauloSPMARTA APARECIDA VENTURA PEREIRA DA SILVAI06000099
1020556778200016904370919641201300343000000000000000000000000000082038000000 00000000000000000000    000000501000000000020200701000000004200000000043701N17022020000000000000000000000000000000000000000000000000000000000000000100008740846873MARTA APARECIDA VENTURA PEREIRA DA SILVA0000000000000000000000000000000000000000Jardim Centen痙io0288214000000000S伋 PauloSPMARTA APARECIDA VENTURA PEREIRA DA SILVAI06000100
1020556778200016904370919641201300343000000000000000000000000000082049000000 00000000000000000000    000000501000000000020200801000000004200000000043701N17022020000000000000000000000000000000000000000000000000000000000000000100008740846873MARTA APARECIDA VENTURA PEREIRA DA SILVA0000000000000000000000000000000000000000Jardim Centen痙io0288214000000000S伋 PauloSPMARTA APARECIDA VENTURA PEREIRA DA SILVAI06000101
1020556778200016904370919641201300343000000000000000000000000000820510000000 00000000000000000000    000000501000000000020200901000000004200000000043701N17022020000000000000000000000000000000000000000000000000000000000000000100008740846873MARTA APARECIDA VENTURA PEREIRA DA SILVA0000000000000000000000000000000000000000Jardim Centen痙io0288214000000000S伋 PauloSPMARTA APARECIDA VENTURA PEREIRA DA SILVAI06000102
1020556778200016904370919641201300343000000000000000000000000000820611000000 00000000000000000000    000000501000000000020201001000000004200000000043701N17022020000000000000000000000000000000000000000000000000000000000000000100008740846873MARTA APARECIDA VENTURA PEREIRA DA SILVA0000000000000000000000000000000000000000Jardim Centen痙io0288214000000000S伋 PauloSPMARTA APARECIDA VENTURA PEREIRA DA SILVAI06000103
1020556778200016904370919641201300343000000000000000000000000000820712000000 00000000000000000000    000000501000000000020201101000000004200000000043701N17022020000000000000000000000000000000000000000000000000000000000000000100008740846873MARTA APARECIDA VENTURA PEREIRA DA SILVA0000000000000000000000000000000000000000Jardim Centen痙io0288214000000000S伋 PauloSPMARTA APARECIDA VENTURA PEREIRA DA SILVAI06000104
1020556778200016904370919641201300343000000000000000000000000000820813000000 00000000000000000000    000000501000000000020201201000000004200000000043701N17022020000000000000000000000000000000000000000000000000000000000000000100008740846873MARTA APARECIDA VENTURA PEREIRA DA SILVA0000000000000000000000000000000000000000Jardim Centen痙io0288214000000000S伋 PauloSPMARTA APARECIDA VENTURA PEREIRA DA SILVAI06000105
1020556778200016904370919641201300343000000000000000000000000000172091000000 00000000000000000000    000000501000000000000000000000000002500000000043701N1702202000000000000000000000000000000000000000000000000000000000000000010004443294589300000000000000000000BIANCA MOREIRA ARA：O0000000000000000000000000000000000000000Vila Penteado0286707000000000S伋 PauloSP0000000000BIANCA MOREIRA ARA：OI06000106
1020556778200016904370919641201300343000000000000000000000000000172102000000 00000000000000000000    000000501000000000020200110000000398760000000043701N1702202000000000000000000000000000000000000000000000000000000000000000010004443294589300000000000000000000BIANCA MOREIRA ARA：O0000000000000000000000000000000000000000Vila Penteado0286707000000000S伋 PauloSP0000000000BIANCA MOREIRA ARA：OI06000107
1020556778200016904370919641201300343000000000000000000000000000172113000000 00000000000000000000    000000501000000000020200210000000398760000000043701N1702202000000000000000000000000000000000000000000000000000000000000000010004443294589300000000000000000000BIANCA MOREIRA ARA：O0000000000000000000000000000000000000000Vila Penteado0286707000000000S伋 PauloSP0000000000BIANCA MOREIRA ARA：OI06000108
1020556778200016904370919641201300343000000000000000000000000000172124000000 00000000000000000000    000000501000000000020200310000000398760000000043701N1702202000000000000000000000000000000000000000000000000000000000000000010004443294589300000000000000000000BIANCA MOREIRA ARA：O0000000000000000000000000000000000000000Vila Penteado0286707000000000S伋 PauloSP0000000000BIANCA MOREIRA ARA：OI06000109
1020556778200016904370919641201300343000000000000000000000000000172135000000 00000000000000000000    000000501000000000020200410000000398760000000043701N1702202000000000000000000000000000000000000000000000000000000000000000010004443294589300000000000000000000BIANCA MOREIRA ARA：O0000000000000000000000000000000000000000Vila Penteado0286707000000000S伋 PauloSP0000000000BIANCA MOREIRA ARA：OI06000110
1020556778200016904370919641201300343000000000000000000000000000172146000000 00000000000000000000    000000501000000000020200510000000398760000000043701N1702202000000000000000000000000000000000000000000000000000000000000000010004443294589300000000000000000000BIANCA MOREIRA ARA：O0000000000000000000000000000000000000000Vila Penteado0286707000000000S伋 PauloSP0000000000BIANCA MOREIRA ARA：OI06000111
1020556778200016904370919641201300343000000000000000000000000000172157000000 00000000000000000000    000000501000000000020200610000000398760000000043701N1702202000000000000000000000000000000000000000000000000000000000000000010004443294589300000000000000000000BIANCA MOREIRA ARA：O0000000000000000000000000000000000000000Vila Penteado0286707000000000S伋 PauloSP0000000000BIANCA MOREIRA ARA：OI06000112
1020556778200016904370919641201300343000000000000000000000000000172168000000 00000000000000000000    000000501000000000020200710000000398760000000043701N1702202000000000000000000000000000000000000000000000000000000000000000010004443294589300000000000000000000BIANCA MOREIRA ARA：O0000000000000000000000000000000000000000Vila Penteado0286707000000000S伋 PauloSP0000000000BIANCA MOREIRA ARA：OI06000113
1020556778200016904370919641201300343000000000000000000000000000172179000000 00000000000000000000    000000501000000000020200810000000398760000000043701N1702202000000000000000000000000000000000000000000000000000000000000000010004443294589300000000000000000000BIANCA MOREIRA ARA：O0000000000000000000000000000000000000000Vila Penteado0286707000000000S伋 PauloSP0000000000BIANCA MOREIRA ARA：OI06000114
1020556778200016904370919641201300343000000000000000000000000001721810000000 00000000000000000000    000000501000000000020200910000000398760000000043701N1702202000000000000000000000000000000000000000000000000000000000000000010004443294589300000000000000000000BIANCA MOREIRA ARA：O0000000000000000000000000000000000000000Vila Penteado0286707000000000S伋 PauloSP0000000000BIANCA MOREIRA ARA：OI06000115
1020556778200016904370919641201300343000000000000000000000000001721911000000 00000000000000000000    000000501000000000020201010000000398760000000043701N1702202000000000000000000000000000000000000000000000000000000000000000010004443294589300000000000000000000BIANCA MOREIRA ARA：O0000000000000000000000000000000000000000Vila Penteado0286707000000000S伋 PauloSP0000000000BIANCA MOREIRA ARA：OI06000116
1020556778200016904370919641201300343000000000000000000000000001722012000000 00000000000000000000    000000501000000000020201110000000398760000000043701N1702202000000000000000000000000000000000000000000000000000000000000000010004443294589300000000000000000000BIANCA MOREIRA ARA：O0000000000000000000000000000000000000000Vila Penteado0286707000000000S伋 PauloSP0000000000BIANCA MOREIRA ARA：OI06000117
1020556778200016904370919641201300343000000000000000000000000001722113000000 00000000000000000000    000000501000000000020201210000000398760000000043701N1702202000000000000000000000000000000000000000000000000000000000000000010004443294589300000000000000000000BIANCA MOREIRA ARA：O0000000000000000000000000000000000000000Vila Penteado0286707000000000S伋 PauloSP0000000000BIANCA MOREIRA ARA：OI06000118
1020556778200016904370919641201300343000000000000000000000000000182221000000 00000000000000000000    000000501000000000000000000000000002500000000043701N1702202000000000000000000000000000000000000000000000000000000000000000010004321851483500000000000000000ALINE SANTANA DE TOLEDO0000000000000000000000000000000000000000Jardim Almanara0286314000000000S伋 PauloSP0000000ALINE SANTANA DE TOLEDOI06000119
1020556778200016904370919641201300343000000000000000000000000000182232000000 00000000000000000000    000000501000000000020200125000000398760000000043701N1702202000000000000000000000000000000000000000000000000000000000000000010004321851483500000000000000000ALINE SANTANA DE TOLEDO0000000000000000000000000000000000000000Jardim Almanara0286314000000000S伋 PauloSP0000000ALINE SANTANA DE TOLEDOI06000120
1020556778200016904370919641201300343000000000000000000000000000182243000000 00000000000000000000    000000501000000000020200225000000398760000000043701N1702202000000000000000000000000000000000000000000000000000000000000000010004321851483500000000000000000ALINE SANTANA DE TOLEDO0000000000000000000000000000000000000000Jardim Almanara0286314000000000S伋 PauloSP0000000ALINE SANTANA DE TOLEDOI06000121
1020556778200016904370919641201300343000000000000000000000000000182254000000 00000000000000000000    000000501000000000020200325000000398760000000043701N1702202000000000000000000000000000000000000000000000000000000000000000010004321851483500000000000000000ALINE SANTANA DE TOLEDO0000000000000000000000000000000000000000Jardim Almanara0286314000000000S伋 PauloSP0000000ALINE SANTANA DE TOLEDOI06000122
1020556778200016904370919641201300343000000000000000000000000000182265000000 00000000000000000000    000000501000000000020200425000000398760000000043701N1702202000000000000000000000000000000000000000000000000000000000000000010004321851483500000000000000000ALINE SANTANA DE TOLEDO0000000000000000000000000000000000000000Jardim Almanara0286314000000000S伋 PauloSP0000000ALINE SANTANA DE TOLEDOI06000123
1020556778200016904370919641201300343000000000000000000000000000182276000000 00000000000000000000    000000501000000000020200525000000398760000000043701N1702202000000000000000000000000000000000000000000000000000000000000000010004321851483500000000000000000ALINE SANTANA DE TOLEDO0000000000000000000000000000000000000000Jardim Almanara0286314000000000S伋 PauloSP0000000ALINE SANTANA DE TOLEDOI06000124
1020556778200016904370919641201300343000000000000000000000000000182287000000 00000000000000000000    000000501000000000020200625000000398760000000043701N1702202000000000000000000000000000000000000000000000000000000000000000010004321851483500000000000000000ALINE SANTANA DE TOLEDO0000000000000000000000000000000000000000Jardim Almanara0286314000000000S伋 PauloSP0000000ALINE SANTANA DE TOLEDOI06000125
1020556778200016904370919641201300343000000000000000000000000000182298000000 00000000000000000000    000000501000000000020200725000000398760000000043701N1702202000000000000000000000000000000000000000000000000000000000000000010004321851483500000000000000000ALINE SANTANA DE TOLEDO0000000000000000000000000000000000000000Jardim Almanara0286314000000000S伋 PauloSP0000000ALINE SANTANA DE TOLEDOI06000126
1020556778200016904370919641201300343000000000000000000000000000182309000000 00000000000000000000    000000501000000000020200825000000398760000000043701N1702202000000000000000000000000000000000000000000000000000000000000000010004321851483500000000000000000ALINE SANTANA DE TOLEDO0000000000000000000000000000000000000000Jardim Almanara0286314000000000S伋 PauloSP0000000ALINE SANTANA DE TOLEDOI06000127
1020556778200016904370919641201300343000000000000000000000000001823110000000 00000000000000000000    000000501000000000020200925000000398760000000043701N1702202000000000000000000000000000000000000000000000000000000000000000010004321851483500000000000000000ALINE SANTANA DE TOLEDO0000000000000000000000000000000000000000Jardim Almanara0286314000000000S伋 PauloSP0000000ALINE SANTANA DE TOLEDOI06000128
1020556778200016904370919641201300343000000000000000000000000001823211000000 00000000000000000000    000000501000000000020201025000000398760000000043701N1702202000000000000000000000000000000000000000000000000000000000000000010004321851483500000000000000000ALINE SANTANA DE TOLEDO0000000000000000000000000000000000000000Jardim Almanara0286314000000000S伋 PauloSP0000000ALINE SANTANA DE TOLEDOI06000129
1020556778200016904370919641201300343000000000000000000000000001823312000000 00000000000000000000    000000501000000000020201125000000398760000000043701N1702202000000000000000000000000000000000000000000000000000000000000000010004321851483500000000000000000ALINE SANTANA DE TOLEDO0000000000000000000000000000000000000000Jardim Almanara0286314000000000S伋 PauloSP0000000ALINE SANTANA DE TOLEDOI06000130
1020556778200016904370919641201300343000000000000000000000000001823413000000 00000000000000000000    000000501000000000020201225000000398760000000043701N1702202000000000000000000000000000000000000000000000000000000000000000010004321851483500000000000000000ALINE SANTANA DE TOLEDO0000000000000000000000000000000000000000Jardim Almanara0286314000000000S伋 PauloSP0000000ALINE SANTANA DE TOLEDOI06000131
1020556778200016904370919641201300343000000000000000000000000000212351000000 00000000000000000000    000000501000000000000000000000000002500000000043701N1702202000000000000000000000000000000000000000000000000000000000000000010002958010589800000000000000000MARIA IVANILCE OLIVEIRA0000000000000000000000000000000000000000Vila Am涇ia (Zona Norte)0000261800000000S伋 PauloSP0000000MARIA IVANILCE OLIVEIRAI06000132
1020556778200016904370919641201300343000000000000000000000000000212362000000 00000000000000000000    000000501000000000020200120000000348950000000043701N1702202000000000000000000000000000000000000000000000000000000000000000010002958010589800000000000000000MARIA IVANILCE OLIVEIRA0000000000000000000000000000000000000000Vila Am涇ia (Zona Norte)0000261800000000S伋 PauloSP0000000MARIA IVANILCE OLIVEIRAI06000133
1020556778200016904370919641201300343000000000000000000000000000212373000000 00000000000000000000    000000501000000000020200220000000348950000000043701N1702202000000000000000000000000000000000000000000000000000000000000000010002958010589800000000000000000MARIA IVANILCE OLIVEIRA0000000000000000000000000000000000000000Vila Am涇ia (Zona Norte)0000261800000000S伋 PauloSP0000000MARIA IVANILCE OLIVEIRAI06000134
1020556778200016904370919641201300343000000000000000000000000000212384000000 00000000000000000000    000000501000000000020200320000000348950000000043701N1702202000000000000000000000000000000000000000000000000000000000000000010002958010589800000000000000000MARIA IVANILCE OLIVEIRA0000000000000000000000000000000000000000Vila Am涇ia (Zona Norte)0000261800000000S伋 PauloSP0000000MARIA IVANILCE OLIVEIRAI06000135
1020556778200016904370919641201300343000000000000000000000000000212395000000 00000000000000000000    000000501000000000020200420000000348950000000043701N1702202000000000000000000000000000000000000000000000000000000000000000010002958010589800000000000000000MARIA IVANILCE OLIVEIRA0000000000000000000000000000000000000000Vila Am涇ia (Zona Norte)0000261800000000S伋 PauloSP0000000MARIA IVANILCE OLIVEIRAI06000136
1020556778200016904370919641201300343000000000000000000000000000212406000000 00000000000000000000    000000501000000000020200520000000348950000000043701N1702202000000000000000000000000000000000000000000000000000000000000000010002958010589800000000000000000MARIA IVANILCE OLIVEIRA0000000000000000000000000000000000000000Vila Am涇ia (Zona Norte)0000261800000000S伋 PauloSP0000000MARIA IVANILCE OLIVEIRAI06000137
1020556778200016904370919641201300343000000000000000000000000000212417000000 00000000000000000000    000000501000000000020200620000000348950000000043701N1702202000000000000000000000000000000000000000000000000000000000000000010002958010589800000000000000000MARIA IVANILCE OLIVEIRA0000000000000000000000000000000000000000Vila Am涇ia (Zona Norte)0000261800000000S伋 PauloSP0000000MARIA IVANILCE OLIVEIRAI06000138
1020556778200016904370919641201300343000000000000000000000000000212428000000 00000000000000000000    000000501000000000020200720000000348950000000043701N1702202000000000000000000000000000000000000000000000000000000000000000010002958010589800000000000000000MARIA IVANILCE OLIVEIRA0000000000000000000000000000000000000000Vila Am涇ia (Zona Norte)0000261800000000S伋 PauloSP0000000MARIA IVANILCE OLIVEIRAI06000139
1020556778200016904370919641201300343000000000000000000000000000212439000000 00000000000000000000    000000501000000000020200820000000348950000000043701N1702202000000000000000000000000000000000000000000000000000000000000000010002958010589800000000000000000MARIA IVANILCE OLIVEIRA0000000000000000000000000000000000000000Vila Am涇ia (Zona Norte)0000261800000000S伋 PauloSP0000000MARIA IVANILCE OLIVEIRAI06000140
1020556778200016904370919641201300343000000000000000000000000002124410000000 00000000000000000000    000000501000000000020200920000000348950000000043701N1702202000000000000000000000000000000000000000000000000000000000000000010002958010589800000000000000000MARIA IVANILCE OLIVEIRA0000000000000000000000000000000000000000Vila Am涇ia (Zona Norte)0000261800000000S伋 PauloSP0000000MARIA IVANILCE OLIVEIRAI06000141
1020556778200016904370919641201300343000000000000000000000000002124511000000 00000000000000000000    000000501000000000020201020000000348950000000043701N1702202000000000000000000000000000000000000000000000000000000000000000010002958010589800000000000000000MARIA IVANILCE OLIVEIRA0000000000000000000000000000000000000000Vila Am涇ia (Zona Norte)0000261800000000S伋 PauloSP0000000MARIA IVANILCE OLIVEIRAI06000142
1020556778200016904370919641201300343000000000000000000000000002124612000000 00000000000000000000    000000501000000000020201120000000348950000000043701N1702202000000000000000000000000000000000000000000000000000000000000000010002958010589800000000000000000MARIA IVANILCE OLIVEIRA0000000000000000000000000000000000000000Vila Am涇ia (Zona Norte)0000261800000000S伋 PauloSP0000000MARIA IVANILCE OLIVEIRAI06000143
1020556778200016904370919641201300343000000000000000000000000002124713000000 00000000000000000000    000000501000000000020201220000000348950000000043701N1702202000000000000000000000000000000000000000000000000000000000000000010002958010589800000000000000000MARIA IVANILCE OLIVEIRA0000000000000000000000000000000000000000Vila Am涇ia (Zona Norte)0000261800000000S伋 PauloSP0000000MARIA IVANILCE OLIVEIRAI06000144
1020556778200016904370919641201300343000000000000000000000000000502481000000 00000000000000000000    000000501000000000000000000000000002500000000043701N1702202000000000000000000000000000000000000000000000000000000000000000010004496000580700000000000000000000Karina da Cunha Sena0000000000000000000000000000000000000000Jardim Vista Alegre0287815000000000S伋 PauloSP0000000000Karina da Cunha SenaI06000145
1020556778200016904370919641201300343000000000000000000000000000502492000000 00000000000000000000    000000501000000000020200110000000007200000000043701N1702202000000000000000000000000000000000000000000000000000000000000000010004496000580700000000000000000000Karina da Cunha Sena0000000000000000000000000000000000000000Jardim Vista Alegre0287815000000000S伋 PauloSP0000000000Karina da Cunha SenaI06000146
1020556778200016904370919641201300343000000000000000000000000000502503000000 00000000000000000000    000000501000000000020200210000000007200000000043701N1702202000000000000000000000000000000000000000000000000000000000000000010004496000580700000000000000000000Karina da Cunha Sena0000000000000000000000000000000000000000Jardim Vista Alegre0287815000000000S伋 PauloSP0000000000Karina da Cunha SenaI06000147
1020556778200016904370919641201300343000000000000000000000000000502514000000 00000000000000000000    000000501000000000020200310000000007200000000043701N1702202000000000000000000000000000000000000000000000000000000000000000010004496000580700000000000000000000Karina da Cunha Sena0000000000000000000000000000000000000000Jardim Vista Alegre0287815000000000S伋 PauloSP0000000000Karina da Cunha SenaI06000148
1020556778200016904370919641201300343000000000000000000000000000502525000000 00000000000000000000    000000501000000000020200410000000007200000000043701N1702202000000000000000000000000000000000000000000000000000000000000000010004496000580700000000000000000000Karina da Cunha Sena0000000000000000000000000000000000000000Jardim Vista Alegre0287815000000000S伋 PauloSP0000000000Karina da Cunha SenaI06000149
1020556778200016904370919641201300343000000000000000000000000000502536000000 00000000000000000000    000000501000000000020200510000000007200000000043701N1702202000000000000000000000000000000000000000000000000000000000000000010004496000580700000000000000000000Karina da Cunha Sena0000000000000000000000000000000000000000Jardim Vista Alegre0287815000000000S伋 PauloSP0000000000Karina da Cunha SenaI06000150
1020556778200016904370919641201300343000000000000000000000000000502547000000 00000000000000000000    000000501000000000020200610000000007200000000043701N1702202000000000000000000000000000000000000000000000000000000000000000010004496000580700000000000000000000Karina da Cunha Sena0000000000000000000000000000000000000000Jardim Vista Alegre0287815000000000S伋 PauloSP0000000000Karina da Cunha SenaI06000151
1020556778200016904370919641201300343000000000000000000000000000502558000000 00000000000000000000    000000501000000000020200710000000007200000000043701N1702202000000000000000000000000000000000000000000000000000000000000000010004496000580700000000000000000000Karina da Cunha Sena0000000000000000000000000000000000000000Jardim Vista Alegre0287815000000000S伋 PauloSP0000000000Karina da Cunha SenaI06000152
1020556778200016904370919641201300343000000000000000000000000000502569000000 00000000000000000000    000000501000000000020200810000000007200000000043701N1702202000000000000000000000000000000000000000000000000000000000000000010004496000580700000000000000000000Karina da Cunha Sena0000000000000000000000000000000000000000Jardim Vista Alegre0287815000000000S伋 PauloSP0000000000Karina da Cunha SenaI06000153
1020556778200016904370919641201300343000000000000000000000000005025710000000 00000000000000000000    000000501000000000020200910000000007200000000043701N1702202000000000000000000000000000000000000000000000000000000000000000010004496000580700000000000000000000Karina da Cunha Sena0000000000000000000000000000000000000000Jardim Vista Alegre0287815000000000S伋 PauloSP0000000000Karina da Cunha SenaI06000154
1020556778200016904370919641201300343000000000000000000000000005025811000000 00000000000000000000    000000501000000000020201010000000007200000000043701N1702202000000000000000000000000000000000000000000000000000000000000000010004496000580700000000000000000000Karina da Cunha Sena0000000000000000000000000000000000000000Jardim Vista Alegre0287815000000000S伋 PauloSP0000000000Karina da Cunha SenaI06000155
1020556778200016904370919641201300343000000000000000000000000005025912000000 00000000000000000000    000000501000000000020201110000000007200000000043701N1702202000000000000000000000000000000000000000000000000000000000000000010004496000580700000000000000000000Karina da Cunha Sena0000000000000000000000000000000000000000Jardim Vista Alegre0287815000000000S伋 PauloSP0000000000Karina da Cunha SenaI06000156
1020556778200016904370919641201300343000000000000000000000000005026013000000 00000000000000000000    000000501000000000020201210000000007200000000043701N1702202000000000000000000000000000000000000000000000000000000000000000010004496000580700000000000000000000Karina da Cunha Sena0000000000000000000000000000000000000000Jardim Vista Alegre0287815000000000S伋 PauloSP0000000000Karina da Cunha SenaI06000157
1020556778200016904370919641201300343000000000000000000000000000522611000000 00000000000000000000    000000501000000000000000000000000002500000000043701N17022020000000000000000000000000000000000000000000000000000000000000000100038118391876000000000MICHELE CRISTINA ALVES DA SILVA0000000000000000000000000000000000000000Vila dos Andrades0261001000000000S伋 PauloSPMICHELE CRISTINA ALVES DA SILVAI06000158
1020556778200016904370919641201300343000000000000000000000000000522622000000 00000000000000000000    000000501000000000020200115000000006300000000043701N17022020000000000000000000000000000000000000000000000000000000000000000100038118391876000000000MICHELE CRISTINA ALVES DA SILVA0000000000000000000000000000000000000000Vila dos Andrades0261001000000000S伋 PauloSPMICHELE CRISTINA ALVES DA SILVAI06000159
1020556778200016904370919641201300343000000000000000000000000000522633000000 00000000000000000000    000000501000000000020200215000000006300000000043701N17022020000000000000000000000000000000000000000000000000000000000000000100038118391876000000000MICHELE CRISTINA ALVES DA SILVA0000000000000000000000000000000000000000Vila dos Andrades0261001000000000S伋 PauloSPMICHELE CRISTINA ALVES DA SILVAI06000160
1020556778200016904370919641201300343000000000000000000000000000522644000000 00000000000000000000    000000501000000000020200315000000006300000000043701N17022020000000000000000000000000000000000000000000000000000000000000000100038118391876000000000MICHELE CRISTINA ALVES DA SILVA0000000000000000000000000000000000000000Vila dos Andrades0261001000000000S伋 PauloSPMICHELE CRISTINA ALVES DA SILVAI06000161
1020556778200016904370919641201300343000000000000000000000000000522655000000 00000000000000000000    000000501000000000000000000000000006300000000043701N17022020000000000000000000000000000000000000000000000000000000000000000100038118391876000000000MICHELE CRISTINA ALVES DA SILVA0000000000000000000000000000000000000000Vila dos Andrades0261001000000000S伋 PauloSPMICHELE CRISTINA ALVES DA SILVAI06000162
1020556778200016904370919641201300343000000000000000000000000000522666000000 00000000000000000000    000000501000000000020200515000000006300000000043701N17022020000000000000000000000000000000000000000000000000000000000000000100038118391876000000000MICHELE CRISTINA ALVES DA SILVA0000000000000000000000000000000000000000Vila dos Andrades0261001000000000S伋 PauloSPMICHELE CRISTINA ALVES DA SILVAI06000163
1020556778200016904370919641201300343000000000000000000000000000522677000000 00000000000000000000    000000501000000000020200615000000006300000000043701N17022020000000000000000000000000000000000000000000000000000000000000000100038118391876000000000MICHELE CRISTINA ALVES DA SILVA0000000000000000000000000000000000000000Vila dos Andrades0261001000000000S伋 PauloSPMICHELE CRISTINA ALVES DA SILVAI06000164
1020556778200016904370919641201300343000000000000000000000000000522688000000 00000000000000000000    000000501000000000020200715000000006300000000043701N17022020000000000000000000000000000000000000000000000000000000000000000100038118391876000000000MICHELE CRISTINA ALVES DA SILVA0000000000000000000000000000000000000000Vila dos Andrades0261001000000000S伋 PauloSPMICHELE CRISTINA ALVES DA SILVAI06000165
1020556778200016904370919641201300343000000000000000000000000000522699000000 00000000000000000000    000000501000000000020200815000000006300000000043701N17022020000000000000000000000000000000000000000000000000000000000000000100038118391876000000000MICHELE CRISTINA ALVES DA SILVA0000000000000000000000000000000000000000Vila dos Andrades0261001000000000S伋 PauloSPMICHELE CRISTINA ALVES DA SILVAI06000166
1020556778200016904370919641201300343000000000000000000000000005227010000000 00000000000000000000    000000501000000000020200915000000006300000000043701N17022020000000000000000000000000000000000000000000000000000000000000000100038118391876000000000MICHELE CRISTINA ALVES DA SILVA0000000000000000000000000000000000000000Vila dos Andrades0261001000000000S伋 PauloSPMICHELE CRISTINA ALVES DA SILVAI06000167
1020556778200016904370919641201300343000000000000000000000000005227111000000 00000000000000000000    000000501000000000020201015000000006300000000043701N17022020000000000000000000000000000000000000000000000000000000000000000100038118391876000000000MICHELE CRISTINA ALVES DA SILVA0000000000000000000000000000000000000000Vila dos Andrades0261001000000000S伋 PauloSPMICHELE CRISTINA ALVES DA SILVAI06000168
1020556778200016904370919641201300343000000000000000000000000005227212000000 00000000000000000000    000000501000000000020201115000000006300000000043701N17022020000000000000000000000000000000000000000000000000000000000000000100038118391876000000000MICHELE CRISTINA ALVES DA SILVA0000000000000000000000000000000000000000Vila dos Andrades0261001000000000S伋 PauloSPMICHELE CRISTINA ALVES DA SILVAI06000169
1020556778200016904370919641201300343000000000000000000000000005227313000000 00000000000000000000    000000501000000000020201215000000006300000000043701N17022020000000000000000000000000000000000000000000000000000000000000000100038118391876000000000MICHELE CRISTINA ALVES DA SILVA0000000000000000000000000000000000000000Vila dos Andrades0261001000000000S伋 PauloSPMICHELE CRISTINA ALVES DA SILVAI06000170
1020556778200016904370919641201300343000000000000000000000000000262741000000 00000000000000000000    000000501000000000000000000000000002500000000043701N170220200000000000000000000000000000000000000000000000000000000000000001000388231378100000000000000000000ANA CLAUDIA DO AMARAL0000000000000000000000000000000000000000000Vila Rica0286109000000000S伋 PauloSP000000000ANA CLAUDIA DO AMARALI06000171
1020556778200016904370919641201300343000000000000000000000000000262752000000 00000000000000000000    000000501000000000020200110000000026420000000043701N170220200000000000000000000000000000000000000000000000000000000000000001000388231378100000000000000000000ANA CLAUDIA DO AMARAL0000000000000000000000000000000000000000000Vila Rica0286109000000000S伋 PauloSP000000000ANA CLAUDIA DO AMARALI06000172
1020556778200016904370919641201300343000000000000000000000000000262763000000 00000000000000000000    000000501000000000020200210000000026420000000043701N170220200000000000000000000000000000000000000000000000000000000000000001000388231378100000000000000000000ANA CLAUDIA DO AMARAL0000000000000000000000000000000000000000000Vila Rica0286109000000000S伋 PauloSP000000000ANA CLAUDIA DO AMARALI06000173
1020556778200016904370919641201300343000000000000000000000000000262774000000 00000000000000000000    000000501000000000020200310000000026420000000043701N170220200000000000000000000000000000000000000000000000000000000000000001000388231378100000000000000000000ANA CLAUDIA DO AMARAL0000000000000000000000000000000000000000000Vila Rica0286109000000000S伋 PauloSP000000000ANA CLAUDIA DO AMARALI06000174
1020556778200016904370919641201300343000000000000000000000000000262785000000 00000000000000000000    000000501000000000020200410000000026420000000043701N170220200000000000000000000000000000000000000000000000000000000000000001000388231378100000000000000000000ANA CLAUDIA DO AMARAL0000000000000000000000000000000000000000000Vila Rica0286109000000000S伋 PauloSP000000000ANA CLAUDIA DO AMARALI06000175
1020556778200016904370919641201300343000000000000000000000000000262796000000 00000000000000000000    000000501000000000020200510000000026420000000043701N170220200000000000000000000000000000000000000000000000000000000000000001000388231378100000000000000000000ANA CLAUDIA DO AMARAL0000000000000000000000000000000000000000000Vila Rica0286109000000000S伋 PauloSP000000000ANA CLAUDIA DO AMARALI06000176
1020556778200016904370919641201300343000000000000000000000000000262807000000 00000000000000000000    000000501000000000020200610000000026420000000043701N170220200000000000000000000000000000000000000000000000000000000000000001000388231378100000000000000000000ANA CLAUDIA DO AMARAL0000000000000000000000000000000000000000000Vila Rica0286109000000000S伋 PauloSP000000000ANA CLAUDIA DO AMARALI06000177
1020556778200016904370919641201300343000000000000000000000000000262818000000 00000000000000000000    000000501000000000020200710000000026420000000043701N170220200000000000000000000000000000000000000000000000000000000000000001000388231378100000000000000000000ANA CLAUDIA DO AMARAL0000000000000000000000000000000000000000000Vila Rica0286109000000000S伋 PauloSP000000000ANA CLAUDIA DO AMARALI06000178
1020556778200016904370919641201300343000000000000000000000000000262829000000 00000000000000000000    000000501000000000020200810000000026420000000043701N170220200000000000000000000000000000000000000000000000000000000000000001000388231378100000000000000000000ANA CLAUDIA DO AMARAL0000000000000000000000000000000000000000000Vila Rica0286109000000000S伋 PauloSP000000000ANA CLAUDIA DO AMARALI06000179
1020556778200016904370919641201300343000000000000000000000000002628310000000 00000000000000000000    000000501000000000020200910000000026420000000043701N170220200000000000000000000000000000000000000000000000000000000000000001000388231378100000000000000000000ANA CLAUDIA DO AMARAL0000000000000000000000000000000000000000000Vila Rica0286109000000000S伋 PauloSP000000000ANA CLAUDIA DO AMARALI06000180
1020556778200016904370919641201300343000000000000000000000000002628411000000 00000000000000000000    000000501000000000020201010000000026420000000043701N170220200000000000000000000000000000000000000000000000000000000000000001000388231378100000000000000000000ANA CLAUDIA DO AMARAL0000000000000000000000000000000000000000000Vila Rica0286109000000000S伋 PauloSP000000000ANA CLAUDIA DO AMARALI06000181
1020556778200016904370919641201300343000000000000000000000000002628512000000 00000000000000000000    000000501000000000020201110000000026420000000043701N170220200000000000000000000000000000000000000000000000000000000000000001000388231378100000000000000000000ANA CLAUDIA DO AMARAL0000000000000000000000000000000000000000000Vila Rica0286109000000000S伋 PauloSP000000000ANA CLAUDIA DO AMARALI06000182
1020556778200016904370919641201300343000000000000000000000000002628613000000 00000000000000000000    000000501000000000020201210000000026420000000043701N170220200000000000000000000000000000000000000000000000000000000000000001000388231378100000000000000000000ANA CLAUDIA DO AMARAL0000000000000000000000000000000000000000000Vila Rica0286109000000000S伋 PauloSP000000000ANA CLAUDIA DO AMARALI06000183
1020556778200016904370919641201300343000000000000000000000000000112871000000 00000000000000000000    000000501000000000000000000000000002500000000043701N170220200000000000000000000000000000000000000000000000000000000000000001000460366718300000000000000KAMILA PATR펚IA SILVA BERING000000000000000000000000000000000000000000Vila Souza0286005000000000S伋 PauloSP000KAMILA PATR펚IA SILVA BERINGI06000184
1020556778200016904370919641201300343000000000000000000000000000112882000000 00000000000000000000    000000501000000000020200110000000498460000000043701N170220200000000000000000000000000000000000000000000000000000000000000001000460366718300000000000000KAMILA PATR펚IA SILVA BERING000000000000000000000000000000000000000000Vila Souza0286005000000000S伋 PauloSP000KAMILA PATR펚IA SILVA BERINGI06000185
1020556778200016904370919641201300343000000000000000000000000000112893000000 00000000000000000000    000000501000000000020200210000000498460000000043701N170220200000000000000000000000000000000000000000000000000000000000000001000460366718300000000000000KAMILA PATR펚IA SILVA BERING000000000000000000000000000000000000000000Vila Souza0286005000000000S伋 PauloSP000KAMILA PATR펚IA SILVA BERINGI06000186
1020556778200016904370919641201300343000000000000000000000000000112904000000 00000000000000000000    000000501000000000020200310000000498460000000043701N170220200000000000000000000000000000000000000000000000000000000000000001000460366718300000000000000KAMILA PATR펚IA SILVA BERING000000000000000000000000000000000000000000Vila Souza0286005000000000S伋 PauloSP000KAMILA PATR펚IA SILVA BERINGI06000187
1020556778200016904370919641201300343000000000000000000000000000112915000000 00000000000000000000    000000501000000000020200410000000498460000000043701N170220200000000000000000000000000000000000000000000000000000000000000001000460366718300000000000000KAMILA PATR펚IA SILVA BERING000000000000000000000000000000000000000000Vila Souza0286005000000000S伋 PauloSP000KAMILA PATR펚IA SILVA BERINGI06000188
1020556778200016904370919641201300343000000000000000000000000000112926000000 00000000000000000000    000000501000000000020200510000000498460000000043701N170220200000000000000000000000000000000000000000000000000000000000000001000460366718300000000000000KAMILA PATR펚IA SILVA BERING000000000000000000000000000000000000000000Vila Souza0286005000000000S伋 PauloSP000KAMILA PATR펚IA SILVA BERINGI06000189
1020556778200016904370919641201300343000000000000000000000000000112937000000 00000000000000000000    000000501000000000020200610000000498460000000043701N170220200000000000000000000000000000000000000000000000000000000000000001000460366718300000000000000KAMILA PATR펚IA SILVA BERING000000000000000000000000000000000000000000Vila Souza0286005000000000S伋 PauloSP000KAMILA PATR펚IA SILVA BERINGI06000190
1020556778200016904370919641201300343000000000000000000000000000112948000000 00000000000000000000    000000501000000000020200710000000498460000000043701N170220200000000000000000000000000000000000000000000000000000000000000001000460366718300000000000000KAMILA PATR펚IA SILVA BERING000000000000000000000000000000000000000000Vila Souza0286005000000000S伋 PauloSP000KAMILA PATR펚IA SILVA BERINGI06000191
1020556778200016904370919641201300343000000000000000000000000000112959000000 00000000000000000000    000000501000000000020200810000000498460000000043701N170220200000000000000000000000000000000000000000000000000000000000000001000460366718300000000000000KAMILA PATR펚IA SILVA BERING000000000000000000000000000000000000000000Vila Souza0286005000000000S伋 PauloSP000KAMILA PATR펚IA SILVA BERINGI06000192
1020556778200016904370919641201300343000000000000000000000000001129610000000 00000000000000000000    000000501000000000020200910000000498460000000043701N170220200000000000000000000000000000000000000000000000000000000000000001000460366718300000000000000KAMILA PATR펚IA SILVA BERING000000000000000000000000000000000000000000Vila Souza0286005000000000S伋 PauloSP000KAMILA PATR펚IA SILVA BERINGI06000193
1020556778200016904370919641201300343000000000000000000000000001129711000000 00000000000000000000    000000501000000000020201010000000498460000000043701N170220200000000000000000000000000000000000000000000000000000000000000001000460366718300000000000000KAMILA PATR펚IA SILVA BERING000000000000000000000000000000000000000000Vila Souza0286005000000000S伋 PauloSP000KAMILA PATR펚IA SILVA BERINGI06000194
1020556778200016904370919641201300343000000000000000000000000001129812000000 00000000000000000000    000000501000000000020201110000000498460000000043701N170220200000000000000000000000000000000000000000000000000000000000000001000460366718300000000000000KAMILA PATR펚IA SILVA BERING000000000000000000000000000000000000000000Vila Souza0286005000000000S伋 PauloSP000KAMILA PATR펚IA SILVA BERINGI06000195
1020556778200016904370919641201300343000000000000000000000000001129913000000 00000000000000000000    000000501000000000020201210000000498460000000043701N170220200000000000000000000000000000000000000000000000000000000000000001000460366718300000000000000KAMILA PATR펚IA SILVA BERING000000000000000000000000000000000000000000Vila Souza0286005000000000S伋 PauloSP000KAMILA PATR펚IA SILVA BERINGI06000196
1020556778200016904370919641201300343000000000000000000000000000473001000000 00000000000000000000    000000501000000000000000000000000002500000000043701N17022020000000000000000000000000000000000000000000000000000000000000000100089896670544000IACIANA PEREIRA DO NASCIMENTO BEZERRA0000000000000000000000000000000000000000Jardim Alvina0299128000000000S伋 PauloSPIACIANA PEREIRA DO NASCIMENTO BEZERRAI06000197
1020556778200016904370919641201300343000000000000000000000000000473012000000 00000000000000000000    000000501000000000020200115000000006300000000043701N17022020000000000000000000000000000000000000000000000000000000000000000100089896670544000IACIANA PEREIRA DO NASCIMENTO BEZERRA0000000000000000000000000000000000000000Jardim Alvina0299128000000000S伋 PauloSPIACIANA PEREIRA DO NASCIMENTO BEZERRAI06000198
1020556778200016904370919641201300343000000000000000000000000000473023000000 00000000000000000000    000000501000000000020200215000000006300000000043701N17022020000000000000000000000000000000000000000000000000000000000000000100089896670544000IACIANA PEREIRA DO NASCIMENTO BEZERRA0000000000000000000000000000000000000000Jardim Alvina0299128000000000S伋 PauloSPIACIANA PEREIRA DO NASCIMENTO BEZERRAI06000199
1020556778200016904370919641201300343000000000000000000000000000473034000000 00000000000000000000    000000501000000000020200315000000006300000000043701N17022020000000000000000000000000000000000000000000000000000000000000000100089896670544000IACIANA PEREIRA DO NASCIMENTO BEZERRA0000000000000000000000000000000000000000Jardim Alvina0299128000000000S伋 PauloSPIACIANA PEREIRA DO NASCIMENTO BEZERRAI06000200
1020556778200016904370919641201300343000000000000000000000000000473045000000 00000000000000000000    000000501000000000020200415000000006300000000043701N17022020000000000000000000000000000000000000000000000000000000000000000100089896670544000IACIANA PEREIRA DO NASCIMENTO BEZERRA0000000000000000000000000000000000000000Jardim Alvina0299128000000000S伋 PauloSPIACIANA PEREIRA DO NASCIMENTO BEZERRAI06000201
1020556778200016904370919641201300343000000000000000000000000000473056000000 00000000000000000000    000000501000000000020200515000000006300000000043701N17022020000000000000000000000000000000000000000000000000000000000000000100089896670544000IACIANA PEREIRA DO NASCIMENTO BEZERRA0000000000000000000000000000000000000000Jardim Alvina0299128000000000S伋 PauloSPIACIANA PEREIRA DO NASCIMENTO BEZERRAI06000202
1020556778200016904370919641201300343000000000000000000000000000473067000000 00000000000000000000    000000501000000000020200615000000006300000000043701N17022020000000000000000000000000000000000000000000000000000000000000000100089896670544000IACIANA PEREIRA DO NASCIMENTO BEZERRA0000000000000000000000000000000000000000Jardim Alvina0299128000000000S伋 PauloSPIACIANA PEREIRA DO NASCIMENTO BEZERRAI06000203
1020556778200016904370919641201300343000000000000000000000000000473078000000 00000000000000000000    000000501000000000020200715000000006300000000043701N17022020000000000000000000000000000000000000000000000000000000000000000100089896670544000IACIANA PEREIRA DO NASCIMENTO BEZERRA0000000000000000000000000000000000000000Jardim Alvina0299128000000000S伋 PauloSPIACIANA PEREIRA DO NASCIMENTO BEZERRAI06000204
1020556778200016904370919641201300343000000000000000000000000000473089000000 00000000000000000000    000000501000000000020200815000000006300000000043701N17022020000000000000000000000000000000000000000000000000000000000000000100089896670544000IACIANA PEREIRA DO NASCIMENTO BEZERRA0000000000000000000000000000000000000000Jardim Alvina0299128000000000S伋 PauloSPIACIANA PEREIRA DO NASCIMENTO BEZERRAI06000205
1020556778200016904370919641201300343000000000000000000000000004730910000000 00000000000000000000    000000501000000000020200915000000006300000000043701N17022020000000000000000000000000000000000000000000000000000000000000000100089896670544000IACIANA PEREIRA DO NASCIMENTO BEZERRA0000000000000000000000000000000000000000Jardim Alvina0299128000000000S伋 PauloSPIACIANA PEREIRA DO NASCIMENTO BEZERRAI06000206
1020556778200016904370919641201300343000000000000000000000000004731011000000 00000000000000000000    000000501000000000020201015000000006300000000043701N17022020000000000000000000000000000000000000000000000000000000000000000100089896670544000IACIANA PEREIRA DO NASCIMENTO BEZERRA0000000000000000000000000000000000000000Jardim Alvina0299128000000000S伋 PauloSPIACIANA PEREIRA DO NASCIMENTO BEZERRAI06000207
1020556778200016904370919641201300343000000000000000000000000004731112000000 00000000000000000000    000000501000000000020201115000000006300000000043701N17022020000000000000000000000000000000000000000000000000000000000000000100089896670544000IACIANA PEREIRA DO NASCIMENTO BEZERRA0000000000000000000000000000000000000000Jardim Alvina0299128000000000S伋 PauloSPIACIANA PEREIRA DO NASCIMENTO BEZERRAI06000208
1020556778200016904370919641201300343000000000000000000000000004731213000000 00000000000000000000    000000501000000000020201215000000006300000000043701N17022020000000000000000000000000000000000000000000000000000000000000000100089896670544000IACIANA PEREIRA DO NASCIMENTO BEZERRA0000000000000000000000000000000000000000Jardim Alvina0299128000000000S伋 PauloSPIACIANA PEREIRA DO NASCIMENTO BEZERRAI06000209
1020556778200016904370919641201300343000000000000000000000000000353131000000 00000000000000000000    000000501000000000000000000000000002500000000043701N170220200000000000000000000000000000000000000000000000000000000000000001000379945678350000000000000000000BRUNO EDDINE DA SILVA0000000000000000000000000000000000000000Vila Penteado0286610000000000S伋 PauloSP000000000BRUNO EDDINE DA SILVAI06000210
1020556778200016904370919641201300343000000000000000000000000000353142000000 00000000000000000000    000000501000000000020200110000000687880000000043701N170220200000000000000000000000000000000000000000000000000000000000000001000379945678350000000000000000000BRUNO EDDINE DA SILVA0000000000000000000000000000000000000000Vila Penteado0286610000000000S伋 PauloSP000000000BRUNO EDDINE DA SILVAI06000211
1020556778200016904370919641201300343000000000000000000000000000353153000000 00000000000000000000    000000501000000000020200210000000687880000000043701N170220200000000000000000000000000000000000000000000000000000000000000001000379945678350000000000000000000BRUNO EDDINE DA SILVA0000000000000000000000000000000000000000Vila Penteado0286610000000000S伋 PauloSP000000000BRUNO EDDINE DA SILVAI06000212
1020556778200016904370919641201300343000000000000000000000000000353164000000 00000000000000000000    000000501000000000020200310000000687880000000043701N170220200000000000000000000000000000000000000000000000000000000000000001000379945678350000000000000000000BRUNO EDDINE DA SILVA0000000000000000000000000000000000000000Vila Penteado0286610000000000S伋 PauloSP000000000BRUNO EDDINE DA SILVAI06000213
1020556778200016904370919641201300343000000000000000000000000000353175000000 00000000000000000000    000000501000000000020200410000000687880000000043701N170220200000000000000000000000000000000000000000000000000000000000000001000379945678350000000000000000000BRUNO EDDINE DA SILVA0000000000000000000000000000000000000000Vila Penteado0286610000000000S伋 PauloSP000000000BRUNO EDDINE DA SILVAI06000214
1020556778200016904370919641201300343000000000000000000000000000353186000000 00000000000000000000    000000501000000000020200510000000687880000000043701N170220200000000000000000000000000000000000000000000000000000000000000001000379945678350000000000000000000BRUNO EDDINE DA SILVA0000000000000000000000000000000000000000Vila Penteado0286610000000000S伋 PauloSP000000000BRUNO EDDINE DA SILVAI06000215
1020556778200016904370919641201300343000000000000000000000000000353197000000 00000000000000000000    000000501000000000020200610000000687880000000043701N170220200000000000000000000000000000000000000000000000000000000000000001000379945678350000000000000000000BRUNO EDDINE DA SILVA0000000000000000000000000000000000000000Vila Penteado0286610000000000S伋 PauloSP000000000BRUNO EDDINE DA SILVAI06000216
1020556778200016904370919641201300343000000000000000000000000000353208000000 00000000000000000000    000000501000000000020200710000000687880000000043701N170220200000000000000000000000000000000000000000000000000000000000000001000379945678350000000000000000000BRUNO EDDINE DA SILVA0000000000000000000000000000000000000000Vila Penteado0286610000000000S伋 PauloSP000000000BRUNO EDDINE DA SILVAI06000217
1020556778200016904370919641201300343000000000000000000000000000353219000000 00000000000000000000    000000501000000000020200810000000687880000000043701N170220200000000000000000000000000000000000000000000000000000000000000001000379945678350000000000000000000BRUNO EDDINE DA SILVA0000000000000000000000000000000000000000Vila Penteado0286610000000000S伋 PauloSP000000000BRUNO EDDINE DA SILVAI06000218
1020556778200016904370919641201300343000000000000000000000000003532210000000 00000000000000000000    000000501000000000020200910000000687880000000043701N170220200000000000000000000000000000000000000000000000000000000000000001000379945678350000000000000000000BRUNO EDDINE DA SILVA0000000000000000000000000000000000000000Vila Penteado0286610000000000S伋 PauloSP000000000BRUNO EDDINE DA SILVAI06000219
1020556778200016904370919641201300343000000000000000000000000003532311000000 00000000000000000000    000000501000000000000000000000000687880000000043701N170220200000000000000000000000000000000000000000000000000000000000000001000379945678350000000000000000000BRUNO EDDINE DA SILVA0000000000000000000000000000000000000000Vila Penteado0286610000000000S伋 PauloSP000000000BRUNO EDDINE DA SILVAI06000220
1020556778200016904370919641201300343000000000000000000000000003532412000000 00000000000000000000    000000501000000000020201110000000687880000000043701N170220200000000000000000000000000000000000000000000000000000000000000001000379945678350000000000000000000BRUNO EDDINE DA SILVA0000000000000000000000000000000000000000Vila Penteado0286610000000000S伋 PauloSP000000000BRUNO EDDINE DA SILVAI06000221
1020556778200016904370919641201300343000000000000000000000000003532513000000 00000000000000000000    000000501000000000020201210000000687880000000043701N170220200000000000000000000000000000000000000000000000000000000000000001000379945678350000000000000000000BRUNO EDDINE DA SILVA0000000000000000000000000000000000000000Vila Penteado0286610000000000S伋 PauloSP000000000BRUNO EDDINE DA SILVAI06000222
1020556778200016904370919641201300343000000000000000000000000000253261000000 00000000000000000000    000000501000000000000000000000000002500000000043701N17022020000000000000000000000000000000000000000000000000000000000000000100036649004804000000000000000000MURILO BASTOS DE SOUZA0000000000000000000000000000000000000000000Vila Rica0286102000000000S伋 PauloSP00000000MURILO BASTOS DE SOUZAI06000223
1020556778200016904370919641201300343000000000000000000000000000253272000000 00000000000000000000    000000501000000000020200110000000763650000000043701N17022020000000000000000000000000000000000000000000000000000000000000000100036649004804000000000000000000MURILO BASTOS DE SOUZA0000000000000000000000000000000000000000000Vila Rica0286102000000000S伋 PauloSP00000000MURILO BASTOS DE SOUZAI06000224
1020556778200016904370919641201300343000000000000000000000000000253283000000 00000000000000000000    000000501000000000020200210000000763650000000043701N17022020000000000000000000000000000000000000000000000000000000000000000100036649004804000000000000000000MURILO BASTOS DE SOUZA0000000000000000000000000000000000000000000Vila Rica0286102000000000S伋 PauloSP00000000MURILO BASTOS DE SOUZAI06000225
1020556778200016904370919641201300343000000000000000000000000000253294000000 00000000000000000000    000000501000000000020200310000000763650000000043701N17022020000000000000000000000000000000000000000000000000000000000000000100036649004804000000000000000000MURILO BASTOS DE SOUZA0000000000000000000000000000000000000000000Vila Rica0286102000000000S伋 PauloSP00000000MURILO BASTOS DE SOUZAI06000226
1020556778200016904370919641201300343000000000000000000000000000253305000000 00000000000000000000    000000501000000000020200410000000763650000000043701N17022020000000000000000000000000000000000000000000000000000000000000000100036649004804000000000000000000MURILO BASTOS DE SOUZA0000000000000000000000000000000000000000000Vila Rica0286102000000000S伋 PauloSP00000000MURILO BASTOS DE SOUZAI06000227
1020556778200016904370919641201300343000000000000000000000000000253316000000 00000000000000000000    000000501000000000020200510000000763650000000043701N17022020000000000000000000000000000000000000000000000000000000000000000100036649004804000000000000000000MURILO BASTOS DE SOUZA0000000000000000000000000000000000000000000Vila Rica0286102000000000S伋 PauloSP00000000MURILO BASTOS DE SOUZAI06000228
1020556778200016904370919641201300343000000000000000000000000000253327000000 00000000000000000000    000000501000000000020200610000000763650000000043701N17022020000000000000000000000000000000000000000000000000000000000000000100036649004804000000000000000000MURILO BASTOS DE SOUZA0000000000000000000000000000000000000000000Vila Rica0286102000000000S伋 PauloSP00000000MURILO BASTOS DE SOUZAI06000229
1020556778200016904370919641201300343000000000000000000000000000253338000000 00000000000000000000    000000501000000000020200710000000763650000000043701N17022020000000000000000000000000000000000000000000000000000000000000000100036649004804000000000000000000MURILO BASTOS DE SOUZA0000000000000000000000000000000000000000000Vila Rica0286102000000000S伋 PauloSP00000000MURILO BASTOS DE SOUZAI06000230
1020556778200016904370919641201300343000000000000000000000000000253349000000 00000000000000000000    000000501000000000020200810000000763650000000043701N17022020000000000000000000000000000000000000000000000000000000000000000100036649004804000000000000000000MURILO BASTOS DE SOUZA0000000000000000000000000000000000000000000Vila Rica0286102000000000S伋 PauloSP00000000MURILO BASTOS DE SOUZAI06000231
1020556778200016904370919641201300343000000000000000000000000002533510000000 00000000000000000000    000000501000000000020200910000000763650000000043701N17022020000000000000000000000000000000000000000000000000000000000000000100036649004804000000000000000000MURILO BASTOS DE SOUZA0000000000000000000000000000000000000000000Vila Rica0286102000000000S伋 PauloSP00000000MURILO BASTOS DE SOUZAI06000232
1020556778200016904370919641201300343000000000000000000000000002533611000000 00000000000000000000    000000501000000000020201010000000763650000000043701N17022020000000000000000000000000000000000000000000000000000000000000000100036649004804000000000000000000MURILO BASTOS DE SOUZA0000000000000000000000000000000000000000000Vila Rica0286102000000000S伋 PauloSP00000000MURILO BASTOS DE SOUZAI06000233
1020556778200016904370919641201300343000000000000000000000000002533712000000 00000000000000000000    000000501000000000020201110000000763650000000043701N17022020000000000000000000000000000000000000000000000000000000000000000100036649004804000000000000000000MURILO BASTOS DE SOUZA0000000000000000000000000000000000000000000Vila Rica0286102000000000S伋 PauloSP00000000MURILO BASTOS DE SOUZAI06000234
1020556778200016904370919641201300343000000000000000000000000002533813000000 00000000000000000000    000000501000000000020201210000000763650000000043701N17022020000000000000000000000000000000000000000000000000000000000000000100036649004804000000000000000000MURILO BASTOS DE SOUZA0000000000000000000000000000000000000000000Vila Rica0286102000000000S伋 PauloSP00000000MURILO BASTOS DE SOUZAI06000235
1020556778200016904370919641201300343000000000000000000000000000483391000000 00000000000000000000    000000501000000000000000000000000002500000000043701N1702202000000000000000000000000000000000000000000000000000000000000000010003785200889500000000000000000RITA DO NASCIMENTO IMAI0000000000000000000000000000000000000000Vila Nova Cachoeirinha0261100300000000S伋 PauloSP0000000RITA DO NASCIMENTO IMAII06000236
1020556778200016904370919641201300343000000000000000000000000000483402000000 00000000000000000000    000000501000000000020200108000000005270000000043701N1702202000000000000000000000000000000000000000000000000000000000000000010003785200889500000000000000000RITA DO NASCIMENTO IMAI0000000000000000000000000000000000000000Vila Nova Cachoeirinha0261100300000000S伋 PauloSP0000000RITA DO NASCIMENTO IMAII06000237
1020556778200016904370919641201300343000000000000000000000000000483413000000 00000000000000000000    000000501000000000020200207000000005270000000043701N1702202000000000000000000000000000000000000000000000000000000000000000010003785200889500000000000000000RITA DO NASCIMENTO IMAI0000000000000000000000000000000000000000Vila Nova Cachoeirinha0261100300000000S伋 PauloSP0000000RITA DO NASCIMENTO IMAII06000238
1020556778200016904370919641201300343000000000000000000000000000483424000000 00000000000000000000    000000501000000000020200306000000005270000000043701N1702202000000000000000000000000000000000000000000000000000000000000000010003785200889500000000000000000RITA DO NASCIMENTO IMAI0000000000000000000000000000000000000000Vila Nova Cachoeirinha0261100300000000S伋 PauloSP0000000RITA DO NASCIMENTO IMAII06000239
1020556778200016904370919641201300343000000000000000000000000000483435000000 00000000000000000000    000000501000000000020200407000000005270000000043701N1702202000000000000000000000000000000000000000000000000000000000000000010003785200889500000000000000000RITA DO NASCIMENTO IMAI0000000000000000000000000000000000000000Vila Nova Cachoeirinha0261100300000000S伋 PauloSP0000000RITA DO NASCIMENTO IMAII06000240
1020556778200016904370919641201300343000000000000000000000000000483446000000 00000000000000000000    000000501000000000020200508000000005270000000043701N1702202000000000000000000000000000000000000000000000000000000000000000010003785200889500000000000000000RITA DO NASCIMENTO IMAI0000000000000000000000000000000000000000Vila Nova Cachoeirinha0261100300000000S伋 PauloSP0000000RITA DO NASCIMENTO IMAII06000241
1020556778200016904370919641201300343000000000000000000000000000483457000000 00000000000000000000    000000501000000000020200607000000005270000000043701N1702202000000000000000000000000000000000000000000000000000000000000000010003785200889500000000000000000RITA DO NASCIMENTO IMAI0000000000000000000000000000000000000000Vila Nova Cachoeirinha0261100300000000S伋 PauloSP0000000RITA DO NASCIMENTO IMAII06000242
1020556778200016904370919641201300343000000000000000000000000000483468000000 00000000000000000000    000000501000000000020200709000000005270000000043701N1702202000000000000000000000000000000000000000000000000000000000000000010003785200889500000000000000000RITA DO NASCIMENTO IMAI0000000000000000000000000000000000000000Vila Nova Cachoeirinha0261100300000000S伋 PauloSP0000000RITA DO NASCIMENTO IMAII06000243
1020556778200016904370919641201300343000000000000000000000000000483479000000 00000000000000000000    000000501000000000020200807000000005270000000043701N1702202000000000000000000000000000000000000000000000000000000000000000010003785200889500000000000000000RITA DO NASCIMENTO IMAI0000000000000000000000000000000000000000Vila Nova Cachoeirinha0261100300000000S伋 PauloSP0000000RITA DO NASCIMENTO IMAII06000244
1020556778200016904370919641201300343000000000000000000000000004834810000000 00000000000000000000    000000501000000000020200908000000005270000000043701N1702202000000000000000000000000000000000000000000000000000000000000000010003785200889500000000000000000RITA DO NASCIMENTO IMAI0000000000000000000000000000000000000000Vila Nova Cachoeirinha0261100300000000S伋 PauloSP0000000RITA DO NASCIMENTO IMAII06000245
1020556778200016904370919641201300343000000000000000000000000004834911000000 00000000000000000000    000000501000000000020201007000000005270000000043701N1702202000000000000000000000000000000000000000000000000000000000000000010003785200889500000000000000000RITA DO NASCIMENTO IMAI0000000000000000000000000000000000000000Vila Nova Cachoeirinha0261100300000000S伋 PauloSP0000000RITA DO NASCIMENTO IMAII06000246
1020556778200016904370919641201300343000000000000000000000000004835012000000 00000000000000000000    000000501000000000020201109000000005270000000043701N1702202000000000000000000000000000000000000000000000000000000000000000010003785200889500000000000000000RITA DO NASCIMENTO IMAI0000000000000000000000000000000000000000Vila Nova Cachoeirinha0261100300000000S伋 PauloSP0000000RITA DO NASCIMENTO IMAII06000247
1020556778200016904370919641201300343000000000000000000000000004835113000000 00000000000000000000    000000501000000000020201207000000005270000000043701N1702202000000000000000000000000000000000000000000000000000000000000000010003785200889500000000000000000RITA DO NASCIMENTO IMAI0000000000000000000000000000000000000000Vila Nova Cachoeirinha0261100300000000S伋 PauloSP0000000RITA DO NASCIMENTO IMAII06000248
